:020000021000EC
:1080000000400020CDBA010009BB01000BBB0100FC
:108010000000000000000000000000000000000060
:108020000000000000000000000000000DBB010087
:1080300000000000000000000FBB010011BB0100A8
:1080400013BB0100F9A601000DC2010013BB010022
:1080500013BB010000000000CDBB010013BB0100F9
:1080600013BB0100E9C3010095C0010013BB01006F
:1080700013BB010013BB010013BB010013BB0100C4
:1080800013BB010013BB010013BB010013BB0100B4
:1080900013BB010039B9010015B9010013BB010080
:1080A00013BB010013BB0100000000000000000032
:1080B00000000000000000000000000000000000C0
:1080C00010B5064C2378002B07D1054B002B02D0AE
:1080D000044800E000BF0123237010BDA020002051
:1080E00000000000C00E0200044B10B5002B03D0AE
:1080F0000349044800E000BF10BDC0460000000076
:10810000A4200020C00E0200164B002B00D1144BFF
:108110009D46402292029A1A924600218B460F46B3
:108120001348144A121A08F024F90F4B002B00D000
:1081300098470E4B002B00D09847002000210400E8
:108140000D000D48002802D00C4800E000BF06F0EA
:1081500099F82000290007F0CFFE06F07DF8C04610
:1081600000000800004000200000000000000000A7
:10817000982000202C2600200000000000000000B5
:10818000034B10B518001B6910309B68984710BD51
:10819000DC200020034B10B518001B6910309B68D1
:1081A000984710BDBC20002010B50400034B0360AD
:1081B000403006F032FA200010BDC04638040200FC
:1081C0008B8883808B798371054B03608B68836018
:1081D0000B7B03734B7B43730E23CB568373704728
:1081E00020040200F7B5294F380007F08DF8284D1C
:1081F00000212E002800103602F078F9002130000E
:1082000002F074F90121280002F070F9214802F00F
:10821000D9F9214C2080214802F0D4F90021608056
:10822000280002F063F90121300002F05FF91948DB
:1082300002F0C8F9A080194802F0C4F90021E080DA
:10824000300002F053F9380007F059F8002578267D
:10825000615B01A806F0FEF9320001A9380001F0C7
:10826000B9FE01A806F0D9F96319598801A806F0EA
:10827000F1F9320001A9380001F0ACFE043501A883
:1082800006F0CBF9082DE3D10020FEBDEC21002043
:10829000DC200020BC200020E4250020CC20002091
:1082A00070B5144C200000F067F8134D13492A00F4
:1082B000200008F026F8124C12492000FFF780FF3A
:1082C000200011491030FFF77BFF2A000F490020E2
:1082D00008F017F80E4C0F492000FFF771FF20003F
:1082E0000D491030FFF76CFF2A000C49002008F000
:1082F00008F870BDFC200020002000202183010030
:10830000DC20002054230020642300208181010010
:10831000BC20002024230020F422002095810100AD
:10832000CA23144A9B0010B5C2501C330400C01865
:1083300006F073F9D0239B00E01806F06EF92000D8
:108340009130FF3001F012F920006930FF3001F068
:108350000DF92000F03001F08BFC2000D03001F04E
:1083600065FF2000643003F01DFB201DFFF71CFF9C
:10837000200010BD940802001423F0B5040093B04F
:10838000009319221821043002F006FA2200250079
:1083900026006432B435132110001092B83603F071
:1083A0000DFB280007F013FB00221E21300006F011
:1083B000B5FF2000D03001F059FF2200F0321192B9
:1083C0000621464A119801F077FC2000002701237E
:1083D00069301A0000971121FF3001F0D3F8200016
:1083E00091300097012302221A21FF3001F0CAF8D0
:1083F0002000B9301A2301210222FF3001F0F2FFE0
:10840000300000F0CBFEE4225200A050300001F01A
:1084100013F9E6235B00E0500100E4222000520043
:10842000D130119BA2580095FF3001F055FB200080
:10843000E13029001C22FF3002F0DAFA1923200073
:108440000F93013B0E93013B0D93013B0C93013BBA
:108450000B93013B0A93013B0993013B0893013BBA
:108460000793013B0693013B0593013B0493013BBA
:108470000393013B0293013B0193F930013B082236
:1084800000930721013BFF3006F069FFCA239B00E0
:10849000E018290003F0B4F8D3239B00E0181D2155
:1084A00002F0C6F8DD239B00E750109827700321E7
:1084B00007F045FC23002200200009499C33A0322C
:1084C0001C6011605760074A80305A610221012206
:1084D00003F02EFC200013B0F0BDC04640040200A3
:1084E0008BE3010075E30100BFF34F8F024B034A9A
:1084F000DA60BFF34F8FFEE700ED00E00400FA05FD
:10850000F0B597B018220021060010A807F031FF3F
:10851000132110A807F05BFD032110A807F0EDFD63
:108520004C4B1B68002B00D10133DBB202934A4A4B
:10853000012300210BA803F069FD484B9E4200D99E
:10854000002672B6464B64211D68464B30000793E7
:10855000052404F0E3F860435030281808900A21FD
:10856000300004F0DBF80A2104F0BEF96143503119
:108570006918099130000A2104F0B6F9802361439B
:108580000024503169189B010A910193029B002B32
:108590005DD0002500272E1F07AB9B190593032CE8
:1085A00003D1802300249B01019307AB5B592E4A22
:1085B00003936300D3180493002319000620584343
:1085C000049A16187678B4466246039EB25C10266A
:1085D0009446049A105C62460641164202D001207D
:1085E000984001430133092BE8D1C9431F4B059A39
:1085F000090119401268039B934225D1312F23DCD6
:1086000000210BA807F044FEFA23159A1199DB000C
:10861000106801421BD0013B002BF9D1019B0134B2
:108620005B000193FA230137E4B25B009F42B6D1AD
:108630000435102DAED1074B1B68002BA6D0029F2E
:10864000013FFBB20293A1E7019B1943D9E7FFF772
:108650004BFFC04674240020F0FF0000E703000039
:1086600004200020E00B0200AA0B0200F01F000013
:10867000F0B585B01F000AAB1B88060002911500FB
:108680000393002F1BD0282007F042FE6B46040006
:108690001989039BAAB200933B0005F05EFF336883
:1086A00021005B6830009847002806D0200005F0C4
:1086B0006AFF200007F021FE024805B0F0BD024825
:1086C000FBE7C04616FCFFFF17FCFFFFF0B593B0B9
:1086D00007932A4B04AC1E68049005910692002E65
:1086E0004AD0274B258867881C6800230293002CFA
:1086F0002ED0636D23480393A36C9AB2A36C1B0C1A
:1087000099B2854214D12048824211D1002B01D068
:10871000B9420BD1029B002B08D1200005F073FE5B
:108720001A49200005F05DFE01230293039CDEE759
:10873000002A01D09542F9D1002B01D0B942F5D1E0
:10874000200005F060FE1149200005F04AFEEDE72B
:108750000F4BEB18012B0FD910233A00009329007F
:108760000C4B08A805F0F9FE336808A99B68300097
:10877000984708A805F007FF13B0F0BD7824002043
:10878000A8240020FE030000FF0300009C2400201A
:1087900002FCFFFFCD86010010B572B60B4B1C68C2
:1087A000002C08D0200005F02EFE0023E364084BC7
:1087B0002000E36310BD62B65C2007F0A9FD5C22D7
:1087C0000021040007F0D5FDEFE7C046A0240020FB
:1087D00000400020024B1878012318407047C04623
:1087E000F0250020F7B506000D00170001930028C2
:1087F00002D100242000FEBD0029FAD0FFF7CCFFF3
:10880000041EF6D0074B019A4363066045608760FB
:10881000054B002A00D0054BA3630549200005F055
:10882000E0FDE7E7FC3F002097E40100B5E401002C
:108830009C240020024B1868434258417047C046B0
:108840009C240020002310B504499C006258002A93
:1088500001D00133F9E76050100010BD84240020DE
:10886000002310B5044A99008C58844201D001338A
:10887000F9E70020885010BD8424002010B50024A2
:10888000084BA200D058002802D003685B689847C4
:108890000134062CF4D1044B1B68002B00D120BFFF
:1088A00010BDC046842400209C240020F8B5FFF7AA
:1088B00091FF00281CD02A4D2C68E36CDA0718D5EC
:1088C00002273B43E364274B1E680423F26C30000D
:1088D0001343F364636BF36305F0BBFD3000716C0D
:1088E00002F0EDFE2868C36C3B4201D002F021FF8C
:1088F000F8BD1D4F1D4E3A683168002A1ED129600F
:108900002A68914208D11B0706D52C60FFF7B6FFF5
:108910003B68002BFAD02B6029688C42E8D0336882
:10892000994214D1124B4B63124B8B63200005F01C
:1089300090FD2968626C4B6C20000DE0206DB84200
:1089400003D1606D002800D002002A60D8E79C4265
:10895000ECD1002210004B6C02F070FEC8E7C0465C
:10896000AC240020802400209C240020A42400208B
:10897000FC3F0020CDE4010070B50500FFF72AFFA1
:10898000002803D1280007F0B1FB70BD0C4B1C6818
:10899000E36CDB0706D5FFF7FFFE0A4B18600028E3
:1089A00000D0040000F0D6F92D18A564200005F0D1
:1089B0002AFD0549200005F014FDFFF777FFE4E7E5
:1089C000AC240020802400207C240020F0B51E4B25
:1089D0001E4F1C683B6885B006000391002B30D009
:1089E000FFF7F8FE00282CD0E36CDB070ED5FFF76D
:1089F000D3FE174B051E186008D005F004FD15497D
:108A0000280005F0EEFC2C00FFF750FF039B200030
:108A10001B043343A36405F0F6FC20000E4905F067
:108A2000E0FC0E4B0024F318012B07D9C023009360
:108A3000039A0B4B31003868FFF71AFE200005B08F
:108A4000F0BD084CFAE7C046AC2400207824002092
:108A5000802400209C240020A824002002FCFFFF8A
:108A6000CD86010016FCFFFF10B5FFF7B3FE00280E
:108A700009D0054C206805F0C6FC0449206805F0C3
:108A8000B0FCFFF713FF10BDAC240020A024002091
:108A9000F7B507000D0000282ED0FFF79BFE002839
:108AA0002CD00724164E3068C36C1C4007D0154AE2
:108AB0002900380005F0BEFC00242000FEBD02F0B5
:108AC00020FE02213268D36C1940019103D00321AA
:108AD0008B43D364F1E701242343D3642800B847D0
:108AE0003268D36C1900A143D164019C5B07E4D5C3
:108AF000280005F0D7FCE0E7034CDEE7034CDCE799
:108B0000AC240020A5E4010017FCFFFF16FCFFFFCA
:108B1000020010B5014B12CB12C210BDB0240020D0
:108B2000034B1A68034B1A607E225A607047C04696
:108B300004200020B024002070B5114E3278022AA3
:108B40001AD081421AD90C1A072C17D90D00032309
:108B500005432B4012D172B60A4DD2005051AA18CB
:108B600051608022A4081206144304603278013256
:108B7000327062B6180070BD0348FCE70348FAE79C
:108B8000F2250020B824002013FCFFFF17FCFFFF94
:108B900070B5134C06002378124D002B0CD11249EE
:108BA00012482B70FFF7C8FF114B984202D11E20CC
:108BB000FFF7A6FC0123237000242B78A34209DDD4
:108BC0000C49E300C918300005F086FC002805D1E7
:108BD0000134F2E71420FFF793FC002070BDC0467B
:108BE000F1250020F225002000380020302600204A
:108BF00017FCFFFFB824002070B5002819D0104BD7
:108C000010491C7800239C4216DDDA005558854235
:108C100010D28A18526882420CD9041F2368002B94
:108C200002DC1E20FFF76CFC802322681B06134326
:108C3000236070BD0133E6E71E20FFF761FCF8E713
:108C4000F2250020B824002070B5051E14DD0B4E5F
:108C50000B4C3368002B02D0206807F0D2F8FA21C1
:108C600020680024074B89008361C4626943356032
:108C700007F0CFF8200070BD0348FCE7C8240020AF
:108C8000F8240020318D010017FCFFFFF8B5114FCB
:108C900006003D68002D0AD1302007F039FB0400A2
:108CA00002F0E6FE0C4BA5612360E5623C600B4DD3
:108CB0002B68002B09D1102007F02AFB040007F0D5
:108CC000F4F820002C6007F0CAF83000FFF7BCFF72
:108CD000F8BDC046F8240020DC080200F42400207F
:108CE000014B18687047C046C824002070B50D4C71
:108CF0002368002B03D00C4B1B68002B02D10620ED
:108D0000FFF7C4FF206807F0C1F802000749C31746
:108D10000D684E685219734120680A604B6007F075
:108D2000BBF870BDF4240020F82400209820002017
:108D300010B5FFF7DBFF0024054BA200D058002838
:108D400002D003681B68984701340A2CF4D110BD87
:108D5000CC24002010B5FFF7C9FFFA22034B920084
:108D600018685968002303F0FFFD10BD982000200B
:108D700010B5FFF7BBFF024B1868596810BDC0461D
:108D8000982000200B4B10B51B680400002B03D06B
:108D9000094B1B68002B02D10620FFF777FF002349
:108DA000064A99008858002801D00133F9E78C5011
:108DB00010BDC046F4240020F8240020CC2400205C
:108DC000002310B5044A99008C58844201D0013325
:108DD000F9E70020885010BDCC24002010B5040015
:108DE000002902D00B78002B03D1034B2360200015
:108DF00010BD05F019FCFAE758040200014B0360AE
:108E00007047C0465804020010B50548054C206064
:108E100005F059FD044A0549200007F072FA10BD1B
:108E200058040200FC240020002000201BE6010062
:108E3000084B73B51C680500002C0AD00100266899
:108E400008310822684607F08BFA0CCD3168200003
:108E5000884773BD00250020014B03607047C04662
:108E60006004020030B500684488A1420CDA8588AD
:108E7000AA4209DA002907DB002A05DB544340181F
:108E800000198371002030BD0048FCE717FCFFFF8C
:108E9000F0B5070085B00E001D00002921DD002A75
:108EA0001FDD002B1DD00468638803938B4200DD17
:108EB0000391A3880293934200DD029200230634BB
:108EC0000193019B029A93420EDA29002000039A33
:108ED00007F046FA3B68AD195B88E418019B013343
:108EE000EEE7024805B0F0BD0020FBE717FCFFFFEE
:108EF000F8B504000D0016001F00002901DB002A50
:108F000002DA0E4B2360F8BD100048430630FFF72D
:108F10003FFE206005F0D4FC23685D8023689E80BE
:108F2000002F06D03B00320029002000FFF7B0FFE1
:108F3000E9E7200005F001FCE5E7C0466004020017
:108F4000F7B506000D1E03D1244B03603000FEBDB3
:108F500000200F000400010001903B78002B1AD084
:108F60003022524294469C446246092A11D90A2B67
:108F70000AD1019B241801330193A14200DA210098
:108F8000002004000137E8E70028FBD0013400206E
:108F9000F8E70120F6E70127019A09B212B2300082
:108FA0007F42FFF7A5FF39000A2033689A1D2C780D
:108FB000002CCBD02300303B092B08D8FB43DB1718
:108FC0003B4043431B19303B1F000135EFE7002FA7
:108FD000FBDB177001320F00F7E7C04660040200A8
:108FE000F0B5040089B006A80E0002921D00FFF73C
:108FF0008FFD236802995A88914235DA9B889D42F9
:1090000032DA1F2E30D9079B01939E422CDC0523B8
:10901000002273430393069B0493039B04999B18BC
:10902000A03BCB5C00210593AE18029BCF182368B0
:109030005888019087420EDA9888B0420BDDDB1920
:1090400010270F41019870431B1805980740781EA0
:1090500087417F429F7101310529E6D10132052AFE
:10906000DBD1002009B0F0BD0048FBE717FCFFFF93
:10907000F7B50468070063880E1E01931EDD994250
:1090800018DA0023063400933B68009A9B889A42C2
:1090900012DA019BA1199D1B2A00200007F060F93C
:1090A0006019310005F03BFB3B685B88E418009BCE
:1090B0000133E8E705F041FB002000E00048FEBD79
:1090C00017FCFFFF10B50548054C206005F0FBFBC1
:1090D000044A0549200007F014F910BD600402009D
:1090E000042500200020002011E7010010B5054CE8
:1090F0000121200005F0DBFB034A0449200007F0B2
:1091000000F910BD08250020002000206BE80100B8
:109110000388074A10B50120934208D0834202D049
:109120000020DB0703D41E20FFF7EAF9002010BD62
:10913000FFFF00000048704716FCFFFF10B532200B
:10914000FFF7DEF9004810BD16FCFFFF10B5124C0A
:10915000002308348280046041620224142201004A
:109160008371847203638386028136310A78C36017
:10917000A243F1342240036143618361C36103620E
:109180000A70020040321370021DD38701334387F7
:109190008387C38710BDC04668040200F0B5544FF2
:1091A00097B03B6806000593002B00D08BE006AC1F
:1091B0000B331C222121200001F04CF90EAD0B23B2
:1091C0001D2222210AA801F045F90B231B2223218D
:1091D000280001F03FF9082007F09AF80122059BCA
:1091E0001100049006F007FD3A21300006F07AFCE9
:1091F00000281DD0A38812ADAB80A3795C20AB7191
:109200003C4B1293A3681493237B2B73637B6B7388
:10921000A37BAB7307F07CF80423019336330093F0
:109220002A00049B3100040001F0E6FE3C604AE0A5
:109230003221300006F084FC00281CD0A38812AD37
:10924000AB80A3795C20AB712A4B1293A368149373
:10925000237B2B73637B6B73A37BAB7307F058F893
:10926000042301932E3300932A00049B3100040051
:1092700002F060F8DAE73C21300006F01CFC002820
:109280002CD0AB8812ACA380AB79A420A371194B6E
:109290001293AB6814932B7B23736B7B6373AB7B51
:1092A000A37307F035F8052305000293013B0193F2
:1092B000383300932200049B310001F0BBFD0E4BBC
:1092C0003D6044351D600C4B094C1868002802D0E5
:1092D000216805F046FC206817B0F0BD442007F077
:1092E00017F8042204990400FFF730FF9EE7C046F8
:1092F0000C2500202004020010250020F0B5614953
:10930000C56885B08D4254DA0300022236331B78DB
:10931000134059D104698C4264DA02003632127863
:10932000520768D4426901920200019E40328E4287
:109330006FDA010036310978090774D4002B7DD12A
:1093400013780293002B16D006000127011DCB8F46
:10935000363601339BB2CB8703963678BC4637400E
:1093600000D188E01D2B06D963469E43039B1E70E7
:109370000023CB87137005F0E8FA434A0723904295
:1093800076D94249043B8D4272DBC82201339200F8
:1093900095426DDC023B8C426ADB013B944267DC08
:1093A00001980433884263DB0133904260DC002380
:1093B0005EE0C822002352009542ABDD0300363345
:1093C0001A7800239207A5D4012306001F00363621
:1093D00032785408A7433C0002279C40BA432243FA
:1093E000327097E7C822520094429BDD0200363269
:1093F0001278520796D406000122363633789F0839
:10940000BA439700042293431A003A43327001236F
:1094100088E7C821019E49008E428FDD0100363168
:10942000097809078AD40100012636310B78DF0854
:10943000BE430827F600BB4333430B701378032B5E
:1094400000D97DE70133DBB21370012B03D100217A
:10945000031DD98774E7042B00D071E70200363270
:109460001178033B0B43137000230430C3870B3385
:10947000180005B0F0BD092B00D87CE7029BCF8710
:10948000013B77E770FEFFFFFF700200E0FCFFFF8B
:1094900070B5C369C1681A68451D8AB00400EB7FC6
:1094A000114255D0002B58D1EB7F082B0DD901224A
:1094B000A379134209D11343A371A188130006A80D
:1094C00005F003F9FFF746FC2062EB7F012B23D860
:1094D0000123A2791A421FD00025A188A57102227A
:1094E00002A805F0F2F8A31DDE7F012E14D1FFF7CC
:1094F00031FC2B00226A801A994100900191019B56
:10950000A188AB4203D1174B009A9A4227D9012375
:10951000042206A805F0D9F80322A3791340012BF1
:1095200014D1FFF717FC0023226A801A994199424F
:1095300002D10D4B984209D90223A279A188134385
:10954000A3710522012306A805F0BFF80AB070BD7B
:109550000B2BA9D80133EB77A6E7013BFBE73300E0
:109560000322D6E7E7030000DB05000010B5040086
:10957000034B08330360FFF723FC200010BDC046F7
:109580009C040200F0B5070000250E00040085B021
:1095900002930AAB1B78083703930F4B01920833F1
:1095A00003608580857129001822380006F0E1FEED
:1095B000039A3100380006F00FFD019B029AA38048
:1095C000A31DE671DA77631D25622000DD77FFF7C2
:1095D000D9FB200005B0F0BD9C0402000048704794
:1095E00016FCFFFF10B53320FEF78AFF004810BDC0
:1095F00016FCFFFF002310B50400838083710D4823
:109600002164083020608020C000A061E0612062F9
:10961000E3602000236163616362A362E36223630A
:109620006363A363E3636364110005F072FA2000CF
:1096300010BDC046B4040200F0B5534F97B03B686C
:1096400006000593002B00D08BE00B331C22212158
:1096500006A80AAC00F0FEFE0EAD0B231D2222214F
:10966000200000F0F7FE0B231B222321280000F02E
:10967000F1FE082006F04CFE0122059B110004902B
:1096800006F0B9FA1D21300006F043FA00281DD07B
:10969000A38812ADAB80A3796020AB713B4B1293D2
:1096A000A3681493237B2B73637B6B73A37BAB73D4
:1096B00006F02EFE05230193183300932A00049B25
:1096C0003100040001F06CFD3C604AE03C213000B8
:1096D00006F04DFA00281CD0A38812ADAB80A37908
:1096E0006020AB71294B1293A3681493237B2B73D7
:1096F000637B6B73A37BAB7306F00AFE05230193B8
:10970000373300932A00049B3100040001F0B4FEBB
:10971000DAE73C21300006F0CEF900282AD0AB88E9
:1097200012ACA380AB79A420A371184B1293AB6841
:1097300014932B7B23736B7B6373AB7BA37306F058
:10974000E7FD052305000293013B019338330093A5
:109750002200049B310001F06DFB0D4B1D60443570
:109760003D600B4B084A1B681068002B00D0436417
:1097700017B0F0BD482006F0CBFD05220499040087
:10978000FFF738FFA0E7C0461025002020040200A4
:109790000C25002082B0F0B50400EDB06420739376
:1097A000729206F0A3FC052210A8110004F0CEFF6F
:1097B000974911A8FFF7C4FB002221AB6CA91A60DE
:1097C0005A609A600C339942F9D11922002113A8EA
:1097D00006F0CFFDA06805F04EFD00260B90FF219E
:1097E000A06800F01DFC8B4FA06800F05DFB0796A1
:1097F0000996884B9F4203D0874B9F4200DBFDE0D8
:10980000A06805F086FDA56884491AA8FFF7E6FA66
:1098100078221AA9280000F0B3FB1AA804F0FDFE74
:1098200000267C4F0322099B606801331A4009928D
:1098300005F016F90500606805F019F90022784B6B
:1098400005929D4210DB013205922A00C8320BDBE3
:10985000AA22042192000591954205DC022205927C
:10986000C82D01DD0132059200220692984210DBDC
:10987000012306930300C8330BDBAA2304329B00A9
:109880000692984205DC02230693C82801DD0133C5
:10989000069310A804F051FF002513ABEB5C012BDD
:1098A00008D160496B00CA185278C95C10A8FF2320
:1098B000FFF7D8FA0135192DEFD16B4618229A5EC1
:1098C0006B4610A81421595E099BFFF7CBFA002FB5
:1098D00001DB0F2E07D90023A068009374301A0013
:1098E00010A904F03AFF01230893089B05995A0038
:1098F0004C4B9B189A1E12788A4226D1013B1B784A
:10990000069A934221D1089A6CAB9B18663BFF3BA9
:109910000A931B78012B18D00C23079A2168534314
:109920001D0000220CA805F01EF921AA2B00944668
:109930000CAA634423CA23C301220A9B01361A706E
:10994000079BF6B20133DBB20793089B0133089300
:109950001A2BCAD1642006F0C9FB079B643F3FB2B3
:10996000182B00D845E71A0021A91AA805F0FCFA1F
:109970006A461DAB23CB23C21B6813601A991B9A3E
:109980001C9B206805F0D7F8E568002D0CD026490F
:1099900012A8FFF723FA1C231AAA12A9280006F01E
:1099A00055F812A804F039FEA06805F0B2FC11A920
:1099B00012A8A56804F0B9FE00221C4B009212A95F
:1099C00001932800130000F0B1FA12A804F0A0FEE1
:1099D000FA20800006F08AFBA06805F09AFC0B993B
:1099E000A06800F01DFB11A804F092FE10A804F07E
:1099F0008FFE6DB0F0BC08BC02B01847002F02D03B
:109A00000F2E00D00EE7A06800F04EFA0AE7C0461D
:109A1000C00D02008C3C0000D18AFFFF050E020041
:109A200058FDFFFF250E02001A0E0200DC050000A3
:109A3000F0B587B001930EAB1B88060003930D9B16
:109A40000D000093019B02920C9F002B3CD0002F35
:109A500002D1009BDB0737D5282006F059FC040013
:109A6000103004F028FE029B18202580638006F049
:109A70004FFC0500009B08220593019B0021036019
:109A80000C30049706F075FC082204A9281D06F086
:109A900067FC0E4B02226B6100230399E360236293
:109AA000636233680A43A560A2805B6821003000CE
:109AB0009847002806D0200004F065FD200006F03D
:109AC0001CFC034807B0F0BD0248FBE78DEB01002A
:109AD00016FCFFFF17FCFFFF70B58CB08360109B76
:109AE00001604260C36004001849180005F075FF6A
:109AF000051E14D001001C22103105A806F030FC10
:109B00006A4608AB43CB43C21B68136020680599C3
:109B1000069A079B05F00FF8280006F0EEFB0C4BA9
:109B2000186800280ED00B4A05AB05920022069259
:109B3000C03202926A4622CB22C2230003220521B0
:109B4000FFF776FF20000CB070BDC0461A0E020071
:109B50000025002095970100F0B5040085B0637AD8
:109B60009C46002B04D1200005F01CFA05B0F0BD86
:109B7000A37A266F01931023019AF35600259B18B0
:109B800001229A402900F36803920293029BAB42A0
:109B900031DDB368019A6B439B1872695B00E77A09
:109BA000D3181A785878E379012F14D15F1E3F1A21
:109BB00010003A005B004343606F8218D3189B7912
:109BC000634500DD6346627B1A4202D00123AB404D
:109BD00019430135DAE7022F05D15F1EBA1A277A39
:109BE000013F381AE6E7032FE4D1277A013FBF1A75
:109BF00002003800DEE71123C943F356606C994038
:109C000023691940039B194306F042FBA27B072AF4
:109C1000ACD8637B0C495B006373531CDBB29000D0
:109C20004158A373022A03D8080006F054FA96E7B5
:109C3000064B2000236300236363054BE462236427
:109C4000143006F0E6F891E7E0040200599B0100A9
:109C50008FEF010010B50400044B036006F0D1F84B
:109C6000200001F01BFF200010BDC046DC080200F0
:109C700010B504000E4B08330360FFF7A1F8200075
:109C8000743004F045FD2000603004F041FD2000F8
:109C9000583004F0C2FC2000503004F0BEFC20001C
:109CA000044B14306361FFF7D5FF200010BDC046A0
:109CB00000050200F0080200F8B500250400324B50
:109CC0008580083303608571143016000F0001F0A1
:109CD000CFFE20002D4BE562636125645030FFF715
:109CE0008DF820005830FFF789F820006030FFF72A
:109CF000B3F820000423F25E33682667590009B2E6
:109D0000743004F023FD3368226FE3717368012619
:109D1000237210236581A7802561D3569168591855
:109D2000994204DD3000984001330543F8E71123E0
:109D30000120D356D1685918994206DD02009A4095
:109D40002669013332432261F6E7142006F0E0FA77
:109D5000226900212A430123060002F057F9FF235C
:109D6000220063720133A381002348326664A37327
:109D700020001370A366FFF705F80123A2792000E5
:109D80001343A371F8BDC04600050200F0080200AD
:109D9000F0B5437A85B00400002B04D1200005F013
:109DA00001F905B0F0BD0122837A11009C46102311
:109DB000066F0025F35603926344994002912900EF
:109DC000F3680193019BAB422CDDB36872696B436E
:109DD00063445B00E77AD3181A785878E379012F47
:109DE00010D15F1E3F1A10003A005B004343606FC2
:109DF0008218D3189B79002B02D0039BAB401943E8
:109E00000135DFE7022F05D15F1EBA1A277A013F1D
:109E1000381AEAE7032FE8D1277A013FBF1A020078
:109E20003800E2E71123C943F356606C9940236977
:109E30001940029B194306F02BFA667AB31EDBB277
:109E4000FC2B14D8FEF74CFF0B4B050023630023BB
:109E50000A4863630A4BFF21E4622364704302F003
:109E60005DFC290041432000143005F0D2FF637AE5
:109E7000012B00D995E791E7A5EF0100B60300009B
:109E80008FEF01001FB5012381881A00684604F096
:109E90001CFC012303491A00684604F016FC05B0B7
:109EA00000BDC046FE0300001FB5030048331A780A
:109EB0000400002A0DD000221A70012381881A00A4
:109EC000684604F002FC012304491A00684604F0C5
:109ED000FCFB2000743004F030FC1FBDFF030000C9
:109EE00010B548300378002B06D00378012B03D03F
:109EF0000121024804F0C6FA10BDC046FF0300006D
:109F000010B501210400062004F0BCFA064B98426B
:109F100008D148342378002B04D02378012B01D0BA
:109F200020BFF7E710BDC04616FCFFFF73B5079CC6
:109F30000500002C1CDB060048363078002802D0D3
:109F40003078012816D106981BB2C0B200902800C4
:109F500012B2743004F001FC002C07D02B004A33FD
:109F60001C80002407234C352C803370200076BDE4
:109F7000014CFBE7014CF9E717FCFFFF12FCFFFF68
:109F8000F8B50400171E1DDD060048363378002B97
:109F900002D03378012B17D12200E3795632013BEE
:109FA000137023000025200054331D80503004F02E
:109FB00066FB23004A331F80022328004C3425808F
:109FC0003370F8BD0148FCE70148FAE717FCFFFFD2
:109FD00012FCFFFFF7B505000F00161E18DDFFF796
:109FE0007FFF2B0048331C78E4B2002C12D13900DB
:109FF00001A804F03CFB320001A92800FFF7C0FFD4
:10A0000001A804F00AFB2800FFF77AFF2000FEBD3C
:10A010000148FCE70148FAE717FCFFFF11FCFFFFCE
:10A02000FF2902D84172002070470148FCE7C04672
:10A0300017FCFFFF13B5040004A80078009020006F
:10A0400005F055FE002801D1207516BD0048FCE73B
:10A050000EFCFFFF13B5040004A800780090200058
:10A0600005F02DFE002801D1207516BD0048FCE743
:10A070000EFCFFFF7FB50D0011000F226A440400A3
:10A080001E1E117016D0089B002B13DD0123290022
:10A090000093FFF7DFFF002802D0074804B070BD2F
:10A0A0000090089B320029002000FFF7C3FF002822
:10A0B000F4D0F2E70148F1E70EFCFFFF17FCFFFFC9
:10A0C000F7B507000D1E3FD0002302260469019357
:10A0D000002C35D0AA88A3885340334204D13242A1
:10A0E00004D1AB88334226D0646AF1E7A968A0683E
:10A0F00005F066FD0028F4D02B88002B02D02288C2
:10A100009A42F1D16B88002B02D062889A42EBD13F
:10A11000EB68E268934201D0002BE5D17B68002B0D
:10A1200001D020009847A288084B1343A380019BCD
:10A1300001330193D8E7A368AA689342D4D1DBE73F
:10A14000019B2000002B00DC0148FEBD0080FFFFCA
:10A1500017FCFFFFF0B5060085B00D1E5DD001278E
:10A160000469002C26D00221AA8800230A4202D0CA
:10A17000A3885B083B40226829688A4214D1A06802
:10A18000A968002B0ED005F01BFD00280CD0EB6851
:10A19000E268934208D1A3881AB2002A06DB20485D
:10A1A00005B0F0BD8842F2D0646ADAE75B045B0C6C
:10A1B000A380F4E730692A88002807D1356101239C
:10A1C0001849684604F081FA0020E9E7010003001D
:10A1D0001C88944206D25C6A1900002C0DD0230022
:10A1E000F6E723001C88944207D15F886C88A74259
:10A1F00003D85C6A1900002CF3D1884209D10B887E
:10A200009A4204D305D148886B88984201D9696283
:10A21000D4E74B6A6B624D62D1E70348C0E7C046A2
:10A2200016FCFFFFFD03000017FCFFFF064B10B5F7
:10A230001A00040008322C33026083600830FEF7F5
:10A240000FFB200010BDC0461805020008B4024BE9
:10A250009C46083808BC60472DA2010008B4024B98
:10A260009C46083808BC604785F401000C4A00236E
:10A2700011002C32083110B54360838183738260F2
:10A28000036143618361C383016004000830FEF70A
:10A29000D9FA044B1A68002A00D11C60200010BDB6
:10A2A0001805020000250020F7B50E0001250469FD
:10A2B0000192002C36D0238832889A4201D0002B9C
:10A2C00023D1638872889A4201D0002B1DD1FEF7FA
:10A2D00081FA0123002806D0C022A3881340C03B86
:10A2E0005A425341DBB2019A934219D1A7883BB23B
:10A2F000002B15DB10223100A01806F031F84023A6
:10A300001F4204D0200005F0C6F8646AD1E7FEF7CA
:10A3100061FA0028F6D021000348FEF7B9FBF4E704
:10A320000025F2E72800FEBD97F4010008B4024BB7
:10A330009C46083808BC60471FF60100F0B587B09E
:10A3400001930EAB1B88060003930D9B0D00009339
:10A35000019B02920C9F002B3CD0002F02D1009B4E
:10A36000DB0737D5282005F0D3FF0400103004F0B8
:10A37000A2F9029B18202580638005F0C9FF050023
:10A38000009B08220593019B002103600C30049779
:10A3900005F0EFFF082204A9281D05F0E1FF0E4B90
:10A3A00002226B6100230399E360236263623368D6
:10A3B0000A43A560A2805B6821003000984700280E
:10A3C00006D0200004F0DFF8200005F096FF0348D7
:10A3D00007B0F0BD0248FBE759F6010016FCFFFF8D
:10A3E00017FCFFFFF0B50400160000258380164A15
:10A3F000164B85710260218146810573186889B00A
:10A400008C46A8421DD0124A05950492C0220292A1
:10A410006A4604AB82CB82C223002A006146FFF762
:10A420008DFFC022094B0A49186802926A460691BC
:10A4300006AB079582CB82C223002A003100FFF7CA
:10A440007DFF200009B0F0BD5C0502000025002062
:10A4500083F7010030B5002403730123034D847199
:10A460000560818082734373846030BD20040200E4
:10A4700070B583790400DB0702D5806805F03DFFE5
:10A48000A3799B0702D5A06805F037FFA3795B0786
:10A4900007D5A0230021144ADB00D150A06805F0A5
:10A4A0002CFFA3791B0708D5A568002D05D028002F
:10A4B00005F0F7FB280005F020FFA379DB0605D5A2
:10A4C000A068002802D00368DB6898476023A2795F
:10A4D0001A4205D0A068002802D003685B6898473C
:10A4E0000023A360A37170BD00700040F7B5022780
:10A4F000037B04000D003B4226D0012926D8867933
:10A500003E40009614D1FFF7B3FF182005F000FF7E
:10A510000E230600E35618220099019305F029FF47
:10A520000199300005F06AFDA379A6603B43A37151
:10A53000A3685A68002D04D00025DB681A60280043
:10A54000FEBD1B691A60FAE7014DF8E7014DF6E719
:10A5500016FCFFFF17FCFFFFF7B50126037B040085
:10A5600033422AD0612385791D4017D1FFF780FF40
:10A57000182005F0CDFE0E230700E35618220093A5
:10A58000637B2900019305F0F4FE019A00993800DD
:10A5900005F022FDA379A7603343A3716023A2795C
:10A5A000A0681A4202D005F0C3FBFEBD43694068B3
:10A5B0001B681840431E9841F7E70148F5E7C0467D
:10A5C00016FCFFFF70B50425037B04002B4214D05A
:10A5D00083792B420DD1FFF74BFF082005F098FE41
:10A5E0000E210600615601F095FAA379A6601D437D
:10A5F000A571A06801F0B4FA70BD0148FCE7C0463F
:10A6000016FCFFFF10B50124837941731C4004D070
:10A61000806805F072FD002010BD6022134203D057
:10A62000806805F08CFBF6E70048F5E716FCFFFFB5
:10A6300070B5040000250C4B0E0008338580857131
:10A6400003602100183005F04BF920002100203074
:10A6500005F069F9054BA680E5802572E560256166
:10A66000656120001C6070BD6C050200142500208F
:10A670008379DB0702D5C160002070470048FCE702
:10A6800016FCFFFF8379DB0701D5C06870470148DE
:10A69000FCE7C04616FCFFFF70B545690400002DBD
:10A6A00022D0037A032B21D8FFF7ECFFA8622C20DD
:10A6B00005F02EFE2C220021050005F05AFE002296
:10A6C00063695A622369934208D163692361002058
:10A6D000237A65610133237270BD13005A6A002A20
:10A6E000FBD162695A62F2E70148F5E70148F3E7F6
:10A6F00017FCFFFF13FCFFFF144B70B55A68144C96
:10A70000002A03D000225A600132A2601A69002A8E
:10A7100017D0002119618023DB000E4DE358286813
:10A72000012B0FD1A923DB00E1584942FFF7A0FF1D
:10A730002868FFF7B1FF2B685A69074BE2500123E5
:10A74000A36070BDFFF794FFF9E7C046FC1000401E
:10A7500000100040142500200405000003000069DB
:10A76000002809D00221054AD167426A1A611A7A83
:10A77000013A1A72024B19607047C04604E100E0CA
:10A7800000E100E010B5002903DB024B196005F081
:10A790001AFB10BD1825002070B504001E0004AB84
:10A7A0001D7801F02FF920000E4B40302360FEF79A
:10A7B00025FB230001364C33013522001E701D732A
:10A7C0000023E1214E32A36463651380538093819B
:10A7D000D381013B200063644902FFF7D3FF2000CF
:10A7E00070BDC04638040200F7B580277F053D697B
:10A7F0007C690822113C6C4306002100684605F084
:10A80000AFFD104B009A9A4219D000930023019398
:10A81000796930001339694305F09AF8019A009973
:10A82000300005F0ADF82100300005F091F87969AD
:10A83000AB08133969432200300005F093F8019802
:10A84000FEBDC046FECA0000F0B50D00A9B00D92D5
:10A8500000213022060010A80B9305F08AFD280085
:10A8600005F0C7FD431C0C93102B00D9B5E00B9BE2
:10A87000202B00D9B1E02900300005F0AEF8071E0A
:10A8800050D129000C9A10A805F06AFD0D990B9A79
:10A8900014A805F065FD80235B051A695F690C92B9
:10A8A000113F7A4330005D690B92FFF79DFF302224
:10A8B000002104001CA805F05CFD290000270C9B6A
:10A8C00013395943300005F043F80D9730257D4387
:10A8D0000B9B0833ED18A74242DA290030221CA84E
:10A8E00005F03EFD10A91CA805F079FD002827D130
:10A8F0003C49300022000E910F9405F041F86A4661
:10A90000099513AB23CB23C223CB23C223CB23C272
:10A910003000129B1099119A05F040F801230D9315
:10A920000137D3E710300B9A0D9905F00AFD0400AA
:10A93000380005F0E2FC002CA3D1200029B0F0BDC6
:10A940006A4609951FAB23CB23C223CB23C223CB5B
:10A9500023C230001C991D9A1E9B05F01FF8DFE7EB
:10A96000E5433023ED1725405D430B9B08355D190A
:10A970000D9B002B1DD10C9B3021981E01F044FE35
:10A98000A0422CD017490134300022000E910F94C0
:10A9900004F0F6FF6A46099513AB23CB23C223CB01
:10A9A00023C223CB23C230001099119A129B04F0CA
:10A9B000F5FF0B99300004F0CBFF80235B0559694C
:10A9C0000C230C9A133963434A43023311003000BD
:10A9D0000B9A04F0C7FF0024AFE7034CADE7034C2C
:10A9E000ABE7C046FECA000017FCFFFF13FCFFFFE9
:10A9F00070B50400A280FA22002308000C499200DE
:10AA000008312160A3716061E260A360638209493B
:10AA100004F0E3FF051E09D00100200010310222DE
:10AA2000123005F09DFC280005F067FC200070BD89
:10AA300084050200570E020030B50225837987B0E5
:10AA400004002B4204D1FDF7FDFEA3791D43A5713F
:10AA5000200005F00CF800281CD06B46DD1C2800F7
:10AA600004F0FCFF2B78002B17D001A804F0F4FFB2
:10AA70000321019AD3170B409B189B102382FEF7EA
:10AA800069F9E368A18818180123A0601A0002A8D8
:10AA900003F01BFE002007B030BD0122064B1A60F8
:10AAA000064A51680029FCD000215160044A12680E
:10AAB000019201225A60DBE700C00040FCC0004068
:10AAC00008C50040022802D10122014B1A707047CC
:10AAD000F325002070B5064C05002378002B04D127
:10AAE000044800F0ABFE01232370280070BDC0466F
:10AAF000F4250020C5AA010070B50C0003F060FC2D
:10AB0000002810D00023144DA40A2B70200004F05C
:10AB1000C2FF002803D00A2005F0E8FAF6E72B78F8
:10AB2000002BFCD070BD02210C4B0D4A99508021A6
:10AB3000C90008005D58002DFCD0A121C9005C505F
:10AB400019580029FCD0002199508021C9005A5879
:10AB5000002AFCD0E6E7C046F325002000E00140D3
:10AB600004050000F8B50C0015001E0003F028FCD9
:10AB7000002811D00023174F3B703200290020001D
:10AB800004F087FF002803D00A2005F0AFFAF4E7AD
:10AB90003B78002BFCD0F8BD01210F480F4B8446B9
:10ABA00019508021C9005A58002AFCD08027002261
:10ABB000FF00964207DD910068586050D95900297E
:10ABC000FCD00132F5E7002261465A50DA59002ADA
:10ABD000FCD0E0E7F32500200405000000E0014080
:10ABE00008B4024B9C46443808BC60479BFA0100FD
:10ABF000FA21F8B50389C90004005943324804F02A
:10AC0000F5FFFA21890001F0FFFC304F2081A17A85
:10AC1000380004F0EBFF23002600250022894C3386
:10AC2000A072A0361A808C35317800232A22286839
:10AC300004F07CFB002801D02548F8BD31781F23A3
:10AC40005B22286804F072FB0028F5D131782023BC
:10AC50005C22286804F06AFB0028EDD131780123DA
:10AC60002C22286804F062FB0028E5D1317801230A
:10AC70002D22286804F05AFB0028DDD13178012309
:10AC80002E22286804F052FB0028D5D1A17A380082
:10AC900004F0A7FF3178C3B20E22286804F046FB07
:10ACA0000028C9D1FA21238989005943064804F0B4
:10ACB00098FF01230343DBB231782A22286804F08D
:10ACC00035FB0028B9D0B7E7A40502009C050200B7
:10ACD0000EFCFFFF08B4024B9C46443808BC60479A
:10ACE000F1AB0100074B10B51A00040008323C33E9
:10ACF00002604364443003F0DAFE200003F01EFEDD
:10AD0000200010BD0406020008B4024B9C464438E3
:10AD100008BC6047E5AC010008B4024B9C464438CF
:10AD200008BC6047A5FA0100F0B5042583798BB013
:10AD300004002B4204D1FDF785FDA3791D43A571C5
:10AD400020009030FFF708FC0026B0420FD123000E
:10AD5000A033197820000C2307AD00938C302B0012
:10AD600001220068FFF786F9061E03D02C4E300042
:10AD70000BB0F0BD0A2304AA9B182A785A706A788F
:10AD80001A700022985EAA785A70EA781A70002227
:10AD9000995E03912A795A706A791A7000229F5E2F
:10ADA000AA795A70EA791A7000215A5E04922A7AB6
:10ADB0005A706A7A1A7000215A5E0592AA7A5A70FD
:10ADC000EA7A1F251A7000229B5EA27A03999C469C
:10ADD000514349425043CB172B407A435B185B11D8
:10ADE000A361C3172B401818D3171D406423AD1857
:10ADF000059A5B425343A36764236146049A40115A
:10AE00005A434B43E2676D11221DE0612562200029
:10AE1000D36703F005FE2000443003F04FFEA6E7A1
:10AE20000EFCFFFF08B4024B9C46443808BC604748
:10AE300029AD0100F7B51E00040008AB1B88150002
:10AE4000019309AB00911A8831000AAB1F88FEF705
:10AE50007DF920003A0031004430FEF7CBFB134B64
:10AE600020001A003C336364230008322260009AF9
:10AE70008C331A60AB8890308380AB79019A8371F0
:10AE80000B4B03210360AB6883602B7B03736B7BED
:10AE90004373AB7B83732300A0331A80FFF7B2FBAD
:10AEA0002000FFF7A5FE2000FEBDC04604060200FC
:10AEB00020040200F8B5FA260189B60004007143A7
:10AEC000264804F093FE310001F09EFB244F2081C0
:10AED000A17A380004F08AFE2500A072583529783E
:10AEE00000232A22606C04F021FA002801D01D48BA
:10AEF000F8BD297810232B22606C04F017FA002883
:10AF0000F5D1297801232D22606C04F00FFA002876
:10AF1000EDD1297801232E22606C04F007FA002875
:10AF2000E5D1A17A380004F05CFE2978C3B20E2284
:10AF3000606C04F0FBF90028D9D1218907487143DE
:10AF400004F04FFE01230343DBB229782A22606C10
:10AF500004F0ECF90028CBD0C9E7C0466C0602002B
:10AF6000640602000EFCFFFF10B50400034B08331B
:10AF7000036003F0E3FC200010BDC046CC060200D5
:10AF80007FB50425837904002B4204D1FDF75AFCD8
:10AF9000A3791D43A57120004830FFF7DDFA002595
:10AFA000A8420DD1230058331978062302AE00932E
:10AFB00001223300606CFFF75DF8051E03D00D4DD4
:10AFC000280004B070BD022300210420F356A27AA9
:10AFD000DB00715630565343C000C9005143424311
:10AFE0005B42A3612368E16122629B6A200098476B
:10AFF000E6E7C0460EFCFFFFF8B50400150006AA00
:10B00000168807AA0F0012881900FEF79FF80F4B49
:10B010006764083323602300AA8848339A80AA799A
:10B0200020009A710A4AA264AA6822652A7B1A73D0
:10B030006A7B5A73AA7B9A730023A3712300583347
:10B040001E80FFF737FF2000F8BDC046CC06020087
:10B050002004020010B50400034B0833036003F022
:10B0600026FD200010BDC04660070200F0B50700B5
:10B070005C3787B00400397800231022806C04F01C
:10B0800055F90326002802D01F4807B0F0BD0F2550
:10B0900002ABED180123397808220093A06C2B0035
:10B0A000FEF7E8FF184B9842EED02B78334203D0DE
:10B0B0006420FDF761FCEAE7FA262189134DB6000A
:10B0C0007143280004F092FD310001F09DFA2081C7
:10B0D0003978A0231122A06C04F028F90028D3D1DC
:10B0E000A36C21890393714328003F7804F079FD14
:10B0F00001231843C3B210223900039804F016F953
:10B100000028C2D0C0E7C0460EFCFFFF00070200C7
:10B1100070B50825837986B004002B4204D1FDF771
:10B1200091FBA3791D43A57120004C30FFF714FA61
:10B13000061E0DD023005C331978062304AD00935E
:10B1400001222B00A06CFEF795FF061E03D0134EC4
:10B15000300006B070BD0E232A786B445A706A78AE
:10B1600020001A700022995E64224A43A263AA78E2
:10B170005A70EA781A700022995E64225242514352
:10B180006163297959706979197000215B5E5A43AE
:10B190002368E2631B6A9847DAE7C0460EFCFFFFAC
:10B1A000F8B50400150006AA168807AA0F00128831
:10B1B0001900FEF71FFA0D4BA76408332360230024
:10B1C000AA884C339A80AA7920009A71084AE264CE
:10B1D000AA6862652A7B1A736A7B5A73AA7B1E82ED
:10B1E0009A73FFF743FF2000F8BDC04660070200D6
:10B1F00020040200F7B5FA250189204FAD000400B4
:10B200006943380004F0F2FC290001F0FDF9A17A4D
:10B2100020811B4804F0EAFC2600636CA0720093B6
:10B2200021895836337869433800019304F0D9FCFA
:10B2300007230343DBB220220199009804F076F83B
:10B24000002801D00F48FEBD317810232222606C07
:10B2500004F06CF80028F5D1A17A0948656C3778BC
:10B2600004F0BFFC80235B420343DBB2232239009E
:10B27000280004F05BF80028E5D0E3E7940702001B
:10B280008C0702000EFCFFFF10B50400034B0833CF
:10B29000036003F053FB200010BDC0460408020009
:10B2A000F0B50425837985B004002B4204D1FDF765
:10B2B000C9FAA3791D43A57120004830FFF74CF966
:10B2C000061E0DD0230058331978062302AD0093D3
:10B2D000A8222B00606CFEF7CDFE061E03D0144E94
:10B2E000300005B0F0BD1F200023EA5ED3170340F5
:10B2F0009B180222A95E5B11CA1702405218042152
:10B300006F5E5211F9170140C91949112B806A80EB
:10B31000A980A07A4343424341435B42E3612368EF
:10B320005242A26121629B6A20009847D8E7C0463A
:10B330000EFCFFFFF8B50400150006AA168807AA40
:10B340000F0012881900FDF701FF0F4B67640833E7
:10B3500023602300AA8848339A80AA7920009A7132
:10B360000A4AA264AA6822652A7B1A736A7B5A7306
:10B37000AA7B9A730023A371230058331E80FFF722
:10B3800039FF2000F8BDC046040802002004020076
:10B39000F7B5FA2504000189134EAD00694330006A
:10B3A00004F024FC290001F02FF92700A36C208170
:10B3B00000935C373B7881B269433000019304F01D
:10B3C00010FC6022C3B20199009803F0AFFF00287F
:10B3D00001D00648FEBD397801236222A06C03F03B
:10B3E000A5FF0028F6D0F4E7380802000EFCFFFFA6
:10B3F00010B50400034B0833036003F058FB200032
:10B4000010BDC046600802007FB50825837904009E
:10B410002B4204D1FDF716FAA3791D43A571200034
:10B420004C30FFF799F8051E0DD023005C331978D6
:10B43000062302AE0093E8223300A06CFEF71AFE4A
:10B44000051E03D00B4D280004B070BD0223F25E30
:10B4500096235B425A4362630021725E200053438D
:10B46000A3630423F25E96235343E36323681B6ABA
:10B470009847E8E70EFCFFFFF8B50400150006AAA0
:10B48000168807AA0F0012881900FEF7B3F80D4BB3
:10B49000A764083323602300AA884C339A80AA79D2
:10B4A00020009A71084AE264AA6862652A7B1A73CE
:10B4B0006A7B5A73AA7B1E829A73FFF769FF20008A
:10B4C000F8BDC046600802002004020010B5040068
:10B4D000054B083303601C3003F09FF82000183040
:10B4E00003F09BF8200010BD8C080200F0B58379B2
:10B4F00091B004005B071BD5FDF72CFC00232269EB
:10B50000801A9941994203D1F423FF3398420FD90D
:10B51000A068002808D0364B1D8804F0C8FB0368DB
:10B5200015221B6A290098470422A3799343A3712B
:10B53000A3799B0759D52F4D2B68DB68002B50D082
:10B540002D4B1B78032B4CD8294B2C491B8804A866
:10B550000193FDF743FC2B6804A9DE6808A803F0FB
:10B5600086F808A9300004F06BFA070008A803F079
:10B5700054F802AB9E1D08233200338006A9073B16
:10B58000019804F0FDFA002F08D039002022103174
:10B5900008A804F0E5FE380004F0AFFE164B328830
:10B5A0001B7806A9DE0008AB9E19300004F0C9FE26
:10B5B000002813D0082206A9300004F0D1FE2B6821
:10B5C00004A9DD6805A803F052F8202308AA05A9FC
:10B5D000280004F03BFA05A803F01FF804A803F0C4
:10B5E0001CF80222A3799343A37111B0F0BDC046A9
:10B5F000EC2500201C250020742000205F0E020096
:10B6000070B5002504000B4B8580083385710360FD
:10B61000C1601830FDF7F2FB20001C30FDF7EEFB97
:10B620000123621CD377044AA56065612000146081
:10B63000A37170BD8C0802001C250020002815D0C5
:10B64000006041608260C360046145618661C761DA
:10B65000444604624C464462544684625C46C4627A
:10B66000644604636E46466374468463002A06D0CB
:10B67000C46B043C043A25681560B442F9D18C6B64
:10B68000A6464E6BB546002B06D0CC6B043C043B63
:10B690001D682560B442F9D10C6BA446CC6AA34660
:10B6A0008C6AA2464C6AA1460C6AA046CF698E6994
:10B6B0004D690C69CB688A68086849687047006002
:10B6C00041608260C360046145618661C761444630
:10B6D00004624C464462544684625C46C4626446DA
:10B6E00004636E46466374468463C46B043C043949
:10B6F00025680D60B442F9D1C76986694569046956
:10B700007047006041608260C3600461456186618A
:10B71000C761444604624C464462544684625C46B7
:10B72000C462644604636C4644637446846304697B
:10B730007047846BA646446BA546046BA446C46A56
:10B74000A346846AA246446AA146046AA046C76921
:10B75000866945690469C368826800684168704702
:10B7600010B5041E0CD004F044FE431EE3189C42A6
:10B7700008D222781978013B21705A700134F6E71B
:10B78000014810BD0020FCE717FCFFFFF0B585B0B5
:10B7900002900C1E2AD00023C217161A564001939D
:10B7A000019B30005D1C63190A215F1E039301F0A9
:10B7B0009BF849423031397030000A2100F0AEFF69
:10B7C00047420600002F0FD1029B002B04DA2D23E5
:10B7D000019D039A02351370002320006355FFF783
:10B7E000BFFF380005B0F0BD0195D9E7004FF8E77D
:10B7F00017FCFFFF0268084B406810B5C018C00076
:10B80000101803009A4205D81C688C4202D3180015
:10B81000083BF7E710BDC046FFFFFF1F436810B5A8
:10B820000400002B02D1044804F0A8FB6068036800
:10B830001B69984710BDC0466B0E0200014B186093
:10B840007047C0462025002080B2002807D1BFF3F2
:10B850004F8F034B034ADA60BFF34F8FFEE7704709
:10B8600000ED00E00400FA05F0B5254B85B01B782B
:10B87000DBB20093002B18D0224E234F33685A427C
:10B880005A41D2B201923A68002A14D1009C002B8E
:10B890000BD021E003983B6898472C0019E0280062
:10B8A0003368984729E0002C05D005B0F0BD002C86
:10B8B000FBD1009C019403A804F0FDF9009C050055
:10B8C000052806D00028E5D000221100FFF7BCFFB4
:10B8D0000024019B002BE6D10C4B03A91B880B8095
:10B8E0000B4B1D68280004F0E8F90528DFD000287C
:10B8F000D5D000221100FFF7A7FF002CECD1D9E72B
:10B90000F5250020242500202C250020EE250020F0
:10B9100030250020074B10B51B68002B07D0984737
:10B92000002803D000221100FFF78EFF10BDFFF7A3
:10B930009BFFFBE7282500200120054B10B51A7856
:10B9400050401870034B1B68002B00D0984710BD67
:10B95000F62500203425002070B504000D001600E7
:10B960000021102204F005FD054B3200236129005F
:10B97000200000F0A3FA034B20001C6070BDC046FD
:10B98000A08601003825002070B5054D04002B6805
:10B99000834203D0016900F04BFA2C6070BDC046B1
:10B9A0003825002010B50400034B083303601C3019
:10B9B00000F0B6F9200010BDA408020070B5050023
:10B9C00004000E4B0E00083308C528001822002181
:10B9D00004F0CFFC002320003100E36123626363A5
:10B9E000A363E364064A23001C3000F069F92800D1
:10B9F000310004F0ECFA200070BDC046A40802003B
:10BA000067FD010010B5040000F006F8014B2000AE
:10BA1000236010BDBC0802000C4B70B5036000230E
:10BA200043608360C36003624362836396230400C0
:10BA30009B01051DC363280000F07CFB2800220049
:10BA4000034900F009FC200070BDC046CC0802008C
:10BA50008FFD010010B50400044B036004F0D1F920
:10BA6000200000F01BF8200010BDC046DC080200DA
:10BA7000084B10B508330360002343608360C36044
:10BA8000040000F017F80449206104F0BCFA20001B
:10BA900010BDC046FC080200C7FE010010B504003E
:10BAA000034B0833036004F01BFA200010BDC046AE
:10BAB000FC080200004870471009020010B5024857
:10BAC00004F0AAFA10BDC046100902000848026836
:10BAD00003210A4302600749074A084B9B1A03DD0A
:10BAE000043BC858D050FBDC054880470548004758
:10BAF00024050040CC0E02000020002098200020E9
:10BB000051C5010009810100FEE7FEE7FEE7FEE7FF
:10BB1000FEE7FEE770B50E000E4C05002100300078
:10BB200000F006FD28600023E3565A1C01D10023D3
:10BB300002E0B3420CD1A368A02201200649D20042
:10BB40002B7188506A221B021343044A8B5070BD2C
:10BB50000C34E8E72C0902000070004004050000E6
:10BB60000B4B0C4910B55A580B4C22405A500279D5
:10BB70005C58120222435A5080200122C0001A60F1
:10BB800019581142FCD1A122D200985880B210BDA0
:10BB90000070004004050000FF00FFFF01704B1C17
:10BBA0000AD001238B404360044BC360044B036104
:10BBB000044B4361044B83607047C0460805005046
:10BBC0000C0500501005005014050050F7B5A223D5
:10BBD000A022DB00D205D358BE220193314B520084
:10BBE000995800293FD0C1218900595800293ADAD3
:10BBF0000024E025C0269C50ED00B6022A4BA70089
:10BC0000F85800282CD0294BE35C002B17D0019B5F
:10BC10000121E3400B4227D02300A022C133FF3390
:10BC20009B00D2059B589B039B0F032B1CD0204BE2
:10BC30001B68E3400B4217D01E4B1B689847A0239C
:10BC4000DB05FF187A5932420AD07A591A490A405C
:10BC50007A51019AE240D3071FD57A5932437A517B
:10BC600001341F2CCAD1F7BD019B0122E3401342CE
:10BC7000E5D12300A021C133FF339B00C9055B58E8
:10BC80009B039B0F032BDAD10C4B1B68E340134241
:10BC9000D5D0084B02211B68D0E780227959920247
:10BCA0000A43DCE70060004044250020F72500201F
:10BCB000C8250020C0250020FFFFFCFFC425002070
:10BCC00030B5040008004D1C1CD00F4821600260F4
:10BCD000BE2200200D4C5200A0500D4A8D00AB50EA
:10BCE00001220C4B5A54C122802392001B06A35000
:10BCF000094B0A4C99580C40C02109042143995022
:10BD000040221A6030BDC046C025002000600040BF
:10BD100044250020F725002000E100E0FFFF00FFA0
:10BD200000210368014A9B00995070474425002078
:10BD300070B5A024E0250068E4058300ED001B1920
:10BD40005C591F4E34405C511E4D01242E68002A60
:10BD500026D0A14203D181400E432E6006E0022985
:10BD600004D18440184A11680C4314602A680121E8
:10BD7000C2400A4204D1144A1268C2400A420ED09C
:10BD8000A021A222C905D2008958F132C140FF3258
:10BD90009858C90711D5C02189020143995070BD37
:10BDA000012902D181408E43D7E70229DED18440A8
:10BDB00005490A68A2430A60D8E78021ECE7C0463B
:10BDC000FFFFFCFFC8250020C42500200368074AA8
:10BDD0009950074AFC33196A002902D000201862E2
:10BDE0007047013A002AF6D10120F9E71C0500004E
:10BDF000A186010010B50368002A03D0802202202A
:10BE00009200985001221C001A62084AFC34E06833
:10BE1000002806D00020A322E060D2009B580B70BF
:10BE200010BD013A002AF2D10120F9E7A1860100F4
:10BE300010B50B4C02680B4BA14205DC0A4981602E
:10BE4000CC214904D15010BD084CA14204DC084962
:10BE500081608021C904F5E706498160CD21F9E7B9
:10BE60008FD0030024050000A08601007F1A060081
:10BE700090D00300801A060070B504001000A025C1
:10BE8000C026C130FF30F600ED05800046510800A5
:10BE9000C130FF3080004651A1252068ED0042519D
:10BEA000054A815019002000FFF7C2FFA023052199
:10BEB0002268DB00D15070BD0C050000F8B50E0003
:10BEC0001500040000F02EFA264AF1B21378DBB216
:10BED000012B1DD1507888421AD19778E8B2874259
:10BEE00016D16373204B19000022FC312360657169
:10BEF00026718A62A021C9005A501C4920005A505C
:10BF000001325A502A003100194BFFF7B5FFF8BD36
:10BF1000184BE8B21F78012F09D15F788F4206D104
:10BF20009F78874203D102236373134BDBE71778B3
:10BF3000002F04D10123137051709070D1E71A784B
:10BF4000002A04D101321A7059709870EBE70B483F
:10BF500004F014F80023FC222360657126719362BB
:10BF6000FFDEC0461626002000300040FC0F000017
:10BF7000A08601001A260020004000408E0E02001C
:10BF8000036800221900FC3110B58A62A021C900A3
:10BF90005A5006495A5001325A50052204218256FD
:10BFA00041568368FFF768FF10BDC046FC0F0000D4
:10BFB000036800211A00FC3210B59160013159610B
:10BFC000074B9168002905D000240473FFF7D8FFC0
:10BFD000200010BD013B002BF3D10120F9E7C04642
:10BFE000A1860100036810B51900FC318A6A00209F
:10BFF000012A08D1044C1C5988625A610238A407EE
:10C0000001D40120404210BDC40400000261064A70
:10C0100010B54260054A01738260054A190002604A
:10C0200004F013F910BDC04604050050100500507F
:10C03000000700500023134A30B5D35683421DD069
:10C040000123D35683421BD00223D356834214D1FB
:10C050000223190045310C480C4CFF3189000C506B
:10C0600001210D005C00601C8540A140A120084C0E
:10C070002943C0002150FF21D15430BD0023E8E7FF
:10C080000123E6E77520002000600040031F020046
:10C0900000F00140A820012110B5124A124B14886B
:10C0A000C00059601C50548810481C509088A92228
:10C0B000D2009850802208209200985080200932A7
:10C0C000FF32000398500A4A1078A222D2009850FA
:10C0D000084A1088084A985000221960FC331A65F3
:10C0E00010BDC0466E20002000A0004044050000A6
:10C0F000782000206C2000204C050000012310B5A2
:10C100000A4ADC0014598C4207DD013BDB00D318DE
:10C110005A680168064BCA5010BD0133112BF0D18B
:10C1200080210268024B4905D150F5E780090200E1
:10C1300024050000F8B50F0016000122244BBA4078
:10C140000360A023234CDB05195905000A431A514B
:10C150008022195912060A430121B1401A511A5975
:10C160008A4396211A511A598901520052081A51CC
:10C17000FFF7C4FF002204202B6817495A506C397E
:10C1800058500121996019601900FC31CA601349A7
:10C190005A506A6014391F325A5011495F500918B9
:10C1A0005A501E517B1C03D00321380004F02BF899
:10C1B000731C03D00321300004F025F80122094B41
:10C1C00029001A600848073204F0CAF8F8BDC046D2
:10C1D00000200040140500006C0500001C05000054
:10C1E0000C050000D425002020260020962310B541
:10C1F000DB00994202DDFFF781FF10BD9E2102683E
:10C20000014BC902D150F8E724050000C1230E4AB2
:10C210009B00D15810B5090603D50C49096A0029BD
:10C2200008D1D3585B0704D5084B0021DB68002BED
:10C2300001D110BD0121064B18680028F9D0054B2B
:10C240001B689847F5E7C04600200040FC200040EE
:10C25000D0250020CC250020034B196043680349FA
:10C260009B005A507047C046CC250020D0250020A6
:10C27000A023F0B5284FDB00FA5885B001920022C8
:10C28000A024FA50E023254AE405DB00E658E250FA
:10C290007833E15801250291E250A1238022DB008E
:10C2A000D205E2500420E55004F002F8A222D200A8
:10C2B000A35803979B0F2B4228D0A35813242B423B
:10C2C00025D00120A023E0220299DB05D2009E5058
:10C2D00078329950A023039A0199DB00D15005B020
:10C2E000F0BD0F4B0420EF5003F0E2FFA123DB0071
:10C2F000EF50042003F0DCFFA223DB00EB585B00CF
:10C30000DFD4013C002CECD12000DBE71324A02576
:10C310000127ED05F5E7C046004000400D0600008E
:10C320000C050000A023E021134ADB05C90010B56D
:10C330005A5078315A50114B00221900FC31CA6012
:10C340000A62A1211E20C9005A500D4A0D4C985076
:10C35000CC200D4A40049850A2200C4AC000145032
:10C360000B480C4C145001205050A0220521D20043
:10C370009950FFF77DFF10BD0C0600000040004003
:10C380000C050000384100402405000000F0014089
:10C39000140500001C400040012310B50D4C0E494F
:10C3A000A36480239B00CB670C490D4A086D0028CD
:10C3B00004D00020086511680131116009490B6043
:10C3C000A923DB001068E358010C9BB2000418435A
:10C3D00010BDC0460090004004E100E0FC90004029
:10C3E000D825002000E100E0F8B50F4C636C002B6D
:10C3F0000FD000270D4E67643378BB4209D00C4B39
:10C400001D68FFF7C9FF2D1ABD4202DC3770FFF728
:10C4100055FB236D002B05D0064A136801331360CA
:10C4200000232365F8BDC046FC9000401E26002076
:10C43000DC250020D825002070B51B4D2878002869
:10C4400031D10121194B1A4A596050608020C00532
:10C45000016051680029FCD000221649A2205A50E0
:10C4600004240121C000D9601C5008381A50124819
:10C47000C2261A50C12280209200000398508020CA
:10C48000400298500D4AB60090590D4C0440C0200F
:10C49000000220439051C02480206400800010518D
:10C4A00010601960297070BD1F26002000900040A8
:10C4B000FC000040040500004C05000000E100E025
:10C4C000FF00FFFF044B10B51B78002B01D1FFF7D5
:10C4D000B3FFFFF761FF10BD1F260020104B70B5A2
:10C4E0001B780400002B01D1FFF7A6FF0D4D0E4E67
:10C4F0002B78002B02D03368A34210D0FFF74CFFFB
:10C50000201A0A2803DCFFF747FF0A300400012342
:10C510002B70A823054A3460DB00A4B2D45070BD50
:10C520001F2600201E260020DC2500200090004051
:10C5300010B50400431C07D003F0D3FE0400431CD5
:10C5400002D1024803F01AFD200010BD9F0E020028
:10C55000224910B50B68DBB2012B0FD1204B1B68B1
:10C560001B070BD11F4BE0241A68F0231000184062
:10C57000224228D11C4A12681A4227D00B68DBB22B
:10C58000012B12D1164A126812070ED1F021154A5A
:10C5900012680A40402A08D1134A12680A4204D19C
:10C5A0008021C122C905D2008B508022A323002103
:10C5B000D205DB00D1500D4B9960013191609A6832
:10C5C000002AFCD010BD3028D4D0D7E7084B094A48
:10C5D0001A608022084B12021A60CFE7E00F00F0C9
:10C5E000E40F00F0E80F00F0EC0F00F0FC0000405A
:10C5F00004050040DFFF07C0186C0040014B1868BD
:10C600007047C046E0250020002243088B4274D3C7
:10C6100003098B425FD3030A8B4244D3030B8B4243
:10C6200028D3030C8B420DD3FF22090212BA030C4C
:10C630008B4202D31212090265D0030B8B4219D32D
:10C6400000E0090AC30B8B4201D3CB03C01A52414D
:10C65000830B8B4201D38B03C01A5241430B8B4295
:10C6600001D34B03C01A5241030B8B4201D30B037E
:10C67000C01A5241C30A8B4201D3CB02C01A5241A5
:10C68000830A8B4201D38B02C01A5241430A8B4268
:10C6900001D34B02C01A5241030A8B4201D30B0251
:10C6A000C01A5241CDD2C3098B4201D3CB01C01A6B
:10C6B000524183098B4201D38B01C01A5241430975
:10C6C0008B4201D34B01C01A524103098B4201D363
:10C6D0000B01C01A5241C3088B4201D3CB00C01AD0
:10C6E000524183088B4201D38B00C01A5241430848
:10C6F0008B4201D34B00C01A5241411A00D201466D
:10C70000524110467047FFE701B5002000F0F0F8F5
:10C7100002BDC0460029F7D076E7704703460B43B9
:10C720007FD4002243088B4274D303098B425FD32A
:10C73000030A8B4244D3030B8B4228D3030C8B4256
:10C740000DD3FF22090212BA030C8B4202D312123C
:10C75000090265D0030B8B4219D300E0090AC30B11
:10C760008B4201D3CB03C01A5241830B8B4201D3BE
:10C770008B03C01A5241430B8B4201D34B03C01AA7
:10C780005241030B8B4201D30B03C01A5241C30A1F
:10C790008B4201D3CB02C01A5241830A8B4201D390
:10C7A0008B02C01A5241430A8B4201D34B02C01A7A
:10C7B0005241030A8B4201D30B02C01A5241CDD21F
:10C7C000C3098B4201D3CB01C01A524183098B426A
:10C7D00001D38B01C01A524143098B4201D34B0153
:10C7E000C01A524103098B4201D30B01C01A5241B6
:10C7F000C3088B4201D3CB00C01A524183088B423D
:10C8000001D38B00C01A524143088B4201D34B0025
:10C81000C01A5241411A00D2014652411046704797
:10C820005DE0CA0F00D04942031000D3404253409C
:10C8300000229C4603098B422DD3030A8B4212D35C
:10C84000FC22890112BA030A8B420CD3890192118E
:10C850008B4208D3890192118B4204D389013AD0CB
:10C86000921100E08909C3098B4201D3CB01C01AA0
:10C87000524183098B4201D38B01C01A52414309B3
:10C880008B4201D34B01C01A524103098B4201D3A1
:10C890000B01C01A5241C3088B4201D3CB00C01A0E
:10C8A000524183088B4201D38B00C01A5241D9D226
:10C8B00043088B4201D34B00C01A5241411A00D2A7
:10C8C0000146634652415B10104601D34042002BA3
:10C8D00000D54942704763465B1000D3404201B522
:10C8E000002000F005F802BD0029F8D016E77047D7
:10C8F0007047C0468446081C6146FFE71FB500F03C
:10C9000037FC002801D40021C8421FBD10B500F03B
:10C91000B9FB4042013010BD10B500F029FC0028E1
:10C9200001DB002010BD012010BDC04610B500F095
:10C930001FFC002801DD002010BD012010BDC046F5
:10C9400010B500F0C7FB002801DC002010BD01205D
:10C9500010BDC04610B500F0BDFB002801DA002074
:10C9600010BD012010BDC046002B11D1002A0FD1EF
:10C97000002900D1002802D00021C943081C07B4B7
:10C98000024802A14018029003BDC04665FFFFFFA8
:10C9900003B4684601B5029800F006F8019B9E4674
:10C9A00002B00CBC7047C046F0B54F464646D6466E
:10C9B000C0B5040082B00D00914698468B422FD836
:10C9C0002CD04146484601F079FB290006002000A2
:10C9D00001F074FB331A9C46203B9A4600D576E062
:10C9E0004B46524693401F004B46624693401E0002
:10C9F000AF4228D825D05346A41BBD41002B00DAF6
:10CA00007BE00022002300920193012352469340D1
:10CA10000193012362469340009318E08242D0D9EB
:10CA200000220023009201930A9B002B01D01C607E
:10CA30005D600098019902B01CBC90469946A246E0
:10CA4000F0BDA342D7D90022002300920193634690
:10CA5000002BE9D0FB079846414672080A437B0841
:10CA600066460EE0AB4201D1A2420CD8A41A9D4109
:10CA7000012024196D410021013E24184D41002E52
:10CA800006D0AB42EED9013E24196D41002EF8D1FB
:10CA900000980199534600196941002B23DB2B00B4
:10CAA0005246D3402A006446E2401C00534615001B
:10CAB000002B2DDB26005746BE403300260067467C
:10CAC000BE403200801A994100900191ACE7624665
:10CAD00020239B1A4A46DA406146130042468A40A8
:10CAE00017001F4380E7624620239B1A2A006646F0
:10CAF0009A402300F3401343D4E7624620230021E9
:10CB00009B1A0022009101920122DA40019280E7F3
:10CB10002023624626009B1ADE402F00B046664660
:10CB2000B74046463B003343C8E7C046F8B54746E2
:10CB3000CE4643025B0A4400C20F9C464800DD001B
:10CB40004B02240E5B0A000E80B5984626009146E3
:10CB5000C90FDB00271A8A4229D0002F15DD0028D3
:10CB60004AD1002B00D095E0ED08FF2C00D188E0E1
:10CB70006B025B0AE6B25B02F605580A3043D20745
:10CB800010430CBC90469946F8BD002F00D087E0BA
:10CB9000601CC0B2012800DCB6E0EE1A720100D5BC
:10CBA000C5E0002E3DD1002200260023E3E7002F40
:10CBB00000DC96E000285DD0FF2C60D08022D204FB
:10CBC00013431B2F00DDECE02022D21B1800934002
:10CBD000F8405A1E93410343ED186B017BD5013495
:10CBE000FF2C00D1B7E0012207262A406B089A4D9E
:10CBF0001D4015432E4029E0FF2CB5D08022D204E1
:10CC000013431B2F00DDB2E02022D21B19009340FA
:10CC1000F9405A1E93410B43ED1A6B015BD5AD01F0
:10CC2000AE09300001F02CFA05388640844265DCFC
:10CC3000041B330020200134E340041BA640751E72
:10CC4000AE41334307261D0000241E4001224B46FF
:10CC50001A40002E04D00F232B40042B00D00435A3
:10CC60006B0100D480E70134E6B2FF2C2FD1FF2600
:10CC7000002380E7002B52D1FF2C00D074E70A007C
:10CC8000ED08002DF3D08023DB032B435B025B0A0E
:10CC9000FF2670E7013F002FBED0FF2CB1D163E724
:10CCA000002C47D0FF2869D08024E4047A42254331
:10CCB0001B2A00DDC5E02C002026D440B21A954086
:10CCC0006A1E954125435D1B04008946A5E7AB011B
:10CCD0005B0A50E7002401224B461A406B07BAD189
:10CCE00042E7002F3BD10134E0B201284ADDFF2C9E
:10CCF000BDD00726ED186D082E40A7E70723574D36
:10CD0000241A35401E40A1E7002C1BD1002D6ED106
:10CD1000002B00D19AE00A001D003C0024E7013FEF
:10CD2000002F00D158E7FF2C00D04AE7A7E75E1B91
:10CD3000894676E7002D1CD10A00FF281FD0040089
:10CD40001D0011E7002D5DD1002B17D1802300229B
:10CD5000DB03FF260FE70A00FF2600230BE7002C6A
:10CD600021D1002D66D1FF28E9D11D0087E70123DD
:10CD700052E77A1CA7D0FA43FF2899D10A001D0078
:10CD8000FF24F1E6002E21D1002D4FD0002B4CD0F6
:10CD9000ED186B019ED5314B07362E4001241D4006
:10CDA00054E7012318E7FF28DFD08024E4047F4202
:10CDB00025431B2F4DDC2026F61B2C00B540FC40E4
:10CDC0006A1E95412543ED18040006E7002DCCD0DE
:10CDD000002B00D153E780216046C903084203D0ED
:10CDE0004046084200D11D000121114047E7002BB9
:10CDF00000D1B9E6EA1A500125D507265D1B2E4061
:10CE0000894623E7FF24002B00D1ADE6802260464F
:10CE1000D203104204D04046104201D11D00894681
:10CE200001224B46FF241A409EE62B00DD080A0033
:10CE300000249DE67A1CC6D0FF43FF28B9D11D000F
:10CE40001DE701253FE7151E00D044E7002200231F
:10CE500091E60125B7E7C046FFFFFF7DFFFFFFFB1F
:10CE6000F8B557464E464546DE464402E0B5460014
:10CE70008846640A360EC70F002E63D0FF2E24D0DA
:10CE80008023E400DB041C43002399469B467F3E3D
:10CE9000434642465D02D20F5B006D0A1B0E904670
:10CEA000924665D0FF2B55D080220021ED00D204A0
:10CEB0007F3B1543F61A43464A467B400F2A00D96A
:10CEC0008DE06D48920082589746002C54D108237B
:10CED0009946063BFF269B46DAE700255346022982
:10CEE0001BD0032900D1BFE0012928D030007F30BA
:10CEF000002820DD6A0704D00F222A40042A00D02F
:10CF000004352A0103D530005C4A80301540FE28E4
:10CF100003DCAC01640AC2B201E0FF220024640217
:10CF2000D205600ADB07104318433CBC9046994683
:10CF3000A246AB46F8BD0122101A1B287CDD002258
:10CF40000024ECE7002C1DD104239946033B002666
:10CF50009B469DE7FF3E002D20D1022143464A46D5
:10CF60007B400A430F2AD8D84548920082589746FA
:10CF7000002D19D10121F1E70C239946093BFF2629
:10CF80009B4685E7200001F07BF87626431F9C40F6
:10CF900000237642361A99469B4679E74A46032390
:10CFA0001A439146032186E7280001F069F8431FE0
:10CFB00036189D40763600217DE780240023E40367
:10CFC000FF22ACE700258023DB031C4228D01D4252
:10CFD00026D12B435C02640A4346FF229FE762018D
:10CFE0006C01A24224D21B210025013E0127100022
:10CFF0006D005200002801DB944201D8121B3D4312
:10D0000001390029F3D11400621E944125436DE7D4
:10D01000BA46594625005346022900D061E77CE70D
:10D020008023DB031C436402640A3B00FF2276E793
:10D03000121B1A210125D9E79E362A00B5402C0083
:10D04000C240651EAC411443620704D00F22224047
:10D05000042A00D00434620103D4A401640A00222B
:10D060005DE7012200245AE78024E4032C43640294
:10D07000640AFF2253E7C046080A0200FFFFFFF7D9
:10D08000480A020070B542004E024C0045026D0A8B
:10D09000120EC30F760A240EC90FFF2A0FD0FF2CE1
:10D0A00011D00120A24200D070BDB542FCD18B420C
:10D0B0000DD0002AF8D12800451EA841F4E7012030
:10D0C000002DF1D1EBE70120002EEDD1E9E70020A2
:10D0D000EAE7C04670B54A004E02450244006D0AB8
:10D0E000240EC30F760A120EC90FFF2C15D0FF2A8B
:10D0F0000ED0002C15D1002A01D1002E1CD0002DFD
:10D1000014D08B4227D00220013B1840013870BD5B
:10D11000002EEED002204042F9E7002DFAD1FF2A7E
:10D120000ED0002A0ED1002EEDD00BE001230139E4
:10D13000994308000130EAE70020002DE7D0E2E73C
:10D14000002EE7D18B42DED1944205DD0221581E2C
:10D1500008400138DBE70024A24204DCB542D2D803
:10D160000020B542D3D2581E012398430130CEE7A8
:10D1700030B5420044024D02C30F4800640A120E4B
:10D180006D0A000EC90FFF2A12D0FF280CD0002A0A
:10D1900012D1002819D1002D17D1002C2BD002203C
:10D1A000013B1840013826E0002DF0D0022022E09B
:10D1B000002CFBD1FF281FD000281FD1002D1DD12E
:10D1C0000220013B1840013815E0002C0ED08B42A4
:10D1D000E5D10022904204DCAC42E0D80020AC4211
:10D1E00009D2581E01239843013004E0012301397C
:10D1F00099430800013030BD002DD7D18B42CED1EC
:10D200008242E7DD0221581E08400138F3E7C0469C
:10D21000F0B54E4657464546DE46E0B543025B0A4A
:10D22000450083B00F1C99462D0EC60F002D57D018
:10D23000FF2D24D08020DB00C0041843002381464A
:10D240009A469B467F3D7C027A00FB0F640A120ED1
:10D25000984623D0FF2A4BD0E30080240020E4042A
:10D260007F3A1C43AD186B1C4746019353467740E9
:10D270003A000F2B48D87D499B00CB589F46002B86
:10D2800000D085E008339A46063B9B467C027A0034
:10D29000FB0FFF25640A120E9846DBD1002C00D04C
:10D2A00090E0524601231A4392460120DBE74C46A8
:10D2B00058461700022824D0032800D1CFE00022CE
:10D2C000002301284DD15802D205400AFF07104320
:10D2D000384303B03CBC90469946A246AB46F0BDED
:10D2E000002B5BD104239A46033B00259B46AAE70B
:10D2F000FF35002C60D1524602231A439246022089
:10D30000B1E7FF220023DEE74B461B0C9C464B4651
:10D310002604360C180461463300220C6446000CC7
:10D3200043434E435043544380191A0C12189642FB
:10D3300003D9802149028C4664441B041B0C100451
:10D34000C01883015E1EB341800E1843130C1B19D5
:10D350009B0103431C00230179D5012362081C4073
:10D360001443019A7F32002A4DDD630704D00F2356
:10D370002340042B00D00434230103D53C4B019AF5
:10D380001C408032FE2ABCDCA3015B0AD2B29AE7C1
:10D390000C239A46093BFF259B4654E7180000F0F2
:10D3A0006FFE4A46431F76259A4000236D42914600
:10D3B0002D1A9A469B4646E7524603231A43924645
:10D3C000032050E7200000F05BFE431F2D1A9C4015
:10D3D000763D002047E780230027DB03FF2272E72A
:10D3E000424666E74C463200584662E780234A468A
:10D3F000DB031A4222D01C4220D123435B025B0A8A
:10D400004746FF225FE701239A1A1B2A21DC2300EB
:10D410000199D3409E318C401A0023005C1EA34129
:10D4200013435A0704D00F221A40042A00D00433B1
:10D430005A0111D49B015B0A002244E780234A462B
:10D44000DB0313435B025B0A3700FF223BE70195D6
:10D4500087E70022002336E70122002333E78023F9
:10D46000DB0323435B025B0AFF222CE7880A0200EE
:10D47000FFFFFFF7F8B54746CE464400C20F80B520
:10D4800047024802400A8446664648007F0A240E46
:10D49000F60025009046FB00000EC90FB146FF289C
:10D4A00000D185E001267140261A914257D0002E06
:10D4B00043DD002800D07FE04946002900D1AAE0E2
:10D4C000013E002E00D0F7E05B1A5A0100D48BE039
:10D4D0009B019C09200000F0D3FD05388440854263
:10D4E00000DDD3E0451B230020200135EB40451B28
:10D4F000AC40621E94412343072400251C400122B6
:10D5000041460A40002C04D00F211940042900D0C4
:10D510000433590100D480E00135ECB2FF2D00D076
:10D52000A3E0FF2400235B02E405580AD20720434E
:10D5300010430CBC90469946F8BD002E74D1601C77
:10D54000C0B2012800DCA7E04A469C1A620100D55F
:10D55000B6E0002CBED1002200240023E3E7002E19
:10D5600000DC85E0002846D0FF2C49D080224846C8
:10D57000D2041043814601221B2E09DC20204C4698
:10D58000801B84404A462000F240441EA0410243D2
:10D590009B185A0128D50135FF2D00D1A8E00122A2
:10D5A000072494491A405B080B4013431C40A6E72C
:10D5B000002E00D078E775E7FF2C54D08022494632
:10D5C000D2041143894601221B2E09DC2021484642
:10D5D000891B88404A460100F240481E81410A43A7
:10D5E0009B1A5A0100D573E7012241460A405907A8
:10D5F00000D089E711E04846002858D1FF2C0CD113
:10D60000DB08002B00D18CE78020C00303435B02C2
:10D610005B0AFF2487E7FF2C25D0DB08FF2DF0D025
:10D620005B025B0AECB27EE7002C4DD0FF2818D0DD
:10D630008024E404724223431B2A00DDC4E01C0062
:10D640002025D440AA1A93405A1E934123434A46A8
:10D650000500D31A884638E7721CF8D0F243FF2839
:10D66000EAD10A004B46FF25D7E79B015B0A5AE740
:10D67000002E41D1651CE9B2012945DDFF2D00D105
:10D680004FE707244B445B081C4038E707225A4BFE
:10D690002D1A2340144032E7002C1DD1002B7AD1E3
:10D6A0004B46002B00D191E00A000025B5E7013E72
:10D6B000002E19D14B446CE7FF2C84D1FF25ACE739
:10D6C0004A468846D41A05E7002BC5D10A00FF2830
:10D6D000C8D005004B46A0E7002B49D14B46002B94
:10D6E00077D00A00FF2598E7FF2C00D043E787E7B3
:10D6F0000A00FF24002316E7002C15D1002B57D178
:10D70000FF28E6D14B467BE7002C20D1002B57D0D9
:10D710004946002953D04B445A0168D50724364A5C
:10D720001C4001251340EAE6FF28EBD08022D204FA
:10D73000764213431B2E53DC2025AD1B1A00AB4051
:10D74000F2405C1EA34113434B44050021E7002B2C
:10D75000D8D04946002900D152E78021C9030F42A1
:10D7600000D14DE76046084200D049E74B4647E705
:10D770004846FF25002800D14FE78022D2031742F8
:10D7800004D06046104201D14B46884601224146F2
:10D79000FF250A4041E7484600281FD01A1A5001C9
:10D7A00020D54A460724D31A1C4088460025A6E601
:10D7B000741CC9D0F643FF28BCD14B4620E79946DC
:10D7C0004B460025DB082BE7012340E7002200231E
:10D7D000A9E680230022DB03FF24A4E600251CE742
:10D7E0000123B1E7002AF1D013000025FCE6002553
:10D7F000FAE6C046FFFFFF7DFFFFFFFB410242004C
:10D80000C30F490A120E00207E2A0DD99D2A0CD87A
:10D81000802000040143952A0ADC9620821AD14018
:10D820004842002B00D108007047034A9818FBE7D4
:10D83000963A9140F4E7C046FFFFFF7F70B500289D
:10D840003DD0C317C5185D40C40F280000F018FC78
:10D850009E22121A962A07DCD2B2082833DD083835
:10D8600085406802400A23E0992A0BDD0523290040
:10D870001B1AD94003001B339D402B005D1EAB419A
:10D8800019430D00052801DD431F9D402B000F4962
:10D890000B406E0709D00F263540042D05D0043308
:10D8A0005D0102D59F220B40121A9B01580AD2B289
:10D8B0004002D205400AE4071043204370BD002413
:10D8C00000220020F4E76802400AF1E7FFFFFFFBB7
:10D8D000F0B55746DE464E464546E0B5834607005E
:10D8E0000E03480085B092461C00360B400DCD0F4C
:10D8F000002800D19DE0954B984239D08023F60056
:10D900001B041E43924A7B0F3343994694460300FF
:10D910006344009300230026FF00029323031B0BA4
:10D9200098466300E40F52465B0D019400D1B3E0CA
:10D9300086498B4200D19EE04246D10080221204EB
:10D940000A435146490F11438B46814952468C4642
:10D9500000996344CB1A0021D20000932B0063404E
:10D960009A460F2E00D905E17A4BB6009B599F4687
:10D970005B463343994600D0B8E0022308260027CF
:10D9800000900293CAE7CB463A0002990195019BA9
:10D990009A46022927D0032900D180E2012944D0E8
:10D9A0006D49009B8C4663441C00002C38DD5307F6
:10D9B00000D013E2D2085B46DB0109D55946674B1C
:10D9C00019408B468021C9008C46009B63441C0093
:10D9D000634B9C4207DC5B4664055F075B021743B1
:10D9E0001B0B620D02E000230027584A00211B0395
:10D9F0001C0B0B0D1B05234314055A4A380013401A
:10DA00001C4353466400DB0764081C43210005B037
:10DA10003CBC90469946A246AB46F0BD012252421C
:10DA200001231B1B382B00DCADE100220023002763
:10DA3000DCE75B46334399465ED0002E00D18AE195
:10DA4000300000F01DFB03000B3B1C2B00DD7BE1D5
:10DA50001D22D31A5A460100DA4008398E401300BD
:10DA60005F46334399468F403F4B00261B1A009375
:10DA70000023029352E7414653460B433B499B46E2
:10DA80008C46009B634400935B46002B3BD10223F2
:10DA900000221E43022161E7434613439B4637D0D1
:10DAA0004346002B00D162E1404600F0E9FA030052
:10DAB0000B3B1C2B00DD53E102004146083A91402C
:10DAC00088461D21CB1A5146D9400B0041460B43D5
:10DAD0009B46534693401A00009B25499C46604450
