:020000021000EC
:108000000040002065FF0100A1FF0100A3FF010067
:108010000000000000000000000000000000000060
:10802000000000000000000000000000A5FF0100AB
:108030000000000000000000A7FF0100A9FF0100F0
:10804000ABFF0100A5AC0100A5060200ABFF0100DB
:10805000ABFF01000000000065000200ABFF010063
:10806000ABFF0100810802002D050200ABFF0100FB
:10807000ABFF0100ABFF0100ABFF0100ABFF010054
:10808000ABFF0100ABFF0100ABFF0100ABFF010044
:10809000ABFF0100F1E30100CDE30100ABFF010004
:1080A000ABFF0100ABFF010000000000000000007A
:1080B00000000000000000000000000000000000C0
:1080C00010B5064C2378002B07D1054B002B02D0AE
:1080D000044800E000BF0123237010BDB020002041
:1080E0000000000080760200044B10B5002B03D086
:1080F0000349044800E000BF10BDC0460000000076
:10810000B420002080760200164B002B00D1144BC7
:108110009D46402292029A1A924600218B460F46B3
:108120001348144A121A0EF05CF90F4B002B00D0C2
:1081300098470E4B002B00D09847002000210400E8
:108140000D000D48002802D00C4800E000BF0AF0E6
:10815000EFFA200029000DF0E9FE0AF0D3FAC0463C
:1081600000000800004000200000000000000000A7
:10817000A820002048290020000000000000000086
:1081800070B5054D2C003034103C236820009B68EE
:108190009847AC42F8D170BDD020002010B5040043
:1081A000034B036040300AF0DAFF200010BDC046E8
:1081B000AC6502008B8883808B798371054B0360EB
:1081C0008B6883600B7B03734B7B43730E23CB560F
:1081D0008373704794650200F8B50123164F0500BC
:1081E0003E68164C1E4014D115492000FFF7E2FFEF
:1081F000200014491030FFF7DDFF20001249203025
:10820000FFF7D8FF0123114A114930003B600EF0FF
:1082100092F8012629002000314002F03DFC2000A8
:1082200069103140103002F037FC2000A9103140B5
:10823000203002F031FCF8BDCC200020D0200020FE
:10824000D8230020E8230020F8230020002000206D
:1082500081810100F0B5B5B0434918A8FFF7AAFF26
:1082600042491CA8FFF7A6FF414920A8FFF7A2FF3B
:10827000404924A8FFF79EFF3F4928A8FFF79AFF2F
:108280003E492CA8FFF796FF3D4930A8FFF792FF23
:108290003C4904A8FFF78EFF3B4908A8FFF78AFF77
:1082A0003A490CA8FFF786FF394910A8FFF782FF6B
:1082B000384914A8FFF77EFF37496846FFF77AFF71
:1082C000364800F067F936480BF039FE00242001EB
:1082D00018AB18180021013402F0DEFB072CF6D190
:1082E0000025304E18AB2F01DF190121380002F0B4
:1082F000D3FB002404AB2001C01802F039FC0E238C
:1083000063430134F052052CF4D10024E0B2FFF7AE
:1083100063FF684602F02CFC0E23634301344633AE
:10832000F052042CF2D100213800013502F0B4FBE8
:108330000236072DD6D11A480BF0FCFD6D4614AC61
:10834000236820009B68103C9847AC42F8D130ACC1
:1083500014AD236820009B68103C9847AC42F8D1CC
:10836000002035B0F0BDC04648230020582300202F
:10837000682300207823002088230020A8230020E1
:10838000C823002028230020F822002038230020C2
:10839000082300209823002018230020002100201B
:1083A000F0210020AC27002010B5054C200000F083
:1083B00039F8044A044920000DF0BDFF10BDC04645
:1083C0000021002000200020CD830100CA23144A90
:1083D0009B0010B5C2501C330400C0180AF0BFFE49
:1083E000D0239B00E0180AF0BAFE20009130FF3045
:1083F00001F01EFB20006930FF3001F019FB200066
:10840000F03001F097FE2000D03002F0E5F92000B6
:10841000643007F013FD201DFFF7C0FE200010BDE3
:10842000206A02001423F0B5040093B000931922CF
:108430001821043002F086FC220025002600643258
:10844000B435132110001092B83607F003FD280050
:108450000CF0DAF800221E2130000BF07AFD20002B
:10846000D03002F0D9F92200F03211920621464AAA
:10847000119801F083FE20000027012369301A00C3
:1084800000971121FF3001F0DFFA200091300097B2
:10849000012302221A21FF3001F0D6FA2000B93060
:1084A0001A2301210222FF3002F072FA300001F09B
:1084B000D7F8E4225200A050300001F01FFBE62361
:1084C0005B00E0500100E42220005200D130119BFB
:1084D000A2580095FF3001F061FD2000E130290035
:1084E0001C22FF3002F0C6FD192320000F93013B30
:1084F0000E93013B0D93013B0C93013B0B93013B0E
:108500000A93013B0993013B0893013B0793013B0D
:108510000693013B0593013B0493013B0393013B0D
:108520000293013B0193F930013B0822009307219C
:10853000013BFF300BF02EFDCA239B00E018290001
:1085400003F0AAFDD3239B00E0181D2102F046FB97
:10855000DD239B00E7501098277003210DF009FCE4
:1085600023002200200009499C33A0321C601160C6
:108570005760074A80305A610221012207F024FE29
:10858000200013B0F0BDC046B46502006B2D0200A0
:10859000552D02000123F0B506788FB004001E406F
:1085A00000D082E00300D0331800039300F0EEFA0D
:1085B00000F0E6F928200DF0C5FE050010300AF0A5
:1085C0005FFE6C4B18202B600DF0BCFE07006A4B61
:1085D0000460082231000C300C930D960DF001FF61
:1085E0000CA9381D08220DF0E0FE644BAF607B61E2
:1085F0001223EE60AB802E626E622900039802F0B7
:108600007FF8002805D028000AF05FFD28000DF053
:108610008EFE012322785A49134323702300B4337A
:10862000180005930BF0F6FF5649049005980BF0DF
:10863000F1FF00250690642000F0C6FB2F002E00FD
:1086400023006933FF33180007930BF02AF8002842
:108650002DD1049B002B33D1069B002B30D1DD257F
:1086600049494A48AD0000F08FFC6359002B1CD1EA
:1086700000F09AF801000AA800F0D8FD0BA80AF053
:10868000E7FBCA239B00E018069B0BAA0AA90093EC
:10869000039B03F057FD0BA80AF061FD0AA80AF03E
:1086A0005EFDCC239B00E35863510FB0F0BD20006A
:1086B0009130FF300AF0F5FF0028CAD0182EC8DC30
:1086C0002000653039B22AB2FF23FF30013700F0B5
:1086D0002BFEFFB2322000F077FB0136052F02D1CE
:1086E00000270135EDB2049B192E06D0002BA7D030
:1086F0002349059802F052FC01E0002BF8D10498C0
:108700000DF015FE06980DF012FE1F491F4800F0EF
:108710003BFCCA239B00E3180893DD239B00E3582E
:108720000993002B1ED100F03FF801000AA800F0C9
:108730007DFD0BA80AF08CFB01230BAA0AA900936C
:108740000898039B03F0FEFC0BA80AF008FD0AA89A
:108750000AF005FDCC239B00E3580993DD23099A19
:108760009B00E2502100079AF031089803F0E4FEE4
:1087700066E7C046FD030000DD2D02009D2D0200CE
:1087800096700200A170020000200020001C002052
:10879000BFF34F8F024B034ADA60BFF34F8FFEE700
:1087A00000ED00E00400FA05F0B58DB005AF192228
:1087B000154938000DF0F9FD0022144B05245A71BB
:1087C00080225205566E01222500019402920393E5
:1087D0000199300008F0F4F90800029908F06AF9EC
:1087E000019B03996B430193029B361A6B430293DF
:1087F000631E2C1B6C433C19225C1C1ECA54E7D11F
:1088000008000DB0F0BDC046B1700200782800200D
:10881000F0B597B018220021060010A80DF0E1FD78
:10882000132110A80DF0EDFB032110A80DF07FFC23
:108830004C4B1B68002B00D10133DBB202934A4A38
:10884000012300210BA807F02DFE484B9E4200D9C2
:10885000002672B6464B64211D68464B30000793D4
:10886000052408F0B1F960435030281808900A2117
:10887000300008F0A9F90A2108F08CFA6143503160
:108880006918099130000A2108F084FA80236143B5
:108890000024503169189B010A910193029B002B1F
:1088A0005DD0002500272E1F07AB9B190593032CD5
:1088B00003D1802300249B01019307AB5B592E4A0F
:1088C00003936300D3180493002319000620584330
:1088D000049A16187678B4466246039EB25C102657
:1088E0009446049A105C62460641164202D001206A
:1088F000984001430133092BE8D1C9431F4B059A26
:10890000090119401268039B934225D1312F23DCC2
:1089100000210BA80DF0D6FCFA23159A1199DB0063
:10892000106801421BD0013B002BF9D1019B01349F
:108930005B000193FA230137E4B25B009F42B6D19A
:108940000435102DAED1074B1B68002BA6D0029F1B
:10895000013FFBB20293A1E7019B1943D9E7FFF75F
:1089600017FFC0467C240020F0FF0000E703000052
:108970000420002000710200CA700200F01F0000F5
:10898000F8B50023124C23600AF083FA002808D0BF
:10899000042120000AF079FA002801D00D4B236051
:1089A000F8BD0122A12704250B4B0C491A6022684F
:1089B000FF0048604E68002EFCD0DE591202013DD7
:1089C0003243002DF5D1226001225A60E8E7C0460B
:1089D00078240020ED5EBC0B00D00040FCD00040AD
:1089E000F0B585B01F000AAB1B8806000291150088
:1089F0000393002F1BD028200DF0A4FC6B4604002D
:108A00001989039BAAB200933B000AF048FB336824
:108A100021005B6830009847002806D020000AF04B
:108A200054FB20000DF083FC024805B0F0BD024865
:108A3000FBE7C04616FCFFFF17FCFFFF0B4B70B5B2
:108A40001C68002C10D0656D00F0ACFBA36C0029F5
:108A500001D1834206D820000AF04DFA04492000D3
:108A60000AF037FA2C00ECE770BDC04684240020E1
:108A7000A4240020F0B593B007932A4B04AC1E68E1
:108A8000049005910692002E4AD0274B25886788CE
:108A90001C6800230293002C2ED0636D234803939F
:108AA000A36C9AB2A36C1B0C99B2854214D12048D6
:108AB000824211D1002B01D0B9420BD1029B002B75
:108AC00008D120000AF017FA1A4920000AF001FA2A
:108AD00001230293039CDEE7002A01D09542F9D1DD
:108AE000002B01D0B942F5D120000AF004FA114957
:108AF00020000AF0EEF9EDE70F4BEB18012B0FD930
:108B000010233A00009329000C4B08A80AF0C7FA7A
:108B1000336808A99B683000984708A80AF0D5FA7E
:108B200013B0F0BD80240020B0240020FE0300001C
:108B3000FF030000A424002002FCFFFF758A01004F
:108B400010B572B60B4B1C68002C08D020000AF040
:108B5000D2F90023E364084B2000E36310BD62B642
:108B60005C200DF0EFFB5C22002104000DF039FCCD
:108B7000EFE7C046A824002000400020024B1878F0
:108B8000012318407047C0467E280020F7B5060034
:108B9000FFF7F4FF051E33D11A4C2660FFF7D0FF14
:108BA000194B1A4918600AF094F9FFF7C9FF184BDE
:108BB0001860184B4363184B8363206800280ED05D
:108BC000C027164E2A00330015490097FFF708FF0B
:108BD000009733002A0013492068FFF701FF0C209B
:108BE0000DF0B0FB0023838083710F4B03600F4BAC
:108BF000836000F0EFFA01230D4A11780B431370E4
:108C0000F7BDC04680240020B4240020A424002006
:108C1000AC240020FC3F0020BD2F0200758A01001B
:108C2000FF030000FE030000D46502003D8A01003E
:108C30007E280020F7B506000D00170001930028DC
:108C400002D100242000FEBD0029FAD0FFF778FFF2
:108C5000041EF6D0074B019A4363066045608760A7
:108C6000054B002A00D0054BA363054920000AF0FC
:108C700030F9E7E7FC3F0020872F0200A52F020014
:108C8000A4240020024B1868434258417047C04654
:108C9000A4240020002310B504499C006258002A37
:108CA00001D00133F9E76050100010BD8C24002082
:108CB000002310B5044A99008C58844201D0013336
:108CC000F9E70020885010BD8C24002010B5002446
:108CD000084BA200D058002802D003685B68984770
:108CE0000134062CF4D1044B1B68002B00D120BFAB
:108CF00010BDC0468C240020A4240020F8B5FFF746
:108D00003DFF00281CD02A4D2C68E36CDA0718D5EB
:108D100002273B43E364274B1E680423F26C3000B8
:108D20001343F364636BF3630AF00BF93000716C67
:108D300003F0F7FF2868C36C3B4201D004F02BF826
:108D4000F8BD1D4F1D4E3A683168002A1ED12960BA
:108D50002A68914208D11B0706D52C60FFF7B6FFA1
:108D60003B68002BFAD02B6029688C42E8D033682E
:108D7000994214D1124B4B63124B8B6320000AF0C3
:108D8000E0F82968626C4B6C20000DE0206DB84261
:108D900003D1606D002800D002002A60D8E79C4211
:108DA000ECD1002210004B6C03F07AFFC8E7C046FC
:108DB000B424002088240020A4240020AC24002017
:108DC000FC3F0020BD2F020070B50500FFF7D6FE66
:108DD000002803D128000DF0A3F970BD0C4B1C68CE
:108DE000E36CDB0706D5FFF7ABFE0A4B18600028E3
:108DF00000D0040000F0D6F92D18A56420000AF078
:108E00007AF8054920000AF064F8FFF777FFE4E7F5
:108E1000B42400208824002084240020F0B51E4BB8
:108E20001E4F1C683B6885B006000391002B30D0B4
:108E3000FFF7A4FE00282CD0E36CDB070ED5FFF76C
:108E40007FFE174B051E186008D00AF054F815492C
:108E500028000AF03EF82C00FFF750FF039B20008B
:108E60001B043343A3640AF046F820000E490AF0BD
:108E700030F80E4B0024F318012B07D9C0230093C0
:108E8000039A0B4B31003868FFF7AAFD200005B0AC
:108E9000F0BD084CFAE7C046B4240020802400202E
:108EA00088240020A4240020B024002002FCFFFF1E
:108EB000758A010016FCFFFF10B5FFF75FFE002862
:108EC00009D0054C20680AF016F8044920680AF019
:108ED00000F8FFF713FF10BDB4240020A8240020E1
:108EE000F7B507000D0000282ED0FFF747FE002839
:108EF0002CD00724164E3068C36C1C4007D0154A8E
:108F0000290038000AF00EF800242000FEBD03F00E
:108F10002AFF02213268D36C1940019103D003214A
:108F20008B43D364F1E701242343D3642800B8477B
:108F30003268D36C1900A143D164019C5B07E4D56E
:108F400028000AF027F8E0E7034CDEE7034CDCE7F3
:108F5000B4240020952F020017FCFFFF16FCFFFF32
:108F6000020010B5014B12CB12C210BDB824002074
:108F7000034B1A68034B1A607E225A607047C04642
:108F800004200020B824002070B5114E3278022A47
:108F90001AD081421AD90C1A072C17D90D000323B5
:108FA00005432B4012D172B60A4DD2005051AA1877
:108FB00051608022A4081206144304603278013202
:108FC000327062B6180070BD0348FCE70348FAE748
:108FD00080280020C024002013FCFFFF17FCFFFFA7
:108FE00070B5134C06002378124D002B0CD112499A
:108FF00012482B70FFF7C8FF114B984202D11E2078
:10900000FFF706FC0123237000242B78A34209DD1F
:109010000C49E300C918300009F0D6FF002805D13B
:109020000134F2E71420FFF7F3FB002070BDC046C7
:109030007F280020802800200038002048290020B8
:1090400017FCFFFFC024002070B5002819D0104B7A
:1090500010491C7800239C4216DDDA0055588542E1
:1090600010D28A18526882420CD9041F2368002B40
:1090700002DC1E20FFF7CCFB802322681B06134373
:10908000236070BD0133E6E71E20FFF7C1FBF8E760
:1090900080280020C024002070B5051E14DD0B4E72
:1090A0000B4C3368002B02D020680CF0C4FEFA2170
:1090B00020680024074B89008361C46269433560DE
:1090C0000CF0C1FE200070BD0348FCE7D024002056
:1090D000002500208191010017FCFFFFF8B5114F1A
:1090E00006003D68002D0AD130200DF02BF9040058
:1090F00006F00AFF0C4BA5612360E5623C600B4D56
:109100002B68002B09D110200DF01CF904000CF085
:10911000E6FE20002C600CF0BCFE3000FFF7BCFF28
:10912000F8BDC04600250020C86D0200FC240020C8
:10913000014B18687047C046D024002070B50D4C14
:109140002368002B03D00C4B1B68002B02D1062098
:10915000FFF7C4FF20680CF0B3FE02000749C317F5
:109160000D684E685219734120680A604B600CF01C
:10917000ADFE70BDFC24002000250020A8200020AA
:1091800010B5FFF7DBFF0024054BA200D0580028E4
:1091900002D003681B68984701340A2CF4D110BD33
:1091A000D424002010B5FFF7C9FFFA22034B920028
:1091B00018685968002307F02DFE10BDA820002074
:1091C00010B5FFF7BBFF024B1868596810BDC046C9
:1091D000A82000200B4B10B51B680400002B03D007
:1091E000094B1B68002B02D10620FFF777FF0023F5
:1091F000064A99008858002801D00133F9E78C50BD
:1092000010BDC046FC24002000250020D4240020EE
:10921000002310B5044A99008C58844201D00133D0
:10922000F9E70020885010BDD424002010B50400B8
:10923000002902D00B78002B03D1034B23602000C0
:1092400010BD09F093FFFAE7E4650200F8B50400E9
:109250000E00150000290AD00B78002B07D0002A39
:1092600005D0080097B20DF0FCF8874203D90B4BEC
:1092700023602000F8BD681DFFF7B2FE20600AF0F1
:1092800019F923682A005F8023683100181D0DF04A
:109290008CF823685D1900232B71EAE7E46502006E
:1092A000014B03607047C046E465020010B50548F5
:1092B000054C20600AF001F9044A054920000DF030
:1092C0003AF810BDE46502000425002000200020CB
:1092D0005F310200084B73B51C680500002C0AD0F2
:1092E000010026680831082268460DF05EF80CCDB2
:1092F00031682000884773BD08250020014B0360BA
:109300007047C046EC65020010B50400002903D187
:10931000044B0360200010BD016008000AF0CDF886
:10932000F8E7C046EC65020030B500684488A14209
:109330000CDA8588AA4209DA002907DB002A05DB56
:109340005443401800198371002030BD0048FCE7E9
:1093500017FCFFFFF0B5070085B00E001D000029C7
:1093600021DD002A1FDD002B1DD0046863880393D4
:109370008B4200DD0391A3880293934200DD0292A9
:10938000002306340193019B029A93420EDA2900CE
:109390002000039A0DF009F83B68AD195B88E418CA
:1093A000019B0133EEE7024805B0F0BD0020FBE76A
:1093B00017FCFFFFF8B504000D0016001F00002980
:1093C00001DB002A02DA0E4B2360F8BD100048438F
:1093D0000630FFF705FE20600AF06CF823685D8018
:1093E00023689E80002F06D03B0032002900200019
:1093F000FFF7B0FFE9E7200009F093FFE5E7C0467B
:10940000EC650200F7B506000D1E03D1244B036086
:109410003000FEBD00200F000400010001903B78E9
:10942000002B1AD03022524294469C446246092AAC
:1094300011D90A2B0AD1019B241801330193A142AF
:1094400000DA2100002004000137E8E70028FBD003
:1094500001340020F8E70120F6E70127019A09B25C
:1094600012B230007F42FFF7A5FF39000A203368AF
:109470009A1D2C78002CCBD02300303B092B08D828
:10948000FB43DB173B4043431B19303B1F000135B7
:10949000EFE7002FFBDB177001320F00F7E7C04644
:1094A000EC650200F0B5040089B006A80E00029237
:1094B0001D00FFF755FD236802995A88914235DA5D
:1094C0009B889D4232DA1F2E30D9079B01939E4222
:1094D0002CDC0523002273430393069B0493039B18
:1094E00004999B18A03BCB5C00210593AE18029B0E
:1094F000CF1823685888019087420EDA9888B042C6
:109500000BDDDB1910270F41019870431B180598DC
:109510000740781E87417F429F7101310529E6D1BE
:109520000132052ADBD1002009B0F0BD0048FBE77D
:1095300017FCFFFFF7B50468070063880E1E019350
:109540001EDD994218DA0023063400933B68009A26
:109550009B889A4212DA019BA1199D1B2A002000C8
:109560000CF023FF6019310009F0BEFE3B685B88F8
:10957000E418009B0133E8E709F0D3FE002000E087
:109580000048FEBD17FCFFFF10B50548054C2060E4
:1095900009F093FF044A054920000CF0CCFE10BDF1
:1095A000EC6502000C25002000200020DB320200C8
:1095B00010B5054C0121200009F073FF034A04494E
:1095C00020000CF0B8FE10BD102500200020002067
:1095D0005F3402000388074A10B50120934208D087
:1095E000834202D00020DB0703D41E20FFF710F9CE
:1095F000002010BDFFFF00000048704716FCFFFF71
:1096000010B53220FFF704F9004810BD16FCFFFF2B
:1096100010B5124C00230834828004604162022499
:1096200014220100837184720363838602813631C0
:109630000A78C360A243F13422400361436183612D
:10964000C36103620A70020040321370021DD387A7
:10965000013343878387C38710BDC046F46502008A
:10966000F0B5544F97B03B6806000593002B00D02F
:109670008BE006AC0B331C222121200001F0C0F945
:109680000EAD0B231D2222210AA801F0B9F90B23EC
:109690001B222321280001F0B3F908200CF052FE10
:1096A0000122059B110004900BF0DFFA3A213000F3
:1096B0000BF035F800281DD0A38812ADAB80A3793C
:1096C0005C20AB713C4B1293A3681493237B2B73E8
:1096D000637B6B73A37BAB730CF034FE04230193A9
:1096E000363300932A00049B3100040001F0C6FFCA
:1096F0003C604AE0322130000BF03FF800281CD0DB
:10970000A38812ADAB80A3795C20AB712A4B129376
:10971000A3681493237B2B73637B6B73A37BAB7363
:109720000CF010FE042301932E3300932A00049BB7
:109730003100040002F040F9DAE73C2130000AF081
:10974000D7FF00282CD0AB8812ACA380AB79A42023
:10975000A371194B1293AB6814932B7B23736B7B10
:109760006373AB7BA3730CF0EDFD0523050002933F
:10977000013B0193383300932200049B310001F038
:109780009BFE0E4B3D6044351D600C4B094C186828
:10979000002802D0216809F0F2FF206817B0F0BD60
:1097A00044200CF0CFFD042204990400FFF730FFA1
:1097B0009EE7C0461425002094650200182500206D
:1097C000F0B56149C56885B08D4254DA03000222C4
:1097D00036331B78134059D104698C4264DA020095
:1097E00036321278520768D4426901920200019E13
:1097F00040328E426FDA010036310978090774D49D
:10980000002B7DD113780293002B16D00600012780
:10981000011DCB8F363601339BB2CB87039636784A
:10982000BC46374000D188E01D2B06D963469E43D5
:10983000039B1E700023CB87137009F080FE434A00
:109840000723904276D94249043B8D4272DBC822FD
:109850000133920095426DDC023B8C426ADB013B96
:10986000944267DC01980433884263DB0133904201
:1098700060DC00235EE0C822002352009542ABDD8D
:10988000030036331A7800239207A5D4012306007B
:109890001F00363632785408A7433C0002279C400C
:1098A000BA432243327097E7C822520094429BDDAC
:1098B000020036321278520796D40600012236365C
:1098C00033789F08BA439700042293431A003A431F
:1098D0003270012388E7C821019E49008E428FDD46
:1098E00001003631097809078AD401000126363192
:1098F0000B78DF08BE430827F600BB4333430B70E9
:109900001378032B00D97DE70133DBB21370012BF1
:1099100003D10021031DD98774E7042B00D071E720
:10992000020036321178033B0B43137000230430DE
:10993000C3870B33180005B0F0BD092B00D87CE7B6
:10994000029BCF87013B77E770FEFFFFFF700200AD
:10995000E0FCFFFF70B5C369C1681A68451D8AB095
:109960000400EB7F114255D0002B58D1EB7F082B20
:109970000DD90122A379134209D11343A371A18800
:10998000130006A809F086FCFFF70CFC2062EB7FB1
:10999000012B23D80123A2791A421FD00025A188C8
:1099A000A571022202A809F075FCA31DDE7F012E1D
:1099B00014D1FFF7F7FB2B00226A801A994100901F
:1099C0000191019BA188AB4203D1174B009A9A42A7
:1099D00027D90123042206A809F05CFC0322A379FD
:1099E0001340012B14D1FFF7DDFB0023226A801AFC
:1099F0009941994202D10D4B984209D90223A2798B
:109A0000A1881343A3710522012306A809F042FC93
:109A10000AB070BD0B2BA9D80133EB77A6E7013B49
:109A2000FBE733000322D6E7E7030000DB05000075
:109A300010B50400034B08330360FFF7E9FB200077
:109A400010BDC04628660200F0B5070000250E00D4
:109A5000040085B002930AAB1B78083703930F4BC1
:109A6000019208330360858085712900182238002F
:109A70000CF0B7FC039A310038000CF0C7FA019BD8
:109A8000029AA380A31DE671DA77631D2562200088
:109A9000DD77FFF79FFB200005B0F0BD28660200D0
:109AA0000048704716FCFFFF10B53320FEF7B0FEEC
:109AB000004810BD16FCFFFF002310B50400838092
:109AC00083710D482164083020608020C000A061AF
:109AD000E0612062E3602000236163616362A3624E
:109AE000E36223636363A363E3636364110009F0C8
:109AF0001EFE200010BDC04640660200F0B5534F68
:109B000097B03B6806000593002B00D08BE00B3329
:109B10001C22212106A80AAC00F072FF0EAD0B2317
:109B20001D222221200000F06BFF0B231B2223218A
:109B3000280000F065FF08200CF004FC0122059BC2
:109B4000110004900BF091F81D2130000AF0FEFD89
:109B500000281DD0A38812ADAB80A3796020AB7123
:109B60003B4B1293A3681493237B2B73637B6B7320
:109B7000A37BAB730CF0E6FB052301931833009332
:109B80002A00049B3100040001F04CFE3C604AE0D6
:109B90003C2130000AF008FE00281CD0A38812AD3A
:109BA000AB80A3796020AB71294B1293A368149307
:109BB000237B2B73637B6B73A37BAB730CF0C2FBB8
:109BC00005230193373300932A00049B31000400DE
:109BD00001F094FFDAE73C2130000AF089FD00280B
:109BE0002AD0AB8812ACA380AB79A420A371184B08
:109BF0001293AB6814932B7B23736B7B6373AB7BE8
:109C0000A3730CF09FFB052305000293013B019316
:109C1000383300932200049B310001F04DFC0D4BC2
:109C20001D6044353D600B4B084A1B681068002BD3
:109C300000D0436417B0F0BD48200CF083FB052230
:109C400004990400FFF738FFA0E7C046182500205C
:109C5000946502001425002082B0F0B50400EDB038
:109C60006420739372920CF05BFA052210A8110025
:109C700009F060FB974911A8FFF7C4FB002221AB54
:109C80006CA91A605A609A600C339942F9D1192272
:109C9000002113A80CF0A5FBA0680AF007F9002624
:109CA0000B90FF21A06800F091FC8B4FA06800F0A2
:109CB0005DFB07960996884B9F4203D0874B9F42D6
:109CC00000DBFDE0A0680AF03FF9A56884491AA806
:109CD000FFF7ACFA78221AA9280000F0E5FB1AA8D1
:109CE00009F03DFA00267C4F0322099B606801338E
:109CF0001A40099209F0BBFC0500606809F0BEFC3F
:109D00000022784B05929D4210DB013205922A0019
:109D1000C8320BDBAA22042192000591954205DC92
:109D200002220592C82D01DD013205920022069221
:109D3000984210DB012306930300C8330BDBAA23F0
:109D400004329B000692984205DC02230693C82841
:109D500001DD0133069310A809F0E3FA002513ABE7
:109D6000EB5C012B08D160496B00CA185278C95CC2
:109D700010A8FF23FFF7D8FA0135192DEFD16B4654
:109D800018229A5E6B4610A81421595E099BFFF7B2
:109D9000CBFA002F01DB0F2E07D90023A068009318
:109DA00074301A0010A909F0D2FA01230893089B15
:109DB00005995A004C4B9B189A1E12788A4226D15C
:109DC000013B1B78069A934221D1089A6CAB9B18F1
:109DD000663BFF3B0A931B78012B18D00C23079A94
:109DE000216853431D0000220CA809F0CAFC21AAD7
:109DF0002B0094460CAA634423CA23C301220A9B66
:109E000001361A70079BF6B20133DBB20793089B49
:109E1000013308931A2BCAD164200CF081F9079BF7
:109E2000643F3FB2182B00D845E71A0021A91AA8B1
:109E300009F0B5FE6A461DAB23CB23C21B68136035
:109E40001A991B9A1C9B206809F083FCE568002D79
:109E50000CD0264912A8FFF7E9F91C231AAA12A967
:109E600028000AF010FC12A809F079F9A0680AF09D
:109E70006BF811A912A8A56809F03CFA00221C4B46
:109E8000009212A901932800130000F0B1FA12A861
:109E900009F023FAFA2080000CF042F9A0680AF0D9
:109EA00053F80B99A06800F091FB11A809F015FA7E
:109EB00010A809F012FA6DB0F0BC08BC02B0184747
:109EC000002F02D00F2E00D00EE7A06800F04EFA4F
:109ED0000AE7C046E07202008C3C0000D18AFFFF16
:109EE0002573020058FDFFFF457302003A7302001C
:109EF000DC050000F0B587B001930EAB1B880600AF
:109F000003930D9B0D000093019B02920C9F002B6D
:109F10003CD0002F02D1009BDB0737D528200CF066
:109F200011FA0400103009F0ABF9029B18202580CB
:109F300063800CF007FA0500009B08220593019B43
:109F4000002103600C3004970CF04BFA082204A99E
:109F5000281D0CF02AFA0E4B02226B610023039994
:109F6000E3602362636233680A43A560A2805B6892
:109F7000210030009847002806D0200009F0A5F8FD
:109F800020000CF0D4F9034807B0F0BD0248FBE70D
:109F9000C337020016FCFFFF17FCFFFF70B58CB043
:109FA0008360109B01604260C36004001849180080
:109FB0000AF030FB051E14D001001C22103105A848
:109FC0000CF0F3F96A4608AB43CB43C21B6813603D
:109FD00020680599069A079B09F0BBFB28000CF046
:109FE000A6F90C4B186800280ED00B4A05AB059259
:109FF00000220692C03202926A4622CB22C223007D
:10A0000003220521FFF776FF20000CB070BDC0468B
:10A010003A73020008250020599C0100F0B50400A5
:10A0200085B0637A9C46002B04D1200009F0D5FD51
:10A0300005B0F0BDA37A266F01931023019AF35661
:10A0400000259B1801229A402900F368039202938D
:10A05000029BAB4231DDB368019A6B439B18726976
:10A060005B00E77AD3181A785878E379012F14D176
:10A070005F1E3F1A10003A005B004343606F821876
:10A08000D3189B79634500DD6346627B1A4202D098
:10A090000123AB4019430135DAE7022F05D15F1EDA
:10A0A000BA1A277A013F381AE6E7032FE4D1277A54
:10A0B000013FBF1A02003800DEE71123C943F356FF
:10A0C000606C994023691940039B19430CF0FAF81E
:10A0D000A27B072AACD8637B0C495B006373531CDB
:10A0E000DBB290004158A373022A03D808000CF099
:10A0F0000CF896E7064B2000236300236363054BAF
:10A10000E462236414300BF09EFE91E76C6602005B
:10A110001DA00100C53B020010B50400044B036004
:10A120000BF089FE200005F005FF200010BDC046A1
:10A13000C86D020010B504000E4B08330360FFF732
:10A1400067F82000743009F0C8F82000603009F08A
:10A15000C4F82000583009F002F82000503008F010
:10A16000FEFF2000044B14306361FFF7D5FF200091
:10A1700010BDC0468C660200DC6D0200F8B50025FB
:10A180000400324B8580083303608571143016005B
:10A190000F0005F0B9FE20002D4BE56263612564D8
:10A1A0005030FFF77DF820005830FFF779F8200095
:10A1B0006030FFF7A3F820000423F25E33682667BF
:10A1C000590009B2743009F0B5F83368226FE371B1
:10A1D00073680126237210236581A7802561D356F9
:10A1E00091685918994204DD3000984001330543C5
:10A1F000F8E711230120D356D1685918994206DD9A
:10A2000002009A402669013332432261F6E71420A6
:10A210000CF098F8226900212A430123060006F079
:10A2200041F9FF23220063720133A38100234832E6
:10A230006664A37320001370A366FEF7CBFF0123AF
:10A24000A27920001343A371F8BDC0468C660200BA
:10A25000DC6D0200F0B5437A85B00400002B04D118
:10A26000200009F0BAFC05B0F0BD0122837A11008C
:10A270009C461023066F0025F356039263449940D1
:10A2800002912900F3680193019BAB422CDDB36876
:10A2900072696B4363445B00E77AD3181A78587885
:10A2A000E379012F10D15F1E3F1A10003A005B00C6
:10A2B0004343606F8218D3189B79002B02D0039B15
:10A2C000AB4019430135DFE7022F05D15F1EBA1AF3
:10A2D000277A013F381AEAE7032FE8D1277A013FAE
:10A2E000BF1A02003800E2E71123C943F356606C3D
:10A2F000994023691940029B19430BF0E3FF667AEA
:10A30000B31EDBB2FC2B14D8FEF712FF0B4B05007B
:10A31000236300230A4863630A4BFF21E46223643A
:10A32000704306F051FC29004143200014300BF02B
:10A330008AFD637A012B00D995E791E7DB3B0200A8
:10A34000B6030000C53B02001FB5012381881A0037
:10A35000684608F09FFF012303491A00684608F089
:10A3600099FF05B000BDC046FE0300001FB5030005
:10A3700048331A780400002A0DD000221A700123F5
:10A3800081881A00684608F085FF012304491A00F5
:10A39000684608F07FFF2000743008F0C2FF1FBD40
:10A3A000FF03000010B548300378002B06D0037877
:10A3B000012B03D00121024808F0DCFD10BDC0468E
:10A3C000FF03000010B501210400062008F0D2FDB3
:10A3D000064B984208D148342378002B04D02378C8
:10A3E000012B01D020BFF7E710BDC04616FCFFFFD0
:10A3F00073B5079C0500002C1CDB0600483630783E
:10A40000002802D03078012816D106981BB2C0B2BD
:10A410000090280012B2743008F099FF002C07D089
:10A420002B004A331C80002407234C352C803370CA
:10A43000200076BD014CFBE7014CF9E717FCFFFF5C
:10A4400012FCFFFFF0B587B00D9C06000F000292D2
:10A450000393002C20DBFFF7A5FF330048331D7862
:10A46000EDB2002D1AD1390005A808F043FF0C9B6E
:10A4700001940093029A039B05A93000FFF7B8FFEF
:10A4800005A808F02AFF002C03D03000FFF79AFF40
:10A490002C00200007B0F0BD014CFAE7014CF8E7B2
:10A4A00017FCFFFF11FCFFFFF8B50400171E1DDDB0
:10A4B000060048363378002B02D03378012B17D1B1
:10A4C0002200E3795632013B13702300002520005F
:10A4D00054331D80503008F0A1FE23004A331F8002
:10A4E000022328004C3425803370F8BD0148FCE776
:10A4F0000148FAE717FCFFFF12FCFFFFF8B5040064
:10A50000171E2DDD060048363278002A02D0327838
:10A51000012A27D15D42069BFF331FD16B1D22000C
:10A520001BB2643213802300200066331D7060303C
:10A5300008F0E8FE230000226C331A70954200D028
:10A540003D0023004A331D80079B00205A1E934183
:10A55000013F4C34053327803370F8BD069BDEE79E
:10A560000148FAE70148F8E717FCFFFF12FCFFFF7C
:10A57000F0B587B005000F00161E03931EDDFFF730
:10A5800011FF2B0048331C78E4B2002C18D139009D
:10A5900005A808F0AFFE0D9B320001930C9B05A9A6
:10A5A00000932800039BFFF7A9FF05A808F095FE7C
:10A5B0002800FFF707FF200007B0F0BD0148FBE7C8
:10A5C0000148F9E717FCFFFF11FCFFFFFF2902D844
:10A5D0004172002070470148FCE7C04617FCFFFFAE
:10A5E00013B5040004A80078009020000BF099FB3C
:10A5F000002801D1207516BD0048FCE70EFCFFFFC6
:10A6000013B5040004A80078009020000BF071FB43
:10A61000002801D1207516BD0048FCE70EFCFFFFA5
:10A620007FB50D0011000F226A4404001E1E117038
:10A6300016D0089B002B13DD012329000093FFF7A0
:10A64000DFFF002802D0074804B070BD0090089BCF
:10A65000320029002000FFF7C3FF0028F4D0F2E702
:10A660000148F1E70EFCFFFF17FCFFFFF7B50700FD
:10A670000D1E3FD00023022604690193002C35D023
:10A68000AA88A3885340334204D1324204D1AB8814
:10A69000334226D0646AF1E7A968A0680AF0CAFAD2
:10A6A0000028F4D02B88002B02D022889A42F1D1C6
:10A6B0006B88002B02D062889A42EBD1EB68E2688B
:10A6C000934201D0002BE5D17B68002B01D0200004
:10A6D0009847A288084B1343A380019B0133019341
:10A6E000D8E7A368AA689342D4D1DBE7019B200096
:10A6F000002B00DC0148FEBD0080FFFF17FCFFFFC0
:10A70000F0B5060085B00D1E5DD001270469002C50
:10A7100026D00221AA8800230A4202D0A3885B081F
:10A720003B40226829688A4214D1A068A968002B9E
:10A730000ED00AF07FFA00280CD0EB68E268934252
:10A7400008D1A3881AB2002A06DB204805B0F0BD64
:10A750008842F2D0646ADAE75B045B0CA380F4E71A
:10A7600030692A88002807D13561012318496846D5
:10A7700008F090FD0020E9E7010003001C889442E6
:10A7800006D25C6A1900002C0DD02300F6E72300E6
:10A790001C88944207D15F886C88A74203D85C6A02
:10A7A0001900002CF3D1884209D10B889A4204D3B6
:10A7B00005D148886B88984201D96962D4E74B6A11
:10A7C0006B624D62D1E70348C0E7C04616FCFFFF4D
:10A7D000FD03000017FCFFFF064B10B51A00040034
:10A7E00008322C33026083600830FEF761FA2000E3
:10A7F00010BDC046A466020008B4024B9C4608384F
:10A8000008BC6047D9A7010008B4024B9C46083831
:10A8100008BC6047BB4002000C4A002311002C32E8
:10A82000083110B5436083818373826003614361A3
:10A830008361C383016004000830FEF72BFA044BE8
:10A840001A68002A00D11C60200010BDA466020016
:10A8500008250020F7B50E00012504690192002C9F
:10A8600036D0238832889A4201D0002B23D16388C6
:10A8700072889A4201D0002B1DD1FEF77FF9012387
:10A88000002806D0C022A3881340C03B5A4253413F
:10A89000DBB2019A934219D1A7883BB2002B15DB9A
:10A8A00010223100A0180BF080FD40231F4204D07D
:10A8B000200009F00BFC646AD1E7FEF75FF900287D
:10A8C000F6D021000348FEF70BFBF4E70025F2E782
:10A8D0002800FEBDCD40020008B4024B9C4608385B
:10A8E00008BC604755420200F0B587B001930EAB3B
:10A8F0001B88060003930D9B0D000093019B0292A1
:10A900000C9F002B3CD0002F02D1009BDB0737D5DA
:10A9100028200BF017FD0400103008F0B1FC029B5A
:10A920001820258063800BF00DFD0500009B082298
:10A930000593019B002103600C3004970BF051FD3F
:10A94000082204A9281D0BF030FD0E4B02226B617A
:10A9500000230399E3602362636233680A43A560BE
:10A96000A2805B68210030009847002806D02000B4
:10A9700008F0ABFB20000BF0DAFC034807B0F0BD99
:10A980000248FBE78F42020016FCFFFF17FCFFFFA7
:10A99000F0B50400160000258380164A164B857119
:10A9A0000260218146810573186889B08C46A842EF
:10A9B0001DD0124A05950492C02202926A4604AB49
:10A9C00082CB82C223002A006146FFF78DFFC0229E
:10A9D000094B0A49186802926A46069106AB079528
:10A9E00082CB82C223002A003100FFF77DFF2000C6
:10A9F00009B0F0BDE866020008250020B943020056
:10AA000030B5002403730123034D847105608180F8
:10AA100082734373846030BD9465020070B583799E
:10AA20000400DB0702D580680BF081FCA3799B074B
:10AA300002D5A0680BF07BFCA3795B0707D5A023A8
:10AA40000021144ADB00D150A0680BF070FCA37900
:10AA50001B0708D5A568002D05D028000AF05BF972
:10AA600028000BF064FCA379DB0605D5A06800285C
:10AA700002D00368DB6898476023A2791A4205D0A8
:10AA8000A068002802D003685B6898470023A36091
:10AA9000A37170BD00700040F7B50227037B04006E
:10AAA0000D003B4226D0012926D886793E400096EB
:10AAB00014D1FFF7B3FF18200BF044FC0E2306005F
:10AAC000E3561822009901930BF08BFC019930009A
:10AAD0000BF0AEFAA379A6603B43A371A3685A6852
:10AAE000002D04D00025DB681A602800FEBD1B691C
:10AAF0001A60FAE7014DF8E7014DF6E716FCFFFF93
:10AB000017FCFFFFF7B50126037B040033422AD070
:10AB1000612385791D4017D1FFF780FF18200BF0C6
:10AB200011FC0E230700E35618220093637B2900D3
:10AB300001930BF056FC019A009938000BF066FA6D
:10AB4000A379A7603343A3716023A279A0681A4256
:10AB500002D00BF007F9FEBD436940681B6818403E
:10AB6000431E9841F7E70148F5E7C04616FCFFFF92
:10AB700070B50425037B04002B4214D083792B424B
:10AB80000DD1FFF74BFF08200BF0DCFB0E21060078
:10AB9000615605F00BFAA379A6601D43A571A06864
:10ABA00005F02AFA70BD0148FCE7C04616FCFFFF1D
:10ABB00010B50124837941731C4004D080680BF0E8
:10ABC000B6FA002010BD6022134203D080680BF05B
:10ABD000D0F8F6E70048F5E716FCFFFF70B5040073
:10ABE00000250C4B0E000833858085710360210021
:10ABF000183009F092FC20002100203009F0B0FC50
:10AC0000054BA680E5802572E56025616561200021
:10AC10001C6070BDF86602001C2500208379DB07EC
:10AC200002D5C160002070470048FCE716FCFFFF1A
:10AC30008379DB0701D5C06870470148FCE7C0464F
:10AC400016FCFFFF70B545690400002D22D0037A81
:10AC5000032B21D8FFF7ECFFA8622C200BF072FB2E
:10AC60002C22002105000BF0BCFB002263695A6214
:10AC70002369934208D1636923610020237A6561C7
:10AC80000133237270BD13005A6A002AFBD1626936
:10AC90005A62F2E70148F5E70148F3E717FCFFFFC6
:10ACA00013FCFFFF144B70B55A68144C002A03D0F4
:10ACB00000225A600132A2601A69002A17D00021CE
:10ACC00019618023DB000E4DE3582868012B0FD15A
:10ACD000A923DB00E1584942FFF7A0FF2868FFF7EE
:10ACE000B1FF2B685A69074BE2500123A36070BD86
:10ACF000FFF794FFF9E7C046FC1000400010004049
:10AD00001C2500200405000003000069002809D06C
:10AD10000221054AD167426A1A611A7A013A1A7207
:10AD2000024B19607047C04604E100E000E100E01A
:10AD300010B5002903DB024B19600BF05EF810BD63
:10AD40002025002070B504001E0004AB1D7805F01E
:10AD5000A5F820000E4B40302360FEF7A1FA230037
:10AD600001364C33013522001E701D730023E12192
:10AD70004E32A3646365138053809381D381013B7A
:10AD8000200063644902FFF7D3FF200070BDC04676
:10AD9000AC650200F7B580277F053D697C69082214
:10ADA000113C6C430600210068460BF0FEFA104B84
:10ADB000009A9A4219D000930023019379693000D8
:10ADC0001339694309F0E1FB019A0099300009F059
:10ADD000F4FB2100300009F0D8FB7969AB08133986
:10ADE00069432200300009F0DAFB0198FEBDC0463D
:10ADF000FECA0000F0B50D00A9B00D92002130226E
:10AE0000060010A80B930BF0ECFA28000BF029FBBE
:10AE1000431C0C93102B00D9B5E00B9B202B00D9C1
:10AE2000B1E02900300009F0F5FB071E50D12900E0
:10AE30000C9A10A80BF0B9FA0D990B9A14A80BF004
:10AE4000B4FA80235B051A695F690C92113F7A435B
:10AE500030005D690B92FFF79DFF30220021040056
:10AE60001CA80BF0BEFA290000270C9B133959438C
:10AE7000300009F08AFB0D9730257D430B9B08338A
:10AE8000ED18A74242DA290030221CA80BF08DFAF7
:10AE900010A91CA80BF0DBFA002827D13C49300090
:10AEA00022000E910F9409F088FB6A46099513ABB6
:10AEB00023CB23C223CB23C223CB23C23000129B3C
:10AEC0001099119A09F087FB01230D930137D3E7FD
:10AED00010300B9A0D990BF059FA040038000BF062
:10AEE00026FA002CA3D1200029B0F0BD6A460995AE
:10AEF0001FAB23CB23C223CB23C223CB23C23000DF
:10AF00001C991D9A1E9B09F066FBDFE7E543302381
:10AF1000ED1725405D430B9B08355D190D9B002BFC
:10AF20001DD10C9B3021981E05F0C4FDA0422CD0F1
:10AF300017490134300022000E910F9409F03DFBB7
:10AF40006A46099513AB23CB23C223CB23C223CB61
:10AF500023C230001099119A129B09F03CFB0B9907
:10AF6000300009F012FB80235B0559690C230C9A11
:10AF7000133963434A430233110030000B9A09F03E
:10AF80000EFB0024AFE7034CADE7034CABE7C04634
:10AF9000FECA000017FCFFFF13FCFFFF8023F0B583
:10AFA0005B051A6995B003925A6905910399113AA4
:10AFB00051435D69039B133D040002915D43FFF71C
:10AFC000E9FE061E3BD0002730220021083508A8E4
:10AFD00001950BF006FA0199200009F0D6FA0497C2
:10AFE00030237B43029D0835ED18B7421FDA290054
:10AFF000302208A80BF0D9F9059908A80BF027FA18
:10B0000000280AD11949721E20000691079209F002
:10B01000D4FA012304930137E2E70C23019A2900B3
:10B02000200009F0BCFA019B30330193F3E7049B45
:10B03000002B06D10D493200200009F0BEFA0C4861
:10B0400012E00299200009F0A0FA80235B055969FB
:10B050000C23039A13394A4373431100200002332F
:10B06000029A09F09CFA002015B0F0BDFECA00005B
:10B070000CFCFFFF70B50400A280FA220023080038
:10B080000C49920008312160A3716061E260A36005
:10B090006382094909F0BEFA051E09D001002000AB
:10B0A0001031022212300BF080F928000BF03FF92A
:10B0B000200070BD106702007773020030B50225D2
:10B0C000837987B004002B4204D1FDF7E3FDA37917
:10B0D0001D43A571200009F0E7FA00281CD06B463B
:10B0E000DD1C280009F0D7FA2B78002B17D001A817
:10B0F00009F0CFFA0321019AD3170B409B189B103C
:10B100002382FEF74FF8E368A18818180123A06096
:10B110001A0002A808F0BEF8002007B030BD0122D6
:10B12000064B1A60064A51680029FCD00021516084
:10B13000044A1268019201225A60DBE700C0004015
:10B14000FCC0004008C50040022802D10122014B8A
:10B150001A7070478128002070B5064C05002378CE
:10B16000002B04D1044802F0FFFA012323702800C9
:10B1700070BDC0468228002049B1010070B50C00A6
:10B1800007F087FE002810D00023144DA40A2B706E
:10B19000200009F09DFA002803D00A200AF0C0FF21
:10B1A000F6E72B78002BFCD070BD02210C4B0D4A2A
:10B1B00099508021C90008005D58002DFCD0A121C4
:10B1C000C9005C5019580029FCD0002199508021F9
:10B1D000C9005A58002AFCD0E6E7C0468128002062
:10B1E00000E0014004050000F8B50C0015001E0049
:10B1F00007F04FFE002811D00023174F3B7032009C
:10B200002900200009F062FA002803D00A200AF081
:10B2100087FFF4E73B78002BFCD0F8BD01210F48F5
:10B220000F4B844619508021C9005A58002AFCD07F
:10B2300080270022FF00964207DD91006858605089
:10B24000D9590029FCD00132F5E7002261465A5055
:10B25000DA59002AFCD0E0E781280020040500002C
:10B2600000E0014008B4024B9C46443808BC6047EB
:10B27000D5460200FA21F8B50389C90004005943F4
:10B28000324809F0EDFCFA21890005F013FC304F3B
:10B290002081A17A380009F0E3FC23002600250074
:10B2A00022894C33A072A0361A808C353178002365
:10B2B0002A22286808F055FE002801D02548F8BD4C
:10B2C00031781F235B22286808F04BFE0028F5D157
:10B2D000317820235C22286808F043FE0028EDD155
:10B2E000317801232C22286808F03BFE0028E5D1A4
:10B2F000317801232D22286808F033FE0028DDD1A3
:10B30000317801232E22286808F02BFE0028D5D1A1
:10B31000A17A380009F09FFC3178C3B20E22286868
:10B3200008F01FFE0028C9D1FA212389890059435A
:10B33000064809F090FC01230343DBB231782A224E
:10B34000286808F00EFE0028B9D0B7E73067020081
:10B35000286702000EFCFFFF08B4024B9C464438ED
:10B3600008BC604775B20100074B10B51A00040015
:10B3700008323C3302604364443008F0A6F92000F0
:10B3800008F0D6F8200010BD9067020008B4024B08
:10B390009C46443808BC604769B3010008B4024BBE
:10B3A0009C46443808BC6047DF460200F0B50425DF
:10B3B00083798BB004002B4204D1FDF76BFCA37999
:10B3C0001D43A57120009030FFF79CFB0026B04282
:10B3D0000FD12300A033197820000C2307AD009370
:10B3E0008C302B0001220068FFF71AF9061E03D0EB
:10B3F0002C4E30000BB0F0BD0A2304AA9B182A780B
:10B400005A706A781A700022985EAA785A70EA78A0
:10B410001A700022995E03912A795A706A791A701B
:10B4200000229F5EAA795A70EA791A7000215A5E4A
:10B4300004922A7A5A706A7A1A7000215A5E05922A
:10B44000AA7A5A70EA7A1F251A7000229B5EA27AA5
:10B4500003999C46514349425043CB172B407A43B2
:10B460005B185B11A361C3172B401818D3171D403D
:10B470006423AD18059A5B425343A3676423614676
:10B48000049A40115A434B43E2676D11221DE0615B
:10B4900025622000D36708F0BDF82000443008F092
:10B4A0001BF9A6E70EFCFFFF08B4024B9C4644388C
:10B4B00008BC6047ADB30100F7B51E00040008AB3F
:10B4C0001B881500019309AB00911A8831000AAB63
:10B4D0001F88FEF79DF820003A0031004430FEF747
:10B4E000EBFA134B20001A003C336364230008324C
:10B4F0002260009A8C331A60AB8890308380AB79DD
:10B50000019A83710B4B03210360AB6883602B7B33
:10B5100003736B7B4373AB7B83732300A0331A806D
:10B52000FFF746FB2000FFF7A5FE2000FEBDC0464A
:10B530009067020094650200F8B5FA260189B6000A
:10B5400004007143264809F08BFB310005F0B2FA84
:10B55000244F2081A17A380009F082FB2500A072D7
:10B560005835297800232A22606C08F0FAFC00285C
:10B5700001D01D48F8BD297810232B22606C08F0FB
:10B58000F0FC0028F5D1297801232D22606C08F009
:10B59000E8FC0028EDD1297801232E22606C08F008
:10B5A000E0FC0028E5D1A17A380009F054FB2978A5
:10B5B000C3B20E22606C08F0D4FC0028D9D12189D6
:10B5C0000748714309F047FB01230343DBB22978A5
:10B5D0002A22606C08F0C5FC0028CBD0C9E7C04621
:10B5E000F8670200F06702000EFCFFFF10B50400D0
:10B5F000034B0833036007F09BFF200010BDC046DB
:10B60000586802007FB50425837904002B4204D1D9
:10B61000FDF740FBA3791D43A57120004830FFF7DB
:10B6200071FA0025A8420DD123005833197806235A
:10B6300002AE009301223300606CFEF7F1FF051E9D
:10B6400003D00D4D280004B070BD0223002104205A
:10B65000F356A27ADB00715630565343C000C9003E
:10B66000514342435B42A3612368E16122629B6ACA
:10B6700020009847E6E7C0460EFCFFFFF8B504003F
:10B68000150006AA168807AA0F0012881900FDF7F0
:10B69000BFFF0F4B6764083323602300AA88483339
:10B6A0009A80AA7920009A710A4AA264AA6822653F
:10B6B0002A7B1A736A7B5A73AA7B9A730023A3713D
:10B6C000230058331E80FFF737FF2000F8BDC04627
:10B6D000586802009465020010B50400034B08335B
:10B6E000036007F0F2FF200010BDC046EC680200C6
:10B6F000F0B507005C3787B00400397800231022CA
:10B70000806C08F02EFC0326002802D01F4807B0EA
:10B71000F0BD0F2502ABED18012339780822009304
:10B72000A06C2B00FEF77CFF184B9842EED02B78D4
:10B73000334203D06420FDF747FBEAE7FA2621896C
:10B74000134DB6007143280009F08AFA310005F064
:10B75000B1F920813978A0231122A06C08F001FCF6
:10B760000028D3D1A36C21890393714328003F782B
:10B7700009F071FA01231843C3B21022390003986B
:10B7800008F0EFFB0028C2D0C0E7C0460EFCFFFF68
:10B790008C68020070B50825837986B004002B42BE
:10B7A00004D1FDF777FAA3791D43A57120004C3031
:10B7B000FFF7A8F9061E0DD023005C331978062385
:10B7C00004AD009301222B00A06CFEF729FF061E9A
:10B7D00003D0134E300006B070BD0E232A786B44A0
:10B7E0005A706A7820001A700022995E64224A43D7
:10B7F000A263AA785A70EA781A700022995E6422CD
:10B800005242514361632979597069791970002155
:10B810005B5E5A432368E2631B6A9847DAE7C046D7
:10B820000EFCFFFFF8B50400150006AA168807AA4B
:10B830000F0012881900FEF73FF90D4BA76408337B
:10B8400023602300AA884C339A80AA7920009A7139
:10B85000084AE264AA6862652A7B1A736A7B5A7393
:10B86000AA7B1E829A73FFF743FF2000F8BDC046F3
:10B87000EC68020094650200F7B5FA250189204FB3
:10B88000AD0004006943380009F0EAF9290005F029
:10B8900011F9A17A20811B4809F0E2F92600636CB6
:10B8A000A072009321895836337869433800019398
:10B8B00009F0D1F907230343DBB220220199009854
:10B8C00008F04FFB002801D00F48FEBD317810234F
:10B8D0002222606C08F045FB0028F5D1A17A0948C6
:10B8E000656C377809F0B7F980235B420343DBB21C
:10B8F00023223900280008F034FB0028E5D0E3E7D4
:10B9000020690200186902000EFCFFFF10B5040058
:10B91000034B0833036007F00BFE200010BDC04648
:10B9200090690200F0B50425837985B004002B42AC
:10B9300004D1FDF7AFF9A3791D43A571200048306C
:10B94000FFF7E0F8061E0DD02300583319780623C0
:10B9500002AD0093A8222B00606CFEF761FE061E6C
:10B9600003D0144E300005B0F0BD1F200023EA5E66
:10B97000D31703409B180222A95E5B11CA1702402D
:10B98000521804216F5E5211F9170140C91949116B
:10B990002B806A80A980A07A4343424341435B42A3
:10B9A000E36123685242A26121629B6A20009847AA
:10B9B000D8E7C0460EFCFFFFF8B50400150006AA44
:10B9C000168807AA0F0012881900FDF721FE0F4BF9
:10B9D0006764083323602300AA8848339A80AA79D1
:10B9E00020009A710A4AA264AA6822652A7B1A7307
:10B9F0006A7B5A73AA7B9A730023A371230058337E
:10BA00001E80FFF739FF2000F8BDC0469069020094
:10BA100094650200F7B5FA2504000189134EAD00C4
:10BA20006943300009F01CF9290005F043F82700AC
:10BA3000A36C208100935C373B7881B2694330006E
:10BA4000019309F008F96022C3B20199009808F047
:10BA500088FA002801D00648FEBD39780123622209
:10BA6000A06C08F07EFA0028F6D0F4E7C469020062
:10BA70000EFCFFFF10B50400034B0833036007F012
:10BA800024FE200010BDC046EC6902007FB50825E9
:10BA9000837904002B4204D1FDF7FCF8A3791D4300
:10BAA000A57120004C30FFF72DF8051E0DD02300A6
:10BAB0005C331978062302AE0093E8223300A06CB1
:10BAC000FEF7AEFD051E03D00B4D280004B070BD7F
:10BAD0000223F25E96235B425A4362630021725E48
:10BAE00020005343A3630423F25E96235343E3638E
:10BAF00023681B6A9847E8E70EFCFFFFF8B50400CF
:10BB0000150006AA168807AA0F0012881900FDF76B
:10BB1000D3FF0D4BA764083323602300AA884C335E
:10BB20009A80AA7920009A71084AE264AA6862653C
:10BB30002A7B1A736A7B5A73AA7B1E829A73FFF759
:10BB400069FF2000F8BDC046EC6902009465020060
:10BB500010B50400054B083303601C3007F0FFFAF2
:10BB60002000183007F0FBFA200010BD186A020010
:10BB7000FF23F0B52C4D8DB02B70002304006946D7
:10BB80000088009303F05EFA002802D16B469B7890
:10BB90002B70264E3368DB68002B07D100232088EA
:10BBA0001A00190008F00BFE0DB0F0BD2B78032B26
:10BBB000F4D81F4901A8FDF739FB336801A9DE68F5
:10BBC00004A807F023FB04A9300008F056FD002765
:10BBD000060004A807F0C3FABE421ED0310020229E
:10BBE000103104A80AF0E1FB30000AF0A0FB29782C
:10BBF00004ABC9005918082202A80AF0D6FB208815
:10BC00000123082202A908F0DAFD0137002804D137
:10BC10002088084A0C2108F0D0FD01A807F09FFAFF
:10BC2000002FBBD0C0E7C046802000203025002078
:10BC30000A740200FFFF0000F0B5837991B00400A0
:10BC40005B071BD5FDF7AEFA00232269801A9941E4
:10BC5000994203D1F423FF3398420FD9A0680028FA
:10BC600008D0364B1D8809F073F8036815221B6A4B
:10BC7000290098470422A3799343A371A3799B07D2
:10BC800059D52F4D2B68DB68002B50D02D4B1B78DE
:10BC9000032B4CD8294B2C491B8804A80193FDF792
:10BCA000C5FA2B6804A9DE6808A807F0AFFA08A94E
:10BCB000300008F0E2FC070008A807F050FA02ABD9
:10BCC0009E1D08233200338006A9073B019808F027
:10BCD00078FD002F08D039002022103108A80AF082
:10BCE00064FB38000AF023FB164B32881B7806A948
:10BCF000DE0008AB9E1930000AF048FB002813D084
:10BD0000082206A930000AF050FB2B6804A9DD6860
:10BD100005A807F07BFA202308AA05A9280008F047
:10BD2000B2FC05A807F01BFA04A807F018FA0222D3
:10BD3000A3799343A37111B0F0BDC0462A28002017
:10BD400030250020802000200A740200F7B5089EEC
:10BD50000500152922D8012007008F40244C2742D6
:10BD60001CD0E97FCC181F2C41DC69183418A14283
:10BD700010D80021C8B2834204D9545C7018847072
:10BD80000131F7E732789A183270EA7F9B18EB7727
:10BD900000202CE00878C8540139E8E73478013CE9
:10BDA000E4B2A34208D10023D9B28C42F0D9D05CCE
:10BDB000F11888700133F7E7EF7F0120FF183F1B70
:10BDC0001F2F14DC0227A01C7F423618381B01905D
:10BDD000E87F2F18BE4204D23078019FF05501361B
:10BDE000F6E7041B023CEC77280008F034FDFEBDAA
:10BDF000FC002000F0B5040085B001930AAB1E885A
:10BE00000BAB1B78451C02930EAB1B7817000393FA
:10BE10000B78102203704B8A0131438228000AF00C
:10BE2000C4FA268300260122019B67616383039B7A
:10BE3000E6832377029B2000EB77A31CDA770C9B29
:10BE40000C25636223000D9A28331A705E709E7071
:10BE50002A0031002C300AF0C4FA2000064BE663B9
:10BE6000A3632A00310040300AF0BBFA2000034BE4
:10BE70002665E36405B0F0BDD9470200CB47020058
:10BE800070B50D0008F064FF04000368002D09D1AF
:10BE90005B699847FA2080006843074904F00AFE6E
:10BEA000E08070BD9B6898478542F3D223682000EC
:10BEB0009B6898470500EDE771020000F0B50700A8
:10BEC0001600A1B002C704006B4918A81D0008F0B5
:10BED00009FD331E03D030000AF0C3FA83B20122F9
:10BEE00004920022039202920232019200933200E5
:10BEF00018A93800FFF77EFF23006049583318A8BF
:10BF0000079308F0EFFC2B1E03D028000AF0A9FAD3
:10BF100083B2012204920022039202920232019221
:10BF200000932A0018A90798FFF764FF23005449DB
:10BF3000AC3318A8089308F0D5FC269B002B03D03F
:10BF400018000AF08EFA83B20122049200220392B2
:10BF50000292023201920093269A18A90898FFF7DC
:10BF600049FF631CFF33474918A8099308F0BAFC3E
:10BF7000279B002B03D018000AF073FA83B201222A
:10BF800004920022601C03920292023201920093FA
:10BF9000279A18A9FF30FFF72DFF23005533FF33F1
:10BFA000394918A8099308F09DFC289B002B03D061
:10BFB00018000AF056FA83B201220492002203927A
:10BFC0000292023201920093289A18A90998FFF769
:10BFD00011FF2300A933FF332C4918A80A9308F056
:10BFE00081FC299B002B03D018000AF03AFA83B297
:10BFF00001220492002218AD0392029202320192B1
:10C000000093299A29000A98FFF7F4FE204B1B7829
:10C010000B93002B2CD1079B12971393089B0DAF0A
:10C020001493631CFF331593099B1A4916930A9BBB
:10C030003800179308F056FC1D2149203B78102248
:10C040002B707B8A12AE6B8206ABC918C0180AF03F
:10C05000ACF906232B750B9B2068AB83AE6108F00F
:10C060007BFE036829001B6898470122084B1A7061
:10C07000200021B0F0BDC046292A0000242A00007B
:10C08000252A0000272A0000262A0000282A00006E
:10C09000832800200A18000070B5002504000B4B0F
:10C0A0008580083385710360C1601830FDF7F8F8AA
:10C0B00020001C30FDF7F4F80123621CD377044AFA
:10C0C000A560656120001460A37170BD186A02004C
:10C0D00030250020FA2130B585B005000123022269
:10C0E0008900684607F0D6F8074C2068002809D078
:10C0F00008F031FC2988054B2268198002239179C8
:10C100000B43937105B030BD302500202A28002054
:10C1100010B50C0007290DD8806808F019FE064BF1
:10C12000195703685B6C9847431E9841034B404284
:10C13000184010BD0248FCE70274020016FCFFFF25
:10C1400017FCFFFFF0B5A44C0D00A54404000793B5
:10C150009AAB1B78A14909A804930692FDF766F8EB
:10C16000200029001C3007F059F8C020800001F0A1
:10C17000F1FA08200AF0E6F80600002100F0AEFE11
:10C1800015ADA66000210C220EA80AF02AF92B009A
:10C190000EAA83CA83C3924B2900EB6000233000B0
:10C1A0002B6108F0BEFDA06808F0D2FD0822002136
:10C1B000059016A80AF015F914200AF0C3F8290012
:10C1C0000200884B1593C8C9C8C2874B059EC3603F
:10C1D0000023A43603613368002B00D0F5E0306003
:10C1E000A06808F0B9FD08220021060016A80AF090
:10C1F000F8F814200AF0A6F87C4B1593030086CDBE
:10C2000086C37B4BC36000230361336B002B00D0DC
:10C21000DDE03063A06808F09BFD082200210500E6
:10C2200016A80AF0DEF814200AF08CF8714B15AE4F
:10C230001593030086CE86C36F4B9835C3600023E9
:10C2400003612B68002B00D0C3E02860012504ABFC
:10C250001B7C04AA2B4308A92800137408F0B3FA26
:10C26000A06808F07DFD036864495B6A9847A06890
:10C2700008F076FD036862499B699847A06808F05A
:10C280006FFD002302680093166804992A00B047E6
:10C29000049B002B0AD0200008F066FB032805DD74
:10C2A000A06808F05DFD0368DB6898470EA808F0F9
:10C2B000C9FA2F2004ABC01808F0C4FA362004AB2A
:10C2C000C01808F0BFFA3D20042504ABC01808F0E0
:10C2D000B9FA0EAB0A93A06804AB5D7708F040FD95
:10C2E00003680AA91B699847A06808F031FD036834
:10C2F0000AA95B6D9847A06808F02AFD0368002131
:10C30000DB6D9847A06808F023FD036802219B6D50
:10C31000984700212000FFF7FBFE18200AF012F8D2
:10C32000A16800F055FA374B374A1B68A1680393A0
:10C33000364B15A81B6800260293354B0CAF1B68C3
:10C340000193069B1B685B190093324B12681B68B4
:10C35000FFF7B4FD302009F0F5FF079AA16800F05F
:10C36000F7FAA06808F0F4FC036839009B6A984764
:10C37000294BBE80A0680C9308F0EAFC03683900E2
:10C38000DB6A98472900A06808F0B8FA099A0921E1
:10C390009378A068521908F0C4FAA06808F0D8FC95
:10C3A00032210671A068FFF76BFD04AB1B7FB3421F
:10C3B00004D0A06808F0CCFC08F08AFA09A806F0BE
:10C3C000CEFE95239B009D44F0BD036107E703610A
:10C3D0001FE7036139E7C046ACFDFFFFEF740200C1
:10C3E000E7470200D5C00100F547020071BB01001C
:10C3F0000348020031480200114802001DC4010038
:10C4000051C401002C2500202825002008200020F0
:10C41000242500200C2000200800100013B506225F
:10C420006846FCF713FF094B1C68002C0AD06946CC
:10C4300001A806F0EBFE200001A908F0B6FA01A859
:10C4400006F08DFE684606F08AFE13BD30250020FA
:10C45000002373B501AE0C0031000500019302F01A
:10C46000F1FD002802D1B278064B1A70064B18680D
:10C47000002806D061426141044BC9B21D8008F01A
:10C480009CFA73BD80200020302500202A2800203F
:10C4900030B5284CA9B06A220D000DA8210009F082
:10C4A00084FF0DA903A8FCF72FFF03A906A806F037
:10C4B00021FF01230193013BFF3B00930533FF3331
:10C4C000642206A92800FEF753F806A806F005FF27
:10C4D000210019226A3106A809F067FF052200240D
:10C4E000110006AB04A806F02CFF04A905A806F06D
:10C4F00001FF019400942300220005A92800FDF704
:10C50000A1FF05A806F0E9FE21002800FEF75EF86D
:10C5100005340520FCF758FCFF2CF5D1FA208000EB
:10C52000FCF752FC04A806F0D8FE03A806F0D5FEDE
:10C5300029B030BD7F730200F0B59C4B95B00592D9
:10C540001A68082304000391D16C06A80B43D36436
:10C550009749FCF76BFE974907A8FCF767FE220096
:10C5600000250DAE30001C3206A906F066FE07AAB3
:10C57000310008A806F061FE300006F0F0FD631CF3
:10C58000DD77A06808F0E4FB03680BAF5B699847B0
:10C59000300008F057F92B2004ABC01808F052F90E
:10C5A000322004ABC01808F04DF9392004ABC01894
:10C5B00008F048F98023DB00BB80A0680B9608F0E8
:10C5C000C7FB036839005B6D9847A06808F0C0FBA3
:10C5D000036829009B6D9847A06808F0B9FB070025
:10C5E00006000A371F222900380009F0FAFEFD77FD
:10C5F000300008F064F90621A06808F07FF9089A75
:10C6000009219378A068043208F08BF9A06808F03B
:10C610009FFBC8210571A068FFF732FCA06808F0F5
:10C6200097FBFF272E000581A06808F091FB08F01A
:10C630004FF90398FDF79AFE2000FCF72BFB0399B6
:10C640002000FFF725FF0399200008F0C9F90495A1
:10C65000012563691D402DD0574909A8FCF7D2FE7A
:10C6600009A90AA806F046FE00220AA913000192B1
:10C6700000920398FDF7E6FE0AA806F02EFE049B42
:10C68000002B42D1043F282F41DD0025FE2F00DC86
:10C69000049D059807F005F8002806D0012362697B
:10C6A0009A431300042213436361002609A806F08D
:10C6B00014FE049504226369134233D0FF210398CA
:10C6C000C826FDF783FF0025B600A36902229B5E02
:10C6D000AB4222DD200029B2183006F0C4FD002351
:10C6E000010003981A007430FCF7DCFE3000FCF700
:10C6F0006BFB039807F028FCC820FCF765FB0222BF
:10C700006369134209D10135DFE70437BBE70398BA
:10C7100007F01AFC002FBCDDBAE7FA208000FCF716
:10C7200053FB0026022365691D421CD006331D40C1
:10C7300024D0224909A8FCF765FE09A90AA806F039
:10C74000D9FD00220AA90192009213000398FDF777
:10C7500079FE0AA806F0C1FD1948FCF735FB09A8C7
:10C7600006F0BBFD174E6420FCF72EFB164B01367E
:10C770009E4200DC6CE706F09EFB69E7134909A8BE
:10C78000FCF740FE09A90AA806F0B4FD2B002A0018
:10C790000AA9019500950398FDF754FE0AA806F032
:10C7A0009CFD09A806F099FDDDE7C046B4240020F1
:10C7B0001674020026740200287402006D740200D0
:10C7C000983A00008C0A00008B0A0000AA7402004C
:10C7D0000022594BF0B50833060003600F0010002B
:10C7E000A9B0B1600BAB991801324870102AFAD188
:10C7F0000F3A524C1A700E32105D991A0874013AB1
:10C80000FAD2997B5A7B09020A4331000C31039119
:10C8100025211B7813AD2B7002ABC918452302A844
:10C820001B186A821800102209F0BFFD039B6421C7
:10C830006B610123002402AA2B7752181993093344
:10C8400013701DAB1C706D2302AA9B181C706E2305
:10C8500021009B181EA80C22EC836C621C7009F04E
:10C86000C0FD374B0C22210023A8AB63EC6309F019
:10C87000B8FD344B02AAEB6446239B180322DA77F7
:10C8800022002C650595347306AD2B1901345A70BE
:10C89000102CFAD101232C482B700E33195CEA1AA4
:10C8A0001174013BFAD211212520AA7B6B7B120265
:10C8B0000BAC13432A78638202ABC9182270C018EC
:10C8C000102209F072FD0123237505ABA36100233B
:10C8D0003800A38308F040FA036821001B689847DA
:10C8E00013ABDB8BB068B38208F036FA0022036822
:10C8F0000092B18A039ADC680123A047B06808F06F
:10C900002BFA0700142009F01DFD0022012304006A
:10C910000261069240C008322900079309F045FDE4
:10C920000A4BE360BB69002B03D13000BC6129B026
:10C93000F0BD2361F9E7C046306A020013750200BA
:10C94000D9470200CB47020023750200414A02008A
:10C95000F0B500260400724BDDB00833036081603F
:10C96000C2608680867132006E4947A808F008F9D7
:10C9700023001433012504270893122300970495FC
:10C980000193089A330047A9039602961DA8FFF762
:10C9900031FA3200644947A808F0F2F80C2322006B
:10C9A0000097103215AF0495019347A93300039601
:10C9B000029632A8FFF71EFA32005C49380008F0F0
:10C9C000DFF821001C31099104230821049501910D
:10C9D000009339003300099A0396029647A8FFF79F
:10C9E00009FA32005249380008F0CAF8542009F018
:10C9F000A9FC210012220423183107910495019209
:10CA000000930A0033003900039602960690FFF760
:10CA1000F1F9069A474B1000A262D4620AA90822D3
:10CA200030300A930B9609F0C0FC434B069A0999E3
:10CA300093632932157026610422E661079809F094
:10CA4000B4FC04220799089809F0AFFC662203237E
:10CA500004A95218D377BA225218D37787225200EA
:10CA60005218D377069A35490232D3771DAA0C9211
:10CA700032AA0D9247AA0E92069AA6850F9210A886
:10CA8000320008F07DF83021452004AA52181378AE
:10CA9000123104AA3B705218138811397B8204ABFF
:10CAA0001022C918C01809F080FC04230CADA0683E
:10CAB0003B75BD61BE8308F04FF9036839001B6800
:10CAC0009847822204AB9B181B885432238404AB02
:10CAD0009B181B885432A38404AB9B181B88A06846
:10CAE000638408F039F90700142009F02BFC0500D5
:10CAF000134B0661082210C010A91093119609F07B
:10CB000054FC104BEB60BB69B34206D1BD61200001
:10CB1000FCF7C0F820005DB0F0BD2B61F6E7C04621
:10CB20003C6A02005375020033750200437502002F
:10CB300063750200534B0200BF4A02007375020086
:10CB4000B1CB0100E94A0200F0B504000E00150067
:10CB500085B01F000CAB1B881030019306F090FBD2
:10CB600026806580182009F0EDFB02AE0500330039
:10CB70000AAA03CA03C32F602800082700213A002D
:10CB80000C3009F02EFC3A003100281D09F00DFC94
:10CB9000064B02226B61200000230199A5600A4325
:10CBA000E360A2802362636205B0F0BD134B020014
:10CBB000F0B50B898DB00593CB68050004934B88C5
:10CBC000828C9A420ED1049C049B059A9B181B1BD5
:10CBD000032B39DD62882188012308A806F05AFB5F
:10CBE0000434F1E7428C9A422ED1049C049B059AAE
:10CBF0009B181B1B032B27DD2388282006936388A3
:10CC0000EF680793114B08930023099309F09AFBEF
:10CC1000C0236A460600029308AB03CB03C22B0075
:10CC20000699079A3000FFF78FFF3B6831005B6879
:10CC300038009847002805D0300006F046FA30004A
:10CC400009F075FB0434D1E70DB0F0BDD14B020003
:10CC500070B5040090B0806807F0B5FF0221014074
:10CC60001AD1A38D002B17D00C4B6A4604931023C6
:10CC7000E568A1850591029304AB41CB41C20A004E
:10CC8000230006A8FFF760FF2B6806A99B68280011
:10CC9000984706A806F019FA10B070BDD14B0200F3
:10CCA000002815D0006041608260C3600461456166
:10CCB0008661C761444604624C46446254468462BD
:10CCC0005C46C462644604636E464663744684638D
:10CCD000002A06D0C46B043C043A25681560B442AF
:10CCE000F9D18C6BA6464E6BB546002B06D0CC6BAB
:10CCF000043C043B1D682560B442F9D10C6BA4468A
:10CD0000CC6AA3468C6AA2464C6AA1460C6AA0462D
:10CD1000CF698E694D690C69CB688A680868496873
:10CD20007047006041608260C36004614561866154
:10CD3000C761444604624C464462544684625C4681
:10CD4000C462644604636E46466374468463C46B7F
:10CD5000043C043925680D60B442F9D1C76986697D
:10CD6000456904697047006041608260C360046186
:10CD700045618661C761444604624C46446254463C
:10CD800084625C46C462644604636C4644637446D1
:10CD9000846304697047846BA646446BA546046BA4
:10CDA000A446C46AA346846AA246446AA146046AA9
:10CDB000A046C769866945690469C36882680068D6
:10CDC0004168704710B5041E0CD009F04AFB431EA1
:10CDD000E3189C4208D222781978013B21705A70DE
:10CDE0000134F6E7014810BD0020FCE717FCFFFF07
:10CDF000F0B585B002900C1E2AD00023C217161A77
:10CE000056400193019B30005D1C63190A215F1E8F
:10CE1000039303F0BFFF49423031397030000A21DB
:10CE200003F0D2FE47420600002F0FD1029B002BD9
:10CE300004DA2D23019D039A02351370002320008C
:10CE40006355FFF7BFFF380005B0F0BD0195D9E786
:10CE5000004FF8E717FCFFFF0268084B406810B569
:10CE6000C018C000101803009A4205D81C688C42F4
:10CE700002D31800083BF7E710BDC046FFFFFF1FB5
:10CE800070B5002817D1114D2E68002E11D1083031
:10CE900009F058FA066046600D4E04003368002B16
:10CEA00002D108F090F9306023682C609B00F358A1
:10CEB0006360286870BD0122064907480B6813406B
:10CEC000F8D1026043600A60F4E7C04638250020CC
:10CED00044250020342500203C250020002370B587
:10CEE00004000160436099420AD1064D2B68002B73
:10CEF00002D108F068F9286023689B00EB58636052
:10CF0000200070BD44250020436810B50400002BAC
:10CF100002D1044809F04CF8606803681B6998471F
:10CF200010BDC04683750200436810B50400002B95
:10CF300002D1044809F03CF8606803689B6998478F
:10CF400010BDC04683750200436810B50400002B75
:10CF500002D1044809F02CF8606803685B6A9847BE
:10CF600010BDC0468375020000487047FFFF0000F7
:10CF7000F0B597B00593036807AD1B680491039360
:10CF800011002B00060091C991C30024D368210031
:10CF90000C220CA8EB602C6109F023FA22000B4B49
:10CFA00010940F9311AB1C70191901344A70102C96
:10CFB000FAD15A820193059B2A00009304990CAB85
:10CFC0003000039CA04717B0F0BDC0467F4E020062
:10CFD00070B5FC30046C0500002C0DD1242009F044
:10CFE000B1F9064B44608361054B8460C460046101
:10CFF0004461C46103602864286C70BD286B020022
:10D00000106C020070B5FC30C56B0400002D11D10E
:10D01000342009F097F9084B85604360074B456160
:10D020000361074B0562C361064BC5628362064B11
:10D03000E0630360E06B70BD586B0200486B020058
:10D04000B86B0200C86B0200D86B02007FB5037991
:10D050001548002B22D0154E154C33782000002B9C
:10D060001CD102AD280007F0E7FE002810D16B8824
:10D07000592B0DD12B78AA88D91F012910D80092DD
:10D080000C4A2021200005F093FB0123337004E0BB
:10D0900020220949200009F0EBF9200004B070BDFE
:10D0A0000092064AEDE7C046A6750200A4280020BB
:10D0B00084280020C8750200C0750200E5750200D2
:10D0C00010B50400024B08C007F096FF200010BD09
:10D0D000486B020010B50400024B08C007F0A1FF26
:10D0E000200010BD586B0200064B70B504000360B1
:10D0F0004068002804D0056909F019F92800F8E70C
:10D10000200070BD386B0200064B70B50400036050
:10D110004068002804D0056909F009F92800F8E7FB
:10D12000200070BD686B0200064B70B50400036000
:10D130004068002804D0056909F0F9F82800F8E7EC
:10D14000200070BD786B0200064B70B504000360D0
:10D150004068002804D0056909F0E9F82800F8E7DC
:10D16000200070BDB86B0200064B70B50400036070
:10D170004068002804D0056909F0D9F82800F8E7CC
:10D18000200070BDC86B0200064B70B50400036040
:10D190004068002804D0056909F0C9F82800F8E7BC
:10D1A000200070BD5C6A0200064B70B5040003608D
:10D1B0004068002804D0056909F0B9F82800F8E7AC
:10D1C000200070BD6C6A0200064B70B5040003605D
:10D1D0004068002804D0056909F0A9F82800F8E79C
:10D1E000200070BD7C6A0200064B70B5040003602D
:10D1F0004068002804D0056909F099F82800F8E78C
:10D20000200070BD8C6A0200064B70B504000360FC
:10D210004068002804D0056909F089F82800F8E77B
:10D22000200070BD286B020070B5FC30046C050056
:10D23000002C0DD1242009F085F8064B4460836151
:10D24000054B8460C46004614461C4610360286468
:10D25000286C70BD286B0200106C0200104B10B5DA
:10D26000083303600F4B0400C36080230E4A5B0049
:10D27000C250C018FCF750FF20000C4BB830E360E0
:10D28000FFF7B2FF2000AC30FFF79EFF2000A03078
:10D29000FFF78AFF20006C30FFF776FF200010BDFB
:10D2A0003C6C0200B46C0200DC6D02009C6A02005F
:10D2B000F8B505000400AC356B68AB60A8680028C1
:10D2C00007D0C36821009847AB68002BF4D01B69D6
:10D2D000F3E72500B0352868002804D0066909F076
:10D2E00026F83000F8E72200FC2128605832137835
:10D2F0000B40137023005C33187020000A3007F0D5
:10D3000059FF2000343007F055FF606E002804D02C
:10D31000056909F00CF82800F8E7250098356066E3
:10D320002868002804D0066909F001F83000F8E701
:10D330002600A43628603568002D05D02F69280006
:10D3400008F0F5FF3D00F7E72000356029000C22CA
:10D350006C3009F046F82000074BE567A367290009
:10D360000C22803009F03DF82300044A8C339034BD
:10D3700028001A602560F8BD634E0200554E020079
:10D38000444AF0B50600C260A022434B163608336B
:10D3900003600100002342820400320085B0037163
:10D3A0008360037483823531137001329142FBD163
:10D3B000802580222000AD00D201F3773584110052
:10D3C00000933830002300F035FF23002100403364
:10D3D00003931A002B0000255F31157001328A4239
:10D3E000FBD1039AFC21D577220060321380137998
:10D3F00020000B401371230068331D70274B2567F5
:10D40000E3660C220021783008F0EBFF23002700B0
:10D4100088331D60224B0837FB67843700210C22BC
:10D42000380008F0DEFF1F4B1F4AFB602300A033CB
:10D430003D611A601D4A5D60DA601D4A1D619A6196
:10D44000DD61300007F0B6FE039807F0B3FE194B1C
:10D45000601CE3602300C4331D705D709D70FF305D
:10D4600002F052FD8C235B00E55023001933FF339B
:10D470005D618023104A5B00E250230001222000FE
:10D48000FE3352425A86023B9D63DD631D6405B044
:10D49000F0BDC0469C6A02003C6C02005C6A02005F
:10D4A000634E0200554E02006C6A02007C6A020064
:10D4B0008C6A0200B46C0200DC6D020070B5074C8F
:10D4C0002368002B07D1A020400008F03BFF050097
:10D4D000FFF756FF2560206870BDC0464825002034
:10D4E00070B50C220D000021040008F07AFF002323
:10D4F0002361024B25602000E36070BD714E020085
:10D5000070B500250400254B85800360244BC56061
:10D510008360244B85614361234B45620362234B47
:10D520000563C362224BC563836329004430FFF760
:10D53000D7FF200029005830FFF7D2FF2000290034
:10D540006C30FFF7CDFF1B4B22002360230080329D
:10D55000F83320C29342FCD126001D00E936FF3685
:10D56000280008220021083508F03BFFAE42F7D121
:10D570008E2300229B00E11804C6B142FCD18E2309
:10D5800000219B00E2540C4B0C4AE318A2181980AE
:10D5900002339A42FBD1200070BDC046886B020066
:10D5A000386B0200486B0200586B0200686B020087
:10D5B000786B0200846C02003A02000062020000F4
:10D5C00010B5040002F0C6F9034B1B68002B01D014
:10D5D0002000984710BDC04650250020F0B58BB004
:10D5E000050001F06FFB0020FFF768FF03680700EC
:10D5F0001B6998473B6804009B69380098473B6863
:10D6000006005B6A380098470300288810380B280A
:10D6100061D803F045FA063D6060605A606060665C
:10D620006078AF882000390008F0C9F922006B7BD0
:10D63000583201931378A8799C46022361460B4324
:10D64000137004AB1F80012304AA93701300D070E1
:10D65000019AE91D9A722B000622163305A8099338
:10D6600008F0A3FE29000B2004AB06220E31C018DF
:10D6700008F09BFE94346368A360A06800282AD059
:10D68000C36804A99847A368002BF4D01B69F3E78B
:10D6900020002F49AF8808F092F92200022058326A
:10D6A0001378A9798343137004AB1F809970A03459
:10D6B0006368A360A06800280DD0C36804A99847D8
:10D6C000A368002BF4D01B69F3E75B69A888A91D48
:10D6D000002B00D098472900300007F0D6FE0BB091
:10D6E000F0BD636E002BF6D0AF79A366A06E002864
:10D6F000F1D0C36839009847A36E002B01D1636E47
:10D70000F3E71B69F1E7012269460D27AB7BEF5771
:10D710001A4001925A07920FDB080A720B73062215
:10D72000E91D04A808F041FE019A04ABDA716A46CB
:10D73000127A9F711A726A46127B20005A722B006D
:10D740000F3307938C348030236804A99847C2E7CD
:10D75000FFFF00000723D72802D9024B18600023DF
:10D76000180070474C250020014B18607047C046D8
:10D77000502500201FB58022A323D205DB00D358FB
:10D780000820DB0700D405301C4B48221C4900F060
:10D79000D9FD00280AD080B2002807D1BFF34F8FEF
:10D7A000184B194ADA60BFF34F8FFEE7002302A837
:10D7B000029301330370154B1B68436007F089FD2A
:10D7C000002802D0072005B000BD684607F07FFDA5
:10D7D0000028F7D1694607F078FD0028F2D10C48FF
:10D7E00000F0E0FD80B20028EDD10A4800F0E4FD31
:10D7F00080B20028E7D100F06FFCE4E7D7520200C6
:10D800005425002000ED00E00400FA054C2500201E
:10D81000DDD50100C1D5010080B2002807D1BFF3DA
:10D820004F8F034B034ADA60BFF34F8FFEE7704719
:10D8300000ED00E00400FA0513B504680093A46845
:10D8400013000A000149A04716BDC046FFFF0000B3
:10D8500037B506AC25780468019500932469130058
:10D860000A000149A0473EBDFFFF0000F0B587B0A8
:10D870000D00002469466F4616004C800DAA0CA9C5
:10D880000988127839800193A2421BD101004479A2
:10D89000F83194420DD908310F00083F3F88B74254
:10D8A0001BD130212032920012580132D27F0A421D
:10D8B00015D16A463100280007F015FD002808D16F
:10D8C000062407E06A463100280007F00CFD002816
:10D8D00000D00324200007B0F0BD0132D9E71021A9
:10D8E0000A4051424A41002002ACE3600CABA36005
:10D8F000174B01322680A270A0809D4207D1FFF70E
:10D90000DDFD03681B69984708F05CF805002100FD
:10D91000280007F0ECFC002482B2A242DAD0112ADF
:10D9200013D00BD8082ACBD06A463100280007F064
:10D93000DAFC05240028CDD0023CCBE7054B9A4207
:10D9400003D0054B9A42EFD1BAE70524C2E7C0469F
:10D95000FFFF00000330000001340000F0B50500B7
:10D9600099B008002E240C9100F0E0FB06ABE418FF
:10D970001290220012A9012007F0B3FC002802D067
:10D98000032019B0F0BD23880C9A0B9093830C9B55
:10D990000B9A1B7D934200D8C6E06B791D2B01D9F1
:10D9A0000720EEE70C9B9B690D930B9B0D9A9B0048
:10D9B0009C586369002B07D1638B002B04D1631C37
:10D9C000DB7F022B00D1AAE0200000F0AFFB230098
:10D9D0000026283312900E960D960F930F9B1B78FE
:10D9E000B34221D9626AB3009F58342206AB9B1818
:10D9F00000221A700023002113AAD218013351709B
:10DA0000102BF8D1462206AB9B184A4A13A93800BE
:10DA10001A8007F0EBFC002803D07B690D937B8B09
:10DA20000E930136F6B2D9E76979A31C1F31C900FC
:10DA30006918621CDB7FD27F089121002A310978A6
:10DA40000020079121002931097806910E9905914E
:10DA50000D990491217F0391218B0291618B01919A
:10DA60006169009112A907F0EBFF002800D087E759
:10DA70006B7907001A00203292001F335451DB00EB
:10DA80005B5BE3836B7901336B71230028331B7875
:10DA9000BB4244D98E239B00EB5C132B00D97FE75C
:10DAA000626ABB009E580023180013A90B70CA18A5
:10DAB00001335070102BFAD11E4B30004B8207F00F
:10DAC00095FC0D90002827D1300000F02FFB8E210F
:10DAD00089006A5C738B1E32FF325200AA180292D0
