:020000021000EC
:10800000004000201D030200590302005B03020030
:108010000000000000000000000000000000000060
:108020000000000000000000000000005D030200EE
:1080300000000000000000005F0302006103020076
:10804000630302006DAE01005D0A020063030200DB
:1080500063030200000000001D040200630302002D
:1080600063030200E10C0200E50802006303020062
:108070006303020063030200630302006303020060
:108080006303020063030200630302006303020050
:1080900063030200A9E7010085E701006303020012
:1080A0006303020063030200000000000000000000
:1080B00000000000000000000000000000000000C0
:1080C00010B5064C2378002B07D1054B002B02D0AE
:1080D000044800E000BF0123237010BDB020002041
:1080E00000000000A47B0200044B10B5002B03D05D
:1080F0000349044800E000BF10BDC0460000000076
:10810000B4200020A47B0200164B002B00D1144B9E
:108110009D46402292029A1A924600218B460F46B3
:108120001348144A121A0EF0CDFB0F4B002B00D04F
:1081300098470E4B002B00D09847002000210400E8
:108140000D000D48002802D00C4800E000BF0AF0E6
:108150001FFD200029000EF05AF90AF003FDC04669
:1081600000000800004000200000000000000000A7
:10817000A8200020502A002000000000000000007D
:1081800070B5054D2C007034103C236820009B68AE
:108190009847AC42F8D170BD2C21002070B5054D38
:1081A0002C005034103C236820009B689847AC4258
:1081B000F8D170BDDC20002070B5054D2C003034A6
:1081C000103C236820009B689847AC42F8D170BDF2
:1081D0009C21002010B50400034B036040300BF0DD
:1081E000EEF9200010BDC0468C6A02008B888380A7
:1081F0008B798371054B03608B6883600B7B037302
:108200004B7B43730E23CB5683737047746A020013
:10821000F7B501265E4D2C68344027D15D495E4894
:10822000FFF7E4FF5C485D491030FFF7DFFF5A4875
:108230005B492030FFF7DAFF57485A493030FFF7E3
:10824000D5FF554858494030FFF7D0FF52485749AD
:108250005030FFF7CBFF504855496030FFF7C6FF5D
:10826000544A554920002E600EF0D6FA0127534E8D
:1082700035683D401ED1524C52492000FFF7B6FFF1
:10828000200051491030FFF7B1FF20004F49203046
:10829000FFF7ACFF20004E493030FFF7A7FF20006A
:1082A0004C494030FFF7A2FF424A4B492800376053
:1082B0000EF0B2FA0127494E35683D4014D1484CC2
:1082C00048492000FFF792FF200047491030FFF790
:1082D0008DFF200045492030FFF788FF354A44498B
:1082E000280037600EF098FA0126424D2B68334281
:1082F0000AD1414C41492000FFF778FF2D4A4049FF
:1083000020002E600EF088FA0024234B200118185C
:108310000021013402F0A4FC072CF6D10025394ECF
:108320001D4B2F01DB19012118000193002402F0DD
:1083300097FC23482301C01802F0FEFC0E23634380
:108340000134F052052CF4D100240121244F2140A6
:10835000380002F085FC38006110103002F080FC1B
:1083600038000021203002F07BFC234802F0E4FCBE
:108370000E23634301344633F052042CE5D100212F
:108380000198013502F06CFC0236072DC8D1F7BD0B
:10839000D02000204C2400202C2100205C24002030
:1083A0006C2400207C2400208C240020AC2400209D
:1083B000CC2400200020002081810100CC2000205E
:1083C000DC2000202C240020FC2300203C24002062
:1083D0000C2400209C2400209D810100D42000203A
:1083E0009C210020DC240020EC240020FC24002020
:1083F000B9810100D8200020CC2100201C240020BD
:1084000095310200B0280020F0B589B002903148C3
:1084100003910492059300250BF0BCFF0224FFF7A3
:10842000F7FE2D4BEE180E335B19019333882B4F5B
:108430002B49092B07D92B49632B04D92A4A2B49ED
:10844000934200D92A4907A800F0D4FF220007A9C7
:1084500038000CF0F7FA07A80BF0B1F8318807A83C
:108460000BF0CAF81D4F220007A938000CF0EAFAF9
:1084700007A80BF0A4F8019B02369E42D6D11D4EF0
:1084800007A8310000F0B6FF220007A938000CF061
:10849000D9FA0E3507A80BF092F87E2DC1D11649F6
:1084A00007A800F0A7FF022207A938000CF0CAFABB
:1084B00007A80BF084F8310007A800F09BFF022208
:1084C00007A938000CF0BEFA07A80BF078F809B03D
:1084D000F0BDC046F4220020B02800200822002071
:1084E0004075020041750200E7030000427502007A
:1084F00043750200467502004B75020037B50C4CFF
:10850000200000F073F80B4D0B492A0020000EF0FC
:1085100083F90323094C00930A22023B0021200027
:1085200001F076FB2A00064920000EF075F937BDF0
:10853000042200200020002045850100DC210020CD
:10854000F99B0100CA23144A9B0010B5C2501C338A
:108550000400C0180BF033F8D0239B00E0180BF098
:108560002EF820009130FF3001F046FB20006930EA
:10857000FF3001F041FB2000F03001F0BFFE200091
:10858000D03002F00DFA2000643007F033FE201DD9
:10859000FFF720FE200010BD006F020013B5104849
:1085A00000F0DCF828200EF03EF9202304000093B0
:1085B0000A210C4B03220AF0A2FF21000A4802F014
:1085C00083F9002805D020000AF0AFFF20000EF04C
:1085D0001FF9FA24A400200000F0DAFCFBE7C046F3
:1085E0000422002009840100D42200201423F0B5C5
:1085F000040093B0009319221821043002F096FC75
:108600002200250026006432B43513211000109298
:10861000B83607F0FBFD28000CF05CFA00221E21A2
:1086200030000BF0C1FE2000D03002F0D9F922005A
:10863000F03211920621464A119801F083FE200083
:108640000027012369301A0000971121FF3001F043
:10865000DFFA200091300097012302221A21FF3017
:1086600001F0D6FA2000B9301A2301210222FF308E
:1086700002F072FA300001F0D7F8E4225200A05064
:10868000300001F01FFBE6235B00E0500100E42214
:1086900020005200D130119BA2580095FF3001F00C
:1086A00061FD2000E13029001C22FF3002F0BEFEF7
:1086B000192320000F93013B0E93013B0D93013BC7
:1086C0000C93013B0B93013B0A93013B0993013B44
:1086D0000893013B0793013B0693013B0593013B44
:1086E0000493013B0393013B0293013B0193F93057
:1086F000013B082200930721013BFF300BF075FE80
:10870000CA239B00E018290003F0A2FED3239B009C
:10871000E0181D2102F046FBDD239B00E750109876
:10872000277003210DF08BFD230022002000094952
:108730009C33A0321C6011605760074A80305A6138
:108740000221012207F01CFF200013B0F0BDC0463B
:10875000946A0200CB310200B53102000123F0B56A
:1087600006788FB004001E4000D082E00300D033B2
:108770001800039300F0EEFA00F0E6F928200EF05E
:1087800052F8050010300AF0ABFF6C4B18202B603C
:108790000EF049F807006A4B0460082231000C30E3
:1087A0000C930D960EF08EF80CA9381D08220EF0D1
:1087B0006DF8644BAF607B611223EE60AB802E627C
:1087C0006E622900039802F07FF8002805D0280087
:1087D0000AF0ABFE28000EF01BF8012322785A495C
:1087E000134323702300B433180005930CF078F979
:1087F0005649049005980CF073F900250690642002
:1088000000F0C6FB2F002E0023006933FF33180051
:1088100007930BF076F900282DD1049B002B33D160
:10882000069B002B30D1DD2549494A48AD0000F0B8
:108830008FFC6359002B1CD100F09AF801000AA8A4
:1088400000F0D8FD0BA80AF033FDCA239B00E01806
:10885000069B0BAA0AA90093039B03F04FFE0BA8EB
:108860000AF0ADFE0AA80AF0AAFECC239B00E3584A
:1088700063510FB0F0BD20009130FF300BF041F993
:108880000028CAD0182EC8DC2000653039B22AB2C0
:10889000FF23FF30013700F02BFEFFB2322000F043
:1088A00077FB0136052F02D100270135EDB2049B7D
:1088B000192E06D0002BA7D02349059802F04AFDB7
:1088C00001E0002BF8D104980DF0A2FF06980DF0FE
:1088D0009FFF1F491F4800F03BFCCA239B00E31881
:1088E0000893DD239B00E3580993002B1ED100F071
:1088F0003FF801000AA800F07DFD0BA80AF0D8FCA3
:1089000001230BAA0AA900930898039B03F0F6FD24
:108910000BA80AF054FE0AA80AF051FECC239B00D3
:10892000E3580993DD23099A9B00E2502100079A3E
:10893000F031089803F0DCFF66E7C046FD03000055
:108940003D320200FD310200B7750200C27502001F
:1089500000200020001C0020BFF34F8F024B034A71
:10896000DA60BFF34F8FFEE700ED00E00400FA0588
:10897000F0B58DB005AF1922154938000DF086FF0E
:108980000022144B05245A7180225205566E012292
:1089900025000194029203930199300008F040FBF6
:1089A0000800029908F0B6FA019B03996B43019302
:1089B000029B361A6B430293631E2C1B6C433C19BB
:1089C000225C1C1ECA54E7D108000DB0F0BDC046A1
:1089D000D27502007C290020F0B597B01822002142
:1089E000060010A80DF06EFF132110A80DF07AFDFF
:1089F000032110A80DF00CFE4C4B1B68002B00D17E
:108A00000133DBB202934A4A012300210BA807F08D
:108A100025FF484B9E4200D9002672B6464B642182
:108A20001D68464B30000793052408F0FDFA6043AB
:108A30005030281808900A21300008F0F5FA0A2171
:108A400008F0D8FB614350316918099130000A21C0
:108A500008F0D0FB802361430024503169189B014A
:108A60000A910193029B002B5DD0002500272E1F49
:108A700007AB9B190593032C03D1802300249B0192
:108A8000019307AB5B592E4A03936300D3180493F9
:108A90000023190006205843049A16187678B44625
:108AA0006246039EB25C10269446049A105C6246AD
:108AB0000641164202D00120984001430133092BA0
:108AC000E8D1C9431F4B059A090119401268039B5D
:108AD000934225D1312F23DC00210BA80DF063FE3A
:108AE000FA23159A1199DB00106801421BD0013B53
:108AF000002BF9D1019B01345B000193FA2301376C
:108B0000E4B25B009F42B6D10435102DAED1074BC5
:108B10001B68002BA6D0029F013FFBB20293A1E786
:108B2000019B1943D9E7FFF717FFC04680250020B6
:108B3000F0FF0000E703000004200020217602007F
:108B4000EB750200F01F0000F8B50023124C236003
:108B50000AF0CFFB002808D0042120000AF0C5FB52
:108B6000002801D00D4B2360F8BD0122A127042568
:108B70000B4B0C491A602268FF0048604E68002EBB
:108B8000FCD0DE591202013D3243002DF5D12260A6
:108B900001225A60E8E7C0467C250020ED5EBC0B50
:108BA00000D00040FCD00040F0B585B01F000AABFB
:108BB0001B880600029115000393002F1BD028206C
:108BC0000DF031FE6B4604001989039BAAB2009395
:108BD0003B000AF094FC336821005B683000984742
:108BE000002806D020000AF0A0FC20000DF010FEA6
:108BF000024805B0F0BD0248FBE7C04616FCFFFF87
:108C000017FCFFFF0B4B70B51C68002C10D0656D76
:108C100000F0ACFBA36C002901D1834206D82000F0
:108C20000AF099FB044920000AF083FB2C00ECE7D2
:108C300070BDC04688250020A8250020F0B593B05F
:108C400007932A4B04AC1E68049005910692002EEF
:108C50004AD0274B258867881C6800230293002C84
:108C60002ED0636D23480393A36C9AB2A36C1B0CA4
:108C700099B2854214D12048824211D1002B01D0F3
:108C8000B9420BD1029B002B08D120000AF063FBF4
:108C90001A4920000AF04DFB01230293039CDEE7F2
:108CA000002A01D09542F9D1002B01D0B942F5D16B
:108CB00020000AF050FB114920000AF03AFBEDE7D2
:108CC0000F4BEB18012B0FD910233A00009329000A
:108CD0000C4B08A80AF013FC336808A99B68300005
:108CE000984708A80AF021FC13B0F0BD84250020A5
:108CF000B4250020FE030000FF030000A82500208B
:108D000002FCFFFF3D8C010010B572B60B4B1C68D6
:108D1000002C08D020000AF01EFB0023E364084B5F
:108D20002000E36310BD62B65C200DF07CFD5C2288
:108D3000002104000DF0C6FDEFE7C046AC25002081
:108D400000400020024B1878012318407047C046AD
:108D500082290020F7B50600FFF7F4FF051E33D186
:108D60001A4C2660FFF7D0FF194B1A4918600AF019
:108D7000E0FAFFF7C9FF184B1860184B4363184B14
:108D80008363206800280ED0C027164E2A003300C7
:108D900015490097FFF708FF009733002A00134991
:108DA0002068FFF701FF0C200DF03DFD00238380BC
:108DB00083710F4B03600F4B836000F0EFFA0123C8
:108DC0000D4A11780B431370F7BDC046842500206F
:108DD000B8250020A8250020B0250020FC3F002059
:108DE0001D3402003D8C0100FF030000FE03000063
:108DF000B46A0200058C010082290020F7B5060044
:108E00000D0017000193002802D100242000FEBDB0
:108E10000029FAD0FFF778FF041EF6D0074B019A1D
:108E20004363066045608760054B002A00D0054B10
:108E3000A363054920000AF07CFAE7E7FC3F002025
:108E4000E733020005340200A8250020024B186811
:108E5000434258417047C046A8250020002310B562
:108E600004499C006258002A01D00133F9E76050A0
:108E7000100010BD90250020002310B5044A990071
:108E80008C58844201D00133F9E70020885010BD8E
:108E90009025002010B50024084BA200D0580028CF
:108EA00002D003685B6898470134062CF4D1044B68
:108EB0001B68002B00D120BF10BDC04690250020AC
:108EC000A8250020F8B5FFF73DFF00281CD02A4D4B
:108ED0002C68E36CDA0718D502273B43E364274B81
:108EE0001E680423F26C30001343F364636BF36376
:108EF0000AF057FA3000716C04F0EFF82868C36C80
:108F00003B4201D004F023F9F8BD1D4F1D4E3A68D5
:108F10003168002A1ED129602A68914208D11B07B6
:108F200006D52C60FFF7B6FF3B68002BFAD02B600C
:108F300029688C42E8D03368994214D1124B4B63B4
:108F4000124B8B6320000AF02CFA2968626C4B6C80
:108F500020000DE0206DB84203D1606D002800D0E4
:108F600002002A60D8E79C42ECD1002210004B6C32
:108F700004F072F8C8E7C046B82500208C25002010
:108F8000A8250020B0250020FC3F00201D34020051
:108F900070B50500FFF7D6FE002803D128000DF0BC
:108FA00030FB70BD0C4B1C68E36CDB0706D5FFF78C
:108FB000ABFE0A4B1860002800D0040000F0D6F980
:108FC0002D18A56420000AF0C6F9054920000AF012
:108FD000B0F9FFF777FFE4E7B82500208C250020E3
:108FE00088250020F0B51E4B1E4F1C683B6885B0DD
:108FF00006000391002B30D0FFF7A4FE00282CD0F0
:10900000E36CDB070ED5FFF77FFE174B051E1860DC
:1090100008D00AF0A0F9154928000AF08AF92C00B6
:10902000FFF750FF039B20001B043343A3640AF0A7
:1090300092F920000E490AF07CF90E4B0024F31837
:10904000012B07D9C0230093039A0B4B31003868DA
:10905000FFF7AAFD200005B0F0BD084CFAE7C046B6
:10906000B8250020842500208C250020A82500207C
:10907000B425002002FCFFFF3D8C010016FCFFFF21
:1090800010B5FFF75FFE002809D0054C20680AF0F4
:1090900062F9044920680AF04CF9FFF713FF10BD8C
:1090A000B8250020AC250020F7B507000D000028EA
:1090B0002ED0FFF747FE00282CD00724164E30682C
:1090C000C36C1C4007D0154A290038000AF05AF931
:1090D00000242000FEBD04F022F802213268D36C87
:1090E0001940019103D003218B43D364F1E701249C
:1090F0002343D3642800B8473268D36C1900A143D6
:10910000D164019C5B07E4D528000AF073F9E0E71D
:10911000034CDEE7034CDCE7B8250020F533020002
:1091200017FCFFFF16FCFFFF020010B5014B12CB2E
:1091300012C210BDBC250020034B1A68034B1A60F5
:109140007E225A607047C04604200020BC250020C3
:1091500070B5114E3278022A1AD081421AD90C1AEF
:10916000072C17D90D00032305432B4012D172B6EB
:109170000A4DD2005051AA1851608022A40812064C
:109180001443046032780132327062B6180070BD48
:109190000348FCE70348FAE784290020C42500209F
:1091A00013FCFFFF17FCFFFF70B5134C060023787C
:1091B000124D002B0CD1124912482B70FFF7C8FF3B
:1091C000114B984202D11E20FFF706FC01232370A9
:1091D00000242B78A34209DD0C49E300C9183000B4
:1091E0000AF022F9002805D10134F2E71420FFF734
:1091F000F3FB002070BDC046832900208429002095
:1092000000380020502A002017FCFFFFC425002052
:1092100070B5002819D0104B10491C7800239C42CF
:1092200016DDDA005558854210D28A1852688242FB
:109230000CD9041F2368002B02DC1E20FFF7CCFB97
:10924000802322681B061343236070BD0133E6E7C9
:109250001E20FFF7C1FBF8E784290020C425002069
:1092600070B5051E14DD0B4E0B4C3368002B02D07D
:1092700020680DF051F8FA2120680024074B89007E
:109280008361C462694335600DF04EF8200070BD03
:109290000348FCE7D4250020042600204993010060
:1092A00017FCFFFFF8B5114F06003D68002D0AD1ED
:1092B00030200DF0B8FA040007F002F80C4BA5615D
:1092C0002360E5623C600B4D2B68002B09D1102018
:1092D0000DF0A9FA04000DF073F820002C600DF0D9
:1092E00049F83000FFF7BCFFF8BDC0460426002057
:1092F000A872020000260020014B18687047C04683
:10930000D425002070B50D4C2368002B03D00C4BE6
:109310001B68002B02D10620FFF7C4FF20680DF068
:1093200040F802000749C3170D684E68521973418F
:1093300020680A604B600DF03AF870BD00260020EE
:1093400004260020A820002010B5FFF7DBFF002432
:10935000054BA200D058002802D003681B6898472C
:1093600001340A2CF4D110BDD825002010B5FFF728
:10937000C9FFFA22034B920018685968002307F0CE
:1093800079FF10BDA820002010B5FFF7BBFF024BEE
:109390001868596810BDC046A82000200B4B10B5B6
:1093A0001B680400002B03D0094B1B68002B02D163
:1093B0000620FFF777FF0023064A99008858002807
:1093C00001D00133F9E78C5010BDC04600260020C3
:1093D00004260020D8250020002310B5044A990057
:1093E0008C58844201D00133F9E70020885010BD29
:1093F000D825002010B50400002902D00B78002BDE
:1094000003D1034B2360200010BD0AF0DFF8FAE718
:10941000C46A0200F8B504000E00150000290AD045
:109420000B78002B07D0002A05D0080097B20DF06A
:1094300089FA874203D90B4B23602000F8BD681DD1
:10944000FFF7B2FE20600AF065FA23682A005F8009
:1094500023683100181D0DF019FA23685D190023E7
:109460002B71EAE7C46A0200014B03607047C046F3
:10947000C46A020010B50548054C20600AF04DFA98
:10948000044A054920000DF0C7F910BDC46A020066
:109490000826002000200020BF350200084B73B5CD
:1094A0001C680500002C0AD001002668083108223B
:1094B00068460DF0EBF90CCD31682000884773BD8C
:1094C0000C260020014B03607047C046CC6A0200A6
:1094D00010B50400002903D1044B0360200010BD27
:1094E000016008000AF019FAF8E7C046CC6A0200E9
:1094F00030B500684488A1420CDA8588AA4209DAAE
:10950000002907DB002A05DB54434018001983714A
:10951000002030BD0048FCE717FCFFFFF0B5070056
:1095200085B00E001D00002921DD002A1FDD002B63
:109530001DD00468638803938B4200DD0391A388E8
:109540000293934200DD0292002306340193019BB3
:10955000029A93420EDA29002000039A0DF096F940
:109560003B68AD195B88E418019B0133EEE70248C4
:1095700005B0F0BD0020FBE717FCFFFFF8B50400C5
:109580000D0016001F00002901DB002A02DA0E4B35
:109590002360F8BD100048430630FFF705FE206049
:1095A0000AF0B8F923685D8023689E80002F06D0FA
:1095B0003B00320029002000FFF7B0FFE9E7200060
:1095C0000AF0DFF8E5E7C046CC6A0200F7B506000E
:1095D0000D1E03D1244B03603000FEBD00200F00A0
:1095E0000400010001903B78002B1AD03022524237
:1095F00094469C446246092A11D90A2B0AD1019B40
:10960000241801330193A14200DA21000020040054
:109610000137E8E70028FBD001340020F8E70120FB
:10962000F6E70127019A09B212B230007F42FFF734
:10963000A5FF39000A2033689A1D2C78002CCBD066
:109640002300303B092B08D8FB43DB173B40434347
:109650001B19303B1F000135EFE7002FFBDB1770B4
:1096600001320F00F7E7C046CC6A0200F0B50400F3
:1096700089B006A80E0002921D00FFF755FD236871
:1096800002995A88914235DA9B889D4232DA1F2E20
:1096900030D9079B01939E422CDC052300227343A3
:1096A0000393069B0493039B04999B18A03BCB5CFC
:1096B00000210593AE18029BCF18236858880190AB
:1096C00087420EDA9888B0420BDDDB1910270F4174
:1096D000019870431B1805980740781E87417F4208
:1096E0009F7101310529E6D10132052ADBD1002025
:1096F00009B0F0BD0048FBE717FCFFFFF7B50468B1
:10970000070063880E1E01931EDD994218DA0023BC
:10971000063400933B68009A9B889A4212DA019BB8
:10972000A1199D1B2A0020000DF0B0F8601931002E
:109730000AF00AF83B685B88E418009B0133E8E70D
:109740000AF01FF8002000E00048FEBD17FCFFFFF4
:1097500010B50548054C20600AF0DFF8044A0549B9
:1097600020000DF059F810BDCC6A02001026002030
:10977000002000203B37020010B5054C01212000DD
:109780000AF0BFF8034A044920000DF045F810BD67
:109790001426002000200020BF3802000388074A5A
:1097A00010B50120934208D0834202D00020DB078D
:1097B00003D41E20FFF710F9002010BDFFFF0000AA
:1097C0000048704716FCFFFF10B53220FFF704F980
:1097D000004810BD16FCFFFF10B5124C00230834E2
:1097E0008280046041620224142201008371847229
:1097F00003638386028136310A78C360A243F13461
:109800002240036143618361C36103620A70020005
:1098100040321370021DD387013343878387C38788
:1098200010BDC046D46A0200F0B5544F97B03B68F3
:1098300006000593002B00D08BE006AC0B331C22F6
:109840002121200001F0C0F90EAD0B231D222221A1
:109850000AA801F0B9F90B231B222321280001F0EB
:10986000B3F908200CF0DFFF0122059B11000490E2
:109870000BF061FC3A2130000BF0B7F900281DD045
:10988000A38812ADAB80A3795C20AB713C4B1293E3
:10989000A3681493237B2B73637B6B73A37BAB73E2
:1098A0000CF0C1FF04230193363300932A00049B7C
:1098B0003100040002F0BEF83C604AE03221300082
:1098C0000BF0C1F900281CD0A38812ADAB80A3799E
:1098D0005C20AB712A4B1293A3681493237B2B73E8
:1098E000637B6B73A37BAB730CF09DFF042301932D
:1098F0002E3300932A00049B3100040002F038FA52
:10990000DAE73C2130000BF059F900282CD0AB8865
:1099100012ACA380AB79A420A371194B1293AB684E
:1099200014932B7B23736B7B6373AB7BA3730CF060
:109930007AFF052305000293013B0193383300931E
:109940002200049B310001F093FF0E4B3D60443533
:109950001D600C4B094C1868002802D021680AF0E1
:109960003EF9206817B0F0BD44200CF05CFF0422E3
:1099700004990400FFF730FF9EE7C0461826002038
:10998000746A02001C260020F0B56149C56885B0E4
:109990008D4254DA0300022236331B78134059D12A
:1099A00004698C4264DA020036321278520768D4B5
:1099B000426901920200019E40328E426FDA01003C
:1099C00036310978090774D4002B7DD113780293BE
:1099D000002B16D006000127011DCB8F3636013330
:1099E0009BB2CB8703963678BC46374000D188E0DF
:1099F0001D2B06D963469E43039B1E700023CB8715
:109A0000137009F0CCFF434A0723904276D94249AC
:109A1000043B8D4272DBC8220133920095426DDC1B
:109A2000023B8C426ADB013B944267DC01980433C1
:109A3000884263DB0133904260DC00235EE0C82291
:109A4000002352009542ABDD030036331A78002321
:109A50009207A5D4012306001F0036363278540839
:109A6000A7433C0002279C40BA432243327097E749
:109A7000C822520094429BDD02003632127852070F
:109A800096D406000122363633789F08BA439700F1
:109A9000042293431A003A433270012388E7C82115
:109AA000019E49008E428FDD010036310978090799
:109AB0008AD40100012636310B78DF08BE4308271F
:109AC000F600BB4333430B701378032B00D97DE7BB
:109AD0000133DBB21370012B03D10021031DD987A1
:109AE00074E7042B00D071E7020036321178033B93
:109AF0000B43137000230430C3870B33180005B0E9
:109B0000F0BD092B00D87CE7029BCF87013B77E7AC
:109B100070FEFFFFFF700200E0FCFFFF70B5C3693D
:109B2000C1681A68451D8AB00400EB7F114255D008
:109B3000002B58D1EB7F082B0DD90122A3791342BA
:109B400009D11343A371A188130006A809F0D2FD1F
:109B5000FFF70CFC2062EB7F012B23D80123A279B5
:109B60001A421FD00025A188A571022202A809F07F
:109B7000C1FDA31DDE7F012E14D1FFF7F7FB2B00E3
:109B8000226A801A994100900191019BA188AB4201
:109B900003D1174B009A9A4227D90123042206A821
:109BA00009F0A8FD0322A3791340012B14D1FFF77C
:109BB000DDFB0023226A801A9941994202D10D4BA4
:109BC000984209D90223A279A1881343A3710522DF
:109BD000012306A809F08EFD0AB070BD0B2BA9D891
:109BE0000133EB77A6E7013BFBE733000322D6E71F
:109BF000E7030000DB05000010B50400034B083349
:109C00000360FFF7E9FB200010BDC046086B0200AF
:109C1000F0B5070000250E00040085B002930AABE2
:109C20001B78083703930F4B01920833036085803C
:109C300085712900182238000CF044FE039A310087
:109C400038000CF054FC019B029AA380A31DE6711E
:109C5000DA77631D25622000DD77FFF79FFB200088
:109C600005B0F0BD086B02000048704716FCFFFF0E
:109C700010B53320FEF7B0FE004810BD16FCFFFF04
:109C8000002310B50400838083710D4821640830DF
:109C900020608020C000A061E0612062E3602000BD
:109CA000236163616362A362E36223636363A3630B
:109CB000E3636364110009F06AFF200010BDC04631
:109CC000206B0200F0B5534F97B03B680600059338
:109CD000002B00D08BE00B331C22212106A80AACFC
:109CE00000F072FF0EAD0B231D222221200000F098
:109CF0006BFF0B231B222321280000F065FF0820A7
:109D00000CF091FD0122059B110004900BF013FA59
:109D10001D2130000AF080FF00281DD0A38812AD5D
:109D2000AB80A3796020AB713B4B1293A368149373
:109D3000237B2B73637B6B73A37BAB730CF073FD83
:109D400005230193183300932A00049B310004007B
:109D500001F044FF3C604AE03C2130000AF08AFFF9
:109D600000281CD0A38812ADAB80A3796020AB7112
:109D7000294B1293A3681493237B2B73637B6B7320
:109D8000A37BAB730CF04FFD052301933733009396
:109D90002A00049B3100040002F08CF8DAE73C2131
:109DA00030000AF00BFF00282AD0AB8812ACA38049
:109DB000AB79A420A371184B1293AB6814932B7B3F
:109DC00023736B7B6373AB7BA3730CF02CFD0523B8
:109DD00005000293013B0193383300932200049B5A
:109DE000310001F045FD0D4B1D6044353D600B4BCE
:109DF000084A1B681068002B00D0436417B0F0BD00
:109E000048200CF010FD052204990400FFF738FFEC
:109E1000A0E7C0461C260020746A02001826002015
:109E200082B0F0B50400EDB06420739372920CF030
:109E3000E8FB052210A8110009F0ACFC974911A815
:109E4000FFF7C4FB002221AB6CA91A605A609A602C
:109E50000C339942F9D11922002113A80CF032FDDC
:109E6000A0680AF053FA00260B90FF21A06800F0CA
:109E700091FC8B4FA06800F05DFB07960996884B1C
:109E80009F4203D0874B9F4200DBFDE0A0680AF0B1
:109E900086FAA56884491AA8FFF7ACFA78221AA9AD
:109EA000280000F0E5FB1AA809F089FB00267C4F8A
:109EB0000322099B606801331A40099209F007FEEA
:109EC0000500606809F00AFE0022784B05929D4269
:109ED00010DB013205922A00C8320BDBAA220421D2
:109EE00092000591954205DC02220592C82D01DD04
:109EF0000132059200220692984210DB012306935C
:109F00000300C8330BDBAA2304329B00069298425D
:109F100005DC02230693C82801DD0133069310A84F
:109F200009F02FFC002513ABEB5C012B08D1604935
:109F30006B00CA185278C95C10A8FF23FFF7D8FA43
:109F40000135192DEFD16B4618229A5E6B4610A889
:109F50001421595E099BFFF7CBFA002F01DB0F2E6E
:109F600007D90023A068009374301A0010A909F0E3
:109F70001EFC01230893089B05995A004C4B9B1823
:109F80009A1E12788A4226D1013B1B78069A934288
:109F900021D1089A6CAB9B18663BFF3B0A931B7858
:109FA000012B18D00C23079A216853431D0000226F
:109FB0000CA809F016FE21AA2B0094460CAA6344B3
:109FC00023CA23C301220A9B01361A70079BF6B2EB
:109FD0000133DBB20793089B013308931A2BCAD1D4
:109FE00064200CF00EFB079B643F3FB2182B00D897
:109FF00045E71A0021A91AA80AF001F86A461DAB24
:10A0000023CB23C21B6813601A991B9A1C9B2068E0
:10A0100009F0CFFDE568002D0CD0264912A8FFF706
:10A02000E9F91C231AAA12A928000AF092FD12A825
:10A0300009F0C5FAA0680AF0B2F911A912A8A5683A
:10A0400009F088FB00221C4B009212A90193280002
:10A05000130000F0B1FA12A809F06FFBFA2080009B
:10A060000CF0CFFAA0680AF09AF90B99A06800F0FA
:10A0700091FB11A809F061FB10A809F05EFB6DB01F
:10A08000F0BC08BC02B01847002F02D00F2E00D041
:10A090000EE7A06800F04EFA0AE7C0460178020019
:10A0A0008C3C0000D18AFFFF4678020058FDFFFF7C
:10A0B000667802005B780200DC050000F0B587B02E
:10A0C00001930EAB1B88060003930D9B0D000093BC
:10A0D000019B02920C9F002B3CD0002F02D1009BD1
:10A0E000DB0737D528200CF09EFB0400103009F068
:10A0F000F7FA029B1820258063800CF094FB050082
:10A10000009B08220593019B002103600C300497FB
:10A110000CF0D8FB082204A9281D0CF0B7FB0E4B4D
:10A1200002226B6100230399E36023626362336858
:10A130000A43A560A2805B68210030009847002890
:10A1400006D0200009F0F1F920000CF061FB034873
:10A1500007B0F0BD0248FBE7233C020016FCFFFFFE
:10A1600017FCFFFF70B58CB08360109B01604260EC
:10A17000C3600400184918000AF0B2FC051E14D090
:10A1800001001C22103105A80CF080FB6A4608ABC8
:10A1900043CB43C21B68136020680599069A079B4E
:10A1A00009F007FD28000CF033FB0C4B1868002861
:10A1B0000ED00B4A05AB059200220692C0320292E5
:10A1C0006A4622CB22C2230003220521FFF776FF35
:10A1D00020000CB070BDC0465B7802000C26002049
:10A1E000219E0100F0B5040085B0637A9C46002BE7
:10A1F00004D1200009F021FF05B0F0BDA37A266F3D
:10A2000001931023019AF35600259B1801229A40CE
:10A210002900F36803920293029BAB4231DDB368DD
:10A22000019A6B439B1872695B00E77AD3181A781E
:10A230005878E379012F14D15F1E3F1A10003A00BD
:10A240005B004343606F8218D3189B79634500DD40
:10A250006346627B1A4202D00123AB4019430135A9
:10A26000DAE7022F05D15F1EBA1A277A013F381AA2
:10A27000E6E7032FE4D1277A013FBF1A0200380036
:10A28000DEE71123C943F356606C994023691940F6
:10A29000039B19430CF087FAA27B072AACD8637B97
:10A2A0000C495B006373531CDBB290004158A373ED
:10A2B000022A03D808000CF099F996E7064B200013
:10A2C000236300236363054BE462236414300CF0C2
:10A2D0002BF891E74C6B0200E5A10100254002003C
:10A2E00010B50400044B03600CF016F8200005F0D4
:10A2F000FDFF200010BDC046A872020010B504008A
:10A300000E4B08330360FFF767F82000743009F044
:10A3100014FA2000603009F010FA2000583009F0DB
:10A320004EF92000503009F04AF92000044B143057
:10A330006361FFF7D5FF200010BDC0466C6B0200C3
:10A34000BC720200F8B500250400324B858008334A
:10A3500003608571143016000F0005F0B1FF200076
:10A360002D4BE562636125645030FFF77DF82000D6
:10A370005830FFF779F820006030FFF7A3F820008D
:10A380000423F25E33682667590009B2743009F07D
:10A3900001FA3368226FE371736801262372102378
:10A3A0006581A7802561D35691685918994204DDCB
:10A3B0003000984001330543F8E711230120D356BC
:10A3C000D1685918994206DD02009A402669013386
:10A3D00032432261F6E714200CF025FA22690021AD
:10A3E0002A430123060006F039FAFF232200637294
:10A3F0000133A381002348326664A37320001370E5
:10A40000A366FEF7CBFF0123A27920001343A371BB
:10A41000F8BDC0466C6B0200BC720200F0B5437A16
:10A4200085B00400002B04D1200009F006FE05B021
:10A43000F0BD0122837A11009C461023066F00258F
:10A44000F35603926344994002912900F368019303
:10A45000019BAB422CDDB36872696B4363445B00C4
:10A46000E77AD3181A785878E379012F10D15F1E54
:10A470003F1A10003A005B004343606F8218D31804
:10A480009B79002B02D0039BAB4019430135DFE7DA
:10A49000022F05D15F1EBA1A277A013F381AEAE760
:10A4A000032FE8D1277A013FBF1A02003800E2E704
:10A4B0001123C943F356606C994023691940029BEC
:10A4C00019430CF070F9667AB31EDBB2FC2B14D87A
:10A4D000FEF712FF0B4B0500236300230A4863635A
:10A4E0000A4BFF21E4622364704306F09DFD2900BE
:10A4F0004143200014300BF017FF637A012B00D981
:10A5000095E791E73B400200B603000025400200BA
:10A510001FB5012381881A00684609F0EBF8012372
:10A5200003491A00684609F0E5F805B000BDC046C9
:10A53000FE0300001FB5030048331A780400002A08
:10A540000DD000221A70012381881A00684609F094
:10A55000D1F8012304491A00684609F0CBF820001D
:10A56000743009F00EF91FBDFF03000010B548302C
:10A570000378002B06D00378012B03D00121024879
:10A5800008F028FF10BDC046FF03000010B50121F0
:10A590000400062008F01EFF064B984208D14834FC
:10A5A0002378002B04D02378012B01D020BFF7E7BC
:10A5B00010BDC04616FCFFFF73B5079C0500002CBC
:10A5C0001CDB060048363078002802D0307801289D
:10A5D00016D106981BB2C0B20090280012B2743097
:10A5E00009F0E5F8002C07D02B004A331C8000242A
:10A5F00007234C352C803370200076BD014CFBE7DF
:10A60000014CF9E717FCFFFF12FCFFFFF0B587B024
:10A610000D9C06000F0002920393002C20DBFFF735
:10A62000A5FF330048331D78EDB2002D1AD1390053
:10A6300005A809F08FF80C9B01940093029A039BE4
:10A6400005A93000FFF7B8FF05A809F076F8002C3F
:10A6500003D03000FFF79AFF2C00200007B0F0BDB8
:10A66000014CFAE7014CF8E717FCFFFF11FCFFFF74
:10A67000F8B50400171E1DDD060048363378002BA0
:10A6800002D03378012B17D12200E3795632013BF7
:10A69000137023000025200054331D80503008F033
:10A6A000EDFF23004A331F80022328004C3425800D
:10A6B0003370F8BD0148FCE70148FAE717FCFFFFDB
:10A6C00012FCFFFFF8B50400171E2DDD060048360A
:10A6D0003278002A02D03278012A27D15D42069BC7
:10A6E000FF331FD16B1D22001BB264321380230085
:10A6F000200066331D70603009F034F8230000221A
:10A700006C331A70954200D03D0023004A331D80FF
:10A71000079B00205A1E9341013F4C34053327808C
:10A720003370F8BD069BDEE70148FAE70148F8E719
:10A7300017FCFFFF12FCFFFFF0B587B005000F000C
:10A74000161E03931EDDFFF711FF2B0048331C7804
:10A75000E4B2002C18D1390005A808F0FBFF0D9BCE
:10A76000320001930C9B05A900932800039BFFF77F
:10A77000A9FF05A808F0E1FF2800FFF707FF200068
:10A7800007B0F0BD0148FBE70148F9E717FCFFFF00
:10A7900011FCFFFFFF2902D84172002070470148D9
:10A7A000FCE7C04617FCFFFF13B5040004A80078BF
:10A7B000009020000BF01BFD002801D1207516BD74
:10A7C0000048FCE70EFCFFFF13B5040004A8007866
:10A7D000009020000BF0F3FC002801D1207516BD7D
:10A7E0000048FCE70EFCFFFF7FB50D0011000F22B3
:10A7F0006A4404001E1E117016D0089B002B13DD46
:10A80000012329000093FFF7DFFF002802D007484B
:10A8100004B070BD0090089B320029002000FFF7B3
:10A82000C3FF0028F4D0F2E70148F1E70EFCFFFF78
:10A8300017FCFFFFF7B507000D1E3FD000230226CF
:10A8400004690193002C35D0AA88A3885340334271
:10A8500004D1324204D1AB88334226D0646AF1E796
:10A86000A968A0680AF04CFC0028F4D02B88002BC3
:10A8700002D022889A42F1D16B88002B02D06288E4
:10A880009A42EBD1EB68E268934201D0002BE5D10C
:10A890007B68002B01D020009847A288084B134307
:10A8A000A380019B01330193D8E7A368AA68934270
:10A8B000D4D1DBE7019B2000002B00DC0148FEBD6A
:10A8C0000080FFFF17FCFFFFF0B5060085B00D1EEE
:10A8D0005DD001270469002C26D00221AA8800231C
:10A8E0000A4202D0A3885B083B40226829688A425A
:10A8F00014D1A068A968002B0ED00AF001FC002832
:10A900000CD0EB68E268934208D1A3881AB2002AFF
:10A9100006DB204805B0F0BD8842F2D0646ADAE771
:10A920005B045B0CA380F4E730692A88002807D118
:10A93000356101231849684608F0DCFE0020E9E78C
:10A94000010003001C88944206D25C6A1900002CA6
:10A950000DD02300F6E723001C88944207D15F88BE
:10A960006C88A74203D85C6A1900002CF3D1884296
:10A9700009D10B889A4204D305D148886B88984244
:10A9800001D96962D4E74B6A6B624D62D1E7034833
:10A99000C0E7C04616FCFFFFFD03000017FCFFFFE9
:10A9A000064B10B51A00040008322C330260836095
:10A9B0000830FEF761FA200010BDC046846B02002B
:10A9C00008B4024B9C46083808BC6047A1A90100A6
:10A9D00008B4024B9C46083808BC60471145020089
:10A9E0000C4A002311002C32083110B543608381DA
:10A9F00083738260036143618361C38301600400E8
:10AA00000830FEF72BFA044B1A68002A00D11C60AC
:10AA1000200010BD846B02000C260020F7B50E004C
:10AA2000012504690192002C36D0238832889A428D
:10AA300001D0002B23D1638872889A4201D0002B69
:10AA40001DD1FEF77FF90123002806D0C022A3887C
:10AA50001340C03B5A425341DBB2019A934219D191
:10AA6000A7883BB2002B15DB10223100A0180BF099
:10AA70000DFF40231F4204D0200009F052FD646AFC
:10AA8000D1E7FEF75FF90028F6D021000348FEF772
:10AA90000BFBF4E70025F2E72800FEBD234502008A
:10AAA00008B4024B9C46083808BC6047AB4602001D
:10AAB000F0B587B001930EAB1B88060003930D9B86
:10AAC0000D000093019B02920C9F002B3CD0002FA5
:10AAD00002D1009BDB0737D528200BF0A4FE040031
:10AAE000103008F0FDFD029B1820258063800BF0DC
:10AAF0009AFE0500009B08220593019B002103603C
:10AB00000C3004970BF0DEFE082204A9281D0BF080
:10AB1000BDFE0E4B02226B6100230399E3602362AA
:10AB2000636233680A43A560A2805B68210030003D
:10AB30009847002806D0200008F0F7FC20000BF012
:10AB400067FE034807B0F0BD0248FBE7E546020098
:10AB500016FCFFFF17FCFFFFF0B5040016000025F0
:10AB60008380164A164B85710260218146810573E8
:10AB7000186889B08C46A8421DD0124A05950492E7
:10AB8000C02202926A4604AB82CB82C223002A0012
:10AB90006146FFF78DFFC022094B0A4918680292EF
:10ABA0006A46069106AB079582CB82C223002A0033
:10ABB0003100FFF77DFF200009B0F0BDC86B020037
:10ABC0000C2600200F48020030B500240373012337
:10ABD000034D84710560818082734373846030BD4E
:10ABE000746A020070B583790400DB0702D58068BF
:10ABF0000BF00EFEA3799B0702D5A0680BF008FEB0
:10AC0000A3795B0707D5A0230021144ADB00D150AC
:10AC1000A0680BF0FDFDA3791B0708D5A568002DE2
:10AC200005D028000AF0DDFA28000BF0F1FDA37929
:10AC3000DB0605D5A068002802D00368DB689847CA
:10AC40006023A2791A4205D0A068002802D00368C8
:10AC50005B6898470023A360A37170BD007000403B
:10AC6000F7B50227037B04000D003B4226D00129E3
:10AC700026D886793E40009614D1FFF7B3FF1820FE
:10AC80000BF0D1FD0E230600E35618220099019324
:10AC90000BF018FE019930000BF03BFCA379A66085
:10ACA0003B43A371A3685A68002D04D00025DB68DC
:10ACB0001A602800FEBD1B691A60FAE7014DF8E72B
:10ACC000014DF6E716FCFFFF17FCFFFFF7B5012665
:10ACD000037B040033422AD0612385791D4017D1BC
:10ACE000FFF780FF18200BF09EFD0E230700E356B0
:10ACF00018220093637B290001930BF0E3FD019A76
:10AD0000009938000BF0F3FBA379A7603343A371DC
:10AD10006023A279A0681A4202D00BF089FAFEBD26
:10AD2000436940681B681840431E9841F7E7014893
:10AD3000F5E7C04616FCFFFF70B50425037B040051
:10AD40002B4214D083792B420DD1FFF74BFF082003
:10AD50000BF069FD0E210600615605F003FBA37997
:10AD6000A6601D43A571A06805F022FB70BD0148D7
:10AD7000FCE7C04616FCFFFF10B501248379417340
:10AD80001C4004D080680BF043FC002010BD602202
:10AD9000134203D080680BF052FAF6E70048F5E75B
:10ADA00016FCFFFF70B5040000250C4B0E000833A5
:10ADB0008580857103602100183009F0D9FD2000DD
:10ADC0002100203009F0F7FD054BA680E5802572B3
:10ADD000E5602561656120001C6070BDD86B0200D4
:10ADE000202600208379DB0702D5C1600020704750
:10ADF0000048FCE716FCFFFF8379DB0701D5C0683C
:10AE000070470148FCE7C04616FCFFFF70B5456976
:10AE10000400002D22D0037A032B21D8FFF7ECFF8A
:10AE2000A8622C200BF0FFFC2C22002105000BF067
:10AE300049FD002263695A622369934208D163691C
:10AE400023610020237A65610133237270BD1300F2
:10AE50005A6A002AFBD162695A62F2E70148F5E7B3
:10AE60000148F3E717FCFFFF13FCFFFF144B70B51D
:10AE70005A68144C002A03D000225A600132A260A2
:10AE80001A69002A17D0002119618023DB000E4DBA
:10AE9000E3582868012B0FD1A923DB00E158494270
:10AEA000FFF7A0FF2868FFF7B1FF2B685A69074B2F
:10AEB000E2500123A36070BDFFF794FFF9E7C0469D
:10AEC000FC10004000100040202600200405000077
:10AED00003000069002809D00221054AD167426AAF
:10AEE0001A611A7A013A1A72024B19607047C04609
:10AEF00004E100E000E100E00223024A11780B4384
:10AF000013707047852900200221024A13788B4371
:10AF1000137070478529002010B5002903DB024B10
:10AF200019600BF0D4F910BD2426002070B5040080
:10AF30001E0004AB1D7805F08DF920000E4B40304B
:10AF40002360FEF791FA230001364C3301352200CD
:10AF50001E701D730023E1214E32A36463651380CC
:10AF600053809381D381013B200063644902FFF742
:10AF7000D3FF200070BDC0468C6A0200F0B505000A
:10AF800007005C355A372B883A8885B004009A420E
:10AF90001ED0104B1B781B071AD52B88426DD15C35
:10AFA0000BF074F92300288858331978013006F023
:10AFB00021F93B888EB2B34209D10749012302220D
:10AFC000684608F097FB0121200009F035FD2E802E
:10AFD00005B0F0BD85290020FF030000F8B5114D34
:10AFE00004002B781B0705D5012109F025FD606DB4
:10AFF000FEF70EF9082623002F785833B7432F7039
:10B000001878FEF7D1F86065002808D023000020EA
:10B010005A335C343E4318802E702080F8BD0248BD
:10B02000FCE7C0468529002013FCFFFF73B50D0027
:10B0300006A9040009780430002A01D1DE070ED5E4
:10B04000002D0CD018264E430C34A4196260012246
:10B05000A360044B2560636105F032FD73BD0022DF
:10B06000FAE7C046E1490200F0B58BB00593030052
:10B07000070004000025583306930433039104921B
:10B080005A370793049B9D4211DA069B3E88197834
:10B09000701C06F0AFF8079B89B21B888B4206D064
:10B0A000039B626D5B5D013593553980EAE7059B33
:10B0B000012B03D002210748FDF794FF0123200054
:10B0C0000093054A00232100FFF7B0FF28000BB0D2
:10B0D000F0BDC046FF0300007DAF0100F7B5184C7E
:10B0E0001F0023780500019116009B0724D4002A35
:10B0F00024DD002922D0FFF7FFFE23781B0714D59B
:10B100000024019B321B191928003B00FFF7ACFFFC
:10B1100039002418280009F07FFC002F01D0A64236
:10B12000EFDC2800FFF7F0FE04E02800FFF756FFF1
:10B13000041EE5D02000FEBD024CFBE7024CF9E7FF
:10B14000852900200DFCFFFF17FCFFFFF7B58027C6
:10B150007F053D697C690822113C6C430600210093
:10B1600068460BF093FB104B009A9A4219D000935B
:10B1700000230193796930001339694309F06BFCAE
:10B18000019A0099300009F07EFC2100300009F09E
:10B1900062FC7969AB08133969432200300009F079
:10B1A00064FC0198FEBDC046FECA0000F0B50D006B
:10B1B000A9B00D9200213022060010A80B930BF0CD
:10B1C00081FB28000BF0BEFB431C0C93102B00D915
:10B1D000B5E00B9B202B00D9B1E02900300009F02D
:10B1E0007FFC071E50D129000C9A10A80BF04EFBD3
:10B1F0000D990B9A14A80BF049FB80235B051A6983
:10B200005F690C92113F7A4330005D690B92FFF742
:10B210009DFF3022002104001CA80BF053FB2900E5
:10B2200000270C9B13395943300009F014FC0D978B
:10B2300030257D430B9B0833ED18A74242DA2900E5
:10B2400030221CA80BF022FB10A91CA80BF070FBED
:10B25000002827D13C49300022000E910F9409F0BC
:10B2600012FC6A46099513AB23CB23C223CB23C21E
:10B2700023CB23C23000129B1099119A09F011FCC4
:10B2800001230D930137D3E710300B9A0D990BF082
:10B29000EEFA040038000BF0BBFA002CA3D120001A
:10B2A00029B0F0BD6A4609951FAB23CB23C223CB3F
:10B2B00023C223CB23C230001C991D9A1E9B09F088
:10B2C000F0FBDFE7E5433023ED1725405D430B9BA3
:10B2D00008355D190D9B002B1DD10C9B3021981E4C
:10B2E00005F018FEA0422CD017490134300022008E
:10B2F0000E910F9409F0C7FB6A46099513AB23CB57
:10B3000023C223CB23C223CB23C230001099119A2E
:10B31000129B09F0C6FB0B99300009F09CFB8023BF
:10B320005B0559690C230C9A133963434A43023372
:10B33000110030000B9A09F098FB0024AFE7034C92
:10B34000ADE7034CABE7C046FECA000017FCFFFFA9
:10B3500013FCFFFF8023F0B55B051A6995B00392DB
:10B360005A6905910399113A51435D69039B133D55
:10B37000040002915D43FFF7E9FE061E3BD0002763
:10B3800030220021083508A801950BF09BFA01999D
:10B39000200009F060FB049730237B43029D0835B1
:10B3A000ED18B7421FDA2900302208A80BF06EFA18
:10B3B000059908A80BF0BCFA00280AD11949721E99
:10B3C00020000691079209F05EFB012304930137E8
:10B3D000E2E70C23019A2900200009F046FB019BBB
:10B3E00030330193F3E7049B002B06D10D49320063
:10B3F000200009F048FB0C4812E00299200009F0F7
:10B400002AFB80235B0559690C23039A13394A43AD
:10B410007343110020000233029A09F026FB00203A
:10B4200015B0F0BDFECA00000CFCFFFF70B50400B3
:10B43000A280FA22002308000C4992000831216002
:10B44000A3716061E260A3606382094909F048FB6F
:10B45000051E09D0010020001031022212300BF02D
:10B4600015FA28000BF0D4F9200070BDF06B020033
:10B470009878020030B50225837987B004002B420A
:10B4800004D1FDF7EBFCA3791D43A571200009F061
:10B4900071FB00281CD06B46DD1C280009F061FB05
:10B4A0002B78002B17D001A809F059FB0321019A32
:10B4B000D3170B409B189B102382FDF757FFE368BF
:10B4C000A18818180123A0601A0002A808F012F938
:10B4D000002007B030BD0122064B1A60064A5168B1
:10B4E0000029FCD000215160044A12680192012217
:10B4F0005A60DBE700C00040FCC0004008C50040C7
:10B50000022802D10122014B1A70704786290020BF
:10B5100070B5064C05002378002B04D1044802F0D6
:10B52000FFFA01232370280070BDC0468729002040
:10B5300001B5010070B50C0007F0DBFE002810D04B
:10B540000023144DA40A2B70200009F027FB0028CB
:10B5500003D00A200BF055F8F6E72B78002BFCD02F
:10B5600070BD02210C4B0D4A99508021C900080082
:10B570005D58002DFCD0A121C9005C50195800294C
:10B58000FCD0002199508021C9005A58002AFCD0D3
:10B59000E6E7C0468629002000E0014004050000DF
:10B5A000F8B50C0015001E0007F0A3FE002811D00E
:10B5B0000023174F3B7032002900200009F0ECFAFD
:10B5C000002803D00A200BF01CF8F4E73B78002B8E
:10B5D000FCD0F8BD01210F480F4B84461950802143
:10B5E000C9005A58002AFCD080270022FF0096424A
:10B5F00007DD910068586050D9590029FCD001320C
:10B60000F5E7002261465A50DA59002AFCD0E0E7FB
:10B61000862900200405000000E0014008B4024B28
:10B620009C46443808BC6047A14B0200FA21F8B59B
:10B630000389C90004005943324809F077FDFA2113
:10B64000890005F067FC304F2081A17A380009F0AD
:10B650006DFD23002600250022894C33A072A03600
:10B660001A808C35317800232A22286808F0A4FE3D
:10B67000002801D02548F8BD31781F235B222868B7
:10B6800008F09AFE0028F5D1317820235C22286842
:10B6900008F092FE0028EDD1317801232C22286891
:10B6A00008F08AFE0028E5D1317801232D22286890
:10B6B00008F082FE0028DDD1317801232E2228688F
:10B6C00008F07AFE0028D5D1A17A380009F029FDCA
:10B6D0003178C3B20E22286808F06EFE0028C9D166
:10B6E000FA21238989005943064809F01AFD0123EC
:10B6F0000343DBB231782A22286808F05DFE002877
:10B70000B9D0B7E7106C0200086C02000EFCFFFF16
:10B7100008B4024B9C46443808BC60472DB6010073
:10B72000074B10B51A00040008323C330260436432
:10B73000443008F0FAF9200008F02AF9200010BD82
:10B74000706C020008B4024B9C46443808BC604749
:10B7500021B7010008B4024B9C46443808BC60473E
:10B76000AB4B0200F0B5042583798BB004002B426B
:10B7700004D1FDF773FBA3791D43A5712000903020
:10B78000FFF7A4FA0026B0420FD12300A0331978A6
:10B7900020000C2307AD00938C302B0001220068A1
:10B7A000FFF722F8061E03D02C4E30000BB0F0BD80
:10B7B0000A2304AA9B182A785A706A781A70002201
:10B7C000985EAA785A70EA781A700022995E0391FE
:10B7D0002A795A706A791A7000229F5EAA795A7083
:10B7E000EA791A7000215A5E04922A7A5A706A7AAB
:10B7F0001A7000215A5E0592AA7A5A70EA7A1F25B9
:10B800001A7000229B5EA27A03999C4651434942DA
:10B810005043CB172B407A435B185B11A361C317CE
:10B820002B401818D3171D406423AD18059A5B42AE
:10B830005343A36764236146049A40115A434B4320
:10B84000E2676D11221DE06125622000D36708F0D8
:10B8500011F92000443008F06FF9A6E70EFCFFFF55
:10B8600008B4024B9C46443808BC604765B70100E9
:10B87000F7B51E00040008AB1B881500019309AB47
:10B8800000911A8831000AAB1F88FDF7A5FF200040
:10B890003A0031004430FEF7F3F9134B20001A0050
:10B8A0003C336364230008322260009A8C331A60B0
:10B8B000AB8890308380AB79019A83710B4B032165
:10B8C0000360AB6883602B7B03736B7B4373AB7B41
:10B8D00083732300A0331A80FFF74EFA2000FFF78E
:10B8E000A5FE2000FEBDC046706C0200746A020016
:10B8F000F8B5FA260189B60004007143264809F01C
:10B9000015FC310005F006FB244F2081A17A380098
:10B9100009F00CFC2500A0725835297800232A2252
:10B92000606C08F049FD002801D01D48F8BD297859
:10B9300010232B22606C08F03FFD0028F5D12978F8
:10B9400001232D22606C08F037FD0028EDD1297805
:10B9500001232E22606C08F02FFD0028E5D1A17A8A
:10B96000380009F0DEFB2978C3B20E22606C08F0C3
:10B9700023FD0028D9D121890748714309F0D1FB63
:10B9800001230343DBB229782A22606C08F014FDFE
:10B990000028CBD0C9E7C046D86C0200D06C0200AA
:10B9A0000EFCFFFF10B50400034B0833036007F0E3
:10B9B000EFFF200010BDC046386D02007FB50425A2
:10B9C000837904002B4204D1FDF748FAA3791D4383
:10B9D000A57120004830FFF779F90025A8420DD164
:10B9E000230058331978062302AE00930122330056
:10B9F000606CFEF7F9FE051E03D00D4D280004B063
:10BA000070BD022300210420F356A27ADB00715698
:10BA100030565343C000C900514342435B42A361C7
:10BA20002368E16122629B6A20009847E6E7C046EE
:10BA30000EFCFFFFF8B50400150006AA168807AA39
:10BA40000F0012881900FDF7C7FE0F4B676408331B
:10BA500023602300AA8848339A80AA7920009A712B
:10BA60000A4AA264AA6822652A7B1A736A7B5A73FF
:10BA7000AA7B9A730023A371230058331E80FFF71B
:10BA800037FF2000F8BDC046386D0200746A02001E
:10BA900010B50400034B0833036008F046F820009B
:10BAA00010BDC046CC6D0200F0B507005C3787B012
:10BAB0000400397800231022806C08F07DFC0326F6
:10BAC000002802D01F4807B0F0BD0F2502ABED18CB
:10BAD0000123397808220093A06C2B00FEF784FE26
:10BAE000184B9842EED02B78334203D06420FDF7F8
:10BAF0004FFAEAE7FA262189134DB6007143280070
:10BB000009F014FB310005F005FA20813978A023F3
:10BB10001122A06C08F050FC0028D3D1A36C21891D
:10BB20000393714328003F7809F0FBFA012318437F
:10BB3000C3B210223900039808F03EFC0028C2D09E
:10BB4000C0E7C0460EFCFFFF6C6D020070B5082513
:10BB5000837986B004002B4204D1FDF77FF9A379E5
:10BB60001D43A57120004C30FFF7B0F8061E0DD024
:10BB700023005C331978062304AD009301222B00C7
:10BB8000A06CFEF731FE061E03D0134E300006B047
:10BB900070BD0E232A786B445A706A7820001A70A0
:10BBA0000022995E64224A43A263AA785A70EA7816
:10BBB0001A700022995E64225242514361632979CE
:10BBC00059706979197000215B5E5A432368E263FA
:10BBD0001B6A9847DAE7C0460EFCFFFFF8B5040081
:10BBE000150006AA168807AA0F0012881900FEF78A
:10BBF00047F80D4BA764083323602300AA884C3311
:10BC00009A80AA7920009A71084AE264AA6862655B
:10BC10002A7B1A736A7B5A73AA7B1E829A73FFF778
:10BC200043FF2000F8BDC046CC6D0200746A0200DC
:10BC3000F7B5FA250189204FAD00040069433800AB
:10BC400009F074FA290005F065F9A17A20811B48F2
:10BC500009F06CFA2600636CA072009321895836B3
:10BC6000337869433800019309F05BFA07230343F3
:10BC7000DBB220220199009808F09EFB002801D039
:10BC80000F48FEBD317810232222606C08F094FB2F
:10BC90000028F5D1A17A0948656C377809F041FA96
:10BCA00080235B420343DBB223223900280008F0E3
:10BCB00083FB0028E5D0E3E7006E0200F86D020088
:10BCC0000EFCFFFF10B50400034B0833036007F0C0
:10BCD0005FFE200010BDC046706E0200F0B5042566
:10BCE000837985B004002B4204D1FDF7B7F8A3791E
:10BCF0001D43A57120004830FEF7E8FF061E0DD059
:10BD0000230058331978062302AD0093A8222B0094
:10BD1000606CFEF769FD061E03D0144E300005B0BE
:10BD2000F0BD1F200023EA5ED31703409B180222B8
:10BD3000A95E5B11CA170240521804216F5E5211AE
:10BD4000F9170140C91949112B806A80A980A07A8E
:10BD50004343424341435B42E36123685242A26151
:10BD600021629B6A20009847D8E7C0460EFCFFFF7F
:10BD7000F8B50400150006AA168807AA0F00128855
:10BD80001900FDF729FD0F4B67640833236023007A
:10BD9000AA8848339A80AA7920009A710A4AA26434
:10BDA000AA6822652A7B1A736A7B5A73AA7B9A73E4
:10BDB0000023A371230058331E80FFF739FF2000B2
:10BDC000F8BDC046706E0200746A0200F7B5FA252D
:10BDD00004000189134EAD006943300009F0A6F953
:10BDE000290005F097F82700A36C208100935C37A9
:10BDF0003B7881B269433000019309F092F96022E7
:10BE0000C3B20199009808F0D7FA002801D006487B
:10BE1000FEBD397801236222A06C08F0CDFA00281B
:10BE2000F6D0F4E7A46E02000EFCFFFF10B504008C
:10BE3000034B0833036007F078FE200010BDC046B6
:10BE4000CC6E02007FB50825837904002B4204D113
:10BE5000FDF704F8A3791D43A57120004C30FEF7CF
:10BE600035FF051E0DD023005C331978062302AE82
:10BE70000093E8223300A06CFEF7B6FC051E03D049
:10BE80000B4D280004B070BD0223F25E96235B4286
:10BE90005A4362630021725E20005343A36304236C
:10BEA000F25E96235343E36323681B6A9847E8E7EF
:10BEB0000EFCFFFFF8B50400150006AA168807AAB5
:10BEC0000F0012881900FDF7DBFE0D4BA764083345
:10BED00023602300AA884C339A80AA7920009A71A3
:10BEE000084AE264AA6862652A7B1A736A7B5A73FD
:10BEF000AA7B1E829A73FFF769FF2000F8BDC04637
:10BF0000CC6E0200746A020010B50400054B0833C1
:10BF100003601C3007F053FB2000183007F04FFB84
:10BF2000200010BDF86E0200FF23F0B52C4D8DB03F
:10BF30002B700023040069460088009303F05EFA2A
:10BF4000002802D16B469B782B70264E3368DB6845
:10BF5000002B07D1002320881A00190008F095FE55
:10BF60000DB0F0BD2B78032BF4D81F4901A8FDF7C5
:10BF700041FA336801A9DE6804A807F077FB04A939
:10BF8000300008F0E0FD0027060004A807F017FBCA
:10BF9000BE421ED031002022103104A80AF076FCE7
:10BFA00030000AF035FC297804ABC9005918082282
:10BFB00002A80AF06BFC20880123082202A908F0DD
:10BFC00064FE0137002804D12088084A0C2108F0BB
:10BFD0005AFE01A807F0F3FA002FBBD0C0E7C04615
:10BFE00080200020342600202B790200FFFF000073
:10BFF000F0B5837991B004005B071BD5FDF7B6F966
:10C0000000232269801A9941994203D1F423FF3316
:10C0100098420FD9A068002808D0364B1D8809F037
:10C02000FDF8036815221B6A290098470422A379AA
:10C030009343A371A3799B0759D52F4D2B68DB68D8
:10C04000002B50D02D4B1B78032B4CD8294B2C495F
:10C050001B8804A80193FDF7CDF92B6804A9DE68BD
:10C0600008A807F003FB08A9300008F06CFD0700E2
:10C0700008A807F0A4FA02AB9E1D08233200338003
:10C0800006A9073B019808F002FE002F08D03900EE
:10C090002022103108A80AF0F9FB38000AF0B8FB9A
:10C0A000164B32881B7806A9DE0008AB9E193000BB
:10C0B0000AF0DDFB002813D0082206A930000AF0A0
:10C0C000E5FB2B6804A9DD6805A807F0CFFA20235B
:10C0D00008AA05A9280008F03CFD05A807F06FFA9A
:10C0E00004A807F06CFA0222A3799343A37111B05C
:10C0F000F0BDC0462E2900203426002080200020DC
:10C100002B790200F7B5089E0500152922D80120D9
:10C1100007008F40244C27421CD0E97FCC181F2CED
:10C1200041DC69183418A14210D80021C8B28342FA
:10C1300004D9545C701884700131F7E732789A188A
:10C140003270EA7F9B18EB7700202CE00878C85407
:10C150000139E8E73478013CE4B2A34208D1002376
:10C16000D9B28C42F0D9D05CF11888700133F7E76E
:10C17000EF7F0120FF183F1B1F2F14DC0227A01C9C
:10C180007F423618381B0190E87F2F18BE4204D238
:10C190003078019FF0550136F6E7041B023CEC773E
:10C1A000280008F0BEFDFEBDFC002000F0B5040034
:10C1B00085B001930AAB1E880BAB1B78451C02931C
:10C1C0000EAB1B78170003930B78102203704B8A79
:10C1D0000131438228000AF059FB26830026012200
:10C1E000019B67616383039BE6832377029B2000A7
:10C1F000EB77A31CDA770C9B0C25636223000D9A66
:10C2000028331A705E709E702A0031002C300AF0BC
:10C2100059FB2000064BE663A3632A00310040303F
:10C220000AF050FB2000034B2665E36405B0F0BD27
:10C23000A54C0200974C020070B50D0008F0EEFF0F
:10C2400004000368002D09D15B699847FA2080003B
:10C250006843074904F05EFEE08070BD9B68984724
:10C260008542F3D2236820009B6898470500EDE7DC
:10C2700071020000F0B507001600A1B002C704006B
:10C280006B4918A81D0008F093FD331E03D0300041
:10C290000AF058FB83B20122049200220392029218
:10C2A000023201920093320018A93800FFF77EFF96
:10C2B00023006049583318A8079308F079FD2B1E16
:10C2C00003D028000AF03EFB83B201220492002230
:10C2D000039202920232019200932A0018A9079851
:10C2E000FFF764FF23005449AC3318A8089308F003
:10C2F0005FFD269B002B03D018000AF023FB83B2BE
:10C3000001220492002203920292023201920093CF
:10C31000269A18A90898FFF749FF631CFF3347497D
:10C3200018A8099308F044FD279B002B03D01800A0
:10C330000AF008FB83B2012204920022601C0392DF
:10C340000292023201920093279A18A9FF30FFF758
:10C350002DFF23005533FF33394918A8099308F0FE
:10C3600027FD289B002B03D018000AF0EBFA83B2BC
:10C37000012204920022039202920232019200935F
:10C38000289A18A90998FFF711FF2300A933FF3352
:10C390002C4918A80A9308F00BFD299B002B03D009
:10C3A00018000AF0CFFA83B201220492002218ADDD
:10C3B00003920292023201920093299A29000A986C
:10C3C000FFF7F4FE204B1B780B93002B2CD1079B1F
:10C3D00012971393089B0DAF1493631CFF331593AF
:10C3E000099B1A4916930A9B3800179308F0E0FC42
:10C3F0001D2149203B7810222B707B8A12AE6B8264
:10C4000006ABC918C0180AF041FA06232B750B9B1E
:10C410002068AB83AE6108F005FF036829001B6844
:10C4200098470122084B1A70200021B0F0BDC04689
:10C43000292A0000242A0000252A0000272A0000BB
:10C44000262A0000282A0000882900200A18000057
:10C4500070B5002504000B4B85800833857103609F
:10C46000C1601830FDF700F820001C30FCF7FCFF1D
:10C470000123621CD377044AA56065612000146023
:10C48000A37170BDF86E020034260020FA2130B589
:10C4900085B00500012302228900684607F02AF9C9
:10C4A000074C2068002809D008F0BBFC2988054B00
:10C4B00022681980022391790B43937105B030BD36
:10C4C000342600202E29002010B50C0007290DD895
:10C4D000806808F0A3FE064B195703685B6C984709
:10C4E000431E9841034B4042184010BD0248FCE7F0
:10C4F0002379020016FCFFFF17FCFFFFF0B5A44CE8
:10C500000D00A544040007939AAB1B78A14909A824
:10C5100004930692FCF76EFF200029001C3007F000
:10C52000ADF8C020800001F0F1FA08200AF07BF994
:10C530000600002100F0AEFE15ADA66000210C2221
:10C540000EA80AF0BFF92B000EAA83CA83C3924B30
:10C550002900EB60002330002B6108F048FEA06842
:10C5600008F05CFE08220021059016A80AF0AAF93E
:10C5700014200AF058F929000200884B1593C8C905
:10C58000C8C2874B059EC3600023A436036133688D
:10C59000002B00D0F5E03060A06808F043FE0822D0
:10C5A0000021060016A80AF08DF914200AF03BF9C4
:10C5B0007C4B1593030086CD86C37B4BC360002361
:10C5C0000361336B002B00D0DDE03063A06808F01E
:10C5D00025FE08220021050016A80AF073F9142090
:10C5E0000AF021F9714B15AE1593030086CE86C370
:10C5F0006F4B9835C360002303612B68002B00D07C
:10C60000C3E02860012504AB1B7C04AA2B4308A9C6
:10C610002800137408F03DFBA06808F007FE0368CB
:10C6200064495B6A9847A06808F000FE03686249A5
:10C630009B699847A06808F0F9FD00230268009301
:10C64000166804992A00B047049B002B0AD02000EA
:10C6500008F0F0FB032805DDA06808F0E7FD03689B
:10C66000DB6898470EA808F053FB2F2004ABC018D6
:10C6700008F04EFB362004ABC01808F049FB3D2003
:10C68000042504ABC01808F043FB0EAB0A93A06866
:10C6900004AB5D7708F0CAFD03680AA91B699847D7
:10C6A000A06808F0BBFD03680AA95B6D9847A06805
:10C6B00008F0B4FD03680021DB6D9847A06808F01E
:10C6C000ADFD036802219B6D984700212000FFF714
:10C6D000FBFE18200AF0A7F8A16800F055FA374BC6
:10C6E000374A1B68A1680393364B15A81B680026C0
:10C6F0000293354B0CAF1B680193069B1B685B19BB
:10C700000093324B12681B68FFF7B4FD30200AF02B
:10C710008AF8079AA16800F0F7FAA06808F07EFD91
:10C72000036839009B6A9847294BBE80A0680C9328
:10C7300008F074FD03683900DB6A98472900A06897
:10C7400008F042FB099A09219378A068521908F071
:10C750004EFBA06808F062FD32210671A068FFF769
:10C760006BFD04AB1B7FB34204D0A06808F056FDFC
:10C7700008F014FB09A806F022FF95239B009D44B6
:10C78000F0BD036107E703611FE7036139E7C046B6
:10C79000ACFDFFFF107A0200B34C02008DC4010013
:10C7A000C14C020029BF0100CF4C0200FD4C020029
:10C7B000DD4C0200D5C7010009C801003026002069
:10C7C0002C26002008200020282600200C200020F5
:10C7D0000800100013B506226846FCF71BFE094B43
:10C7E0001C68002C0AD0694601A806F03FFF200013
:10C7F00001A908F040FB01A806F0E1FE684606F03A
:10C80000DEFE13BD34260020002373B501AE0C00FC
:10C8100031000500019302F0F1FD002802D1B27849
:10C82000064B1A70064B1868002806D06142614119
:10C83000044BC9B21D8008F026FB73BD8020002088
:10C84000342600202E29002030B5284CA9B06A22B9
:10C850000D000DA821000AF019F80DA903A8FCF796
:10C8600037FE03A906A806F075FF01230193013BDB
:10C87000FF3B00930533FF33642206A92800FDF730
:10C880005BFF06A806F059FF210019226A3106A8AD
:10C8900009F0FCFF05220024110006AB04A806F0F5
:10C8A00080FF04A905A806F055FF01940094230019
:10C8B000220005A92800FDF7A9FE05A806F03DFF06
:10C8C00021002800FDF766FF05340520FCF760FB1A
:10C8D000FF2CF5D1FA208000FCF75AFB04A806F0E3
:10C8E0002CFF03A806F029FF29B030BDA078020074
:10C8F000F0B59C4B95B005921A680823040003918B
:10C90000D16C06A80B43D3649749FCF773FD974994
:10C9100007A8FCF76FFD220000250DAE30001C3289
:10C9200006A906F0BAFE07AA310008A806F0B5FE6F
:10C93000300006F044FE631CDD77A06808F06EFC52
:10C9400003680BAF5B699847300008F0E1F92B20D2
:10C9500004ABC01808F0DCF9322004ABC01808F0B2
:10C96000D7F9392004ABC01808F0D2F98023DB00D6
:10C97000BB80A0680B9608F051FC036839005B6D22
:10C980009847A06808F04AFC036829009B6D984707
:10C99000A06808F043FC070006000A371F222900A0
:10C9A000380009F08FFFFD77300008F0EEF906211E
:10C9B000A06808F009FA089A09219378A06804325F
:10C9C00008F015FAA06808F029FCC8210571A068D4
:10C9D000FFF732FCA06808F021FCFF272E0005813C
:10C9E000A06808F01BFC08F0D9F90398FDF7A2FD38
:10C9F0002000FCF733FA03992000FFF725FF039985
:10CA0000200008F053FA0495012563691D402DD0DC
:10CA1000574909A8FCF7DAFD09A90AA806F09AFE09
:10CA200000220AA91300019200920398FDF7EEFD7F
:10CA30000AA806F082FE049B002B42D1043F282F57
:10CA400041DD0025FE2F00DC049D059807F059F814
:10CA5000002806D0012362699A431300042213437D
:10CA60006361002609A806F068FE04950422636944
:10CA7000134233D0FF210398C826FDF78BFE002513
:10CA8000B600A36902229B5EAB4222DD200029B2E0
:10CA9000183006F018FE0023010003981A007430C5
:10CAA000FCF7E4FD3000FCF773FA039807F077FC1D
:10CAB000C820FCF76DFA02226369134209D10135DF
:10CAC000DFE70437BBE7039807F069FC002FBCDD04
:10CAD000BAE7FA208000FCF75BFA002602236569BA
:10CAE0001D421CD006331D4024D0224909A8FCF762
:10CAF0006DFD09A90AA806F02DFE00220AA90192DF
:10CB0000009213000398FDF781FD0AA806F015FEB8
:10CB10001948FCF73DFA09A806F00FFE174E6420ED
:10CB2000FCF736FA164B01369E4200DC6CE706F045
:10CB3000F2FB69E7134909A8FCF748FD09A90AA80F
:10CB400006F008FE2B002A000AA90195009503981B
:10CB5000FDF75CFD0AA806F0F0FD09A806F0EDFD62
:10CB6000DDE7C046B825002037790200477902008A
:10CB7000497902008E790200983A00008C0A000080
:10CB80008B0A0000CB7902000022594BF0B5083324
:10CB9000060003600F001000A9B0B1600BAB99183C
:10CBA00001324870102AFAD10F3A524C1A700E32E4
:10CBB000105D991A0874013AFAD2997B5A7B0902DE
:10CBC0000A4331000C31039125211B7813AD2B70E2
:10CBD00002ABC918452302A81B186A82180010224C
:10CBE00009F054FE039B64216B610123002402AA17
:10CBF0002B7752181993093313701DAB1C706D23DA
:10CC000002AA9B181C706E2321009B181EA80C22E0
:10CC1000EC836C621C7009F055FE374B0C2221002E
:10CC200023A8AB63EC6309F04DFE344B02AAEB641E
:10CC300046239B180322DA7722002C65059534736E
:10CC400006AD2B1901345A70102CFAD101232C484F
:10CC50002B700E33195CEA1A1174013BFAD21121C0
:10CC60002520AA7B6B7B12020BAC13432A786382CC
:10CC700002ABC9182270C018102209F007FE012368
:10CC8000237505ABA36100233800A38308F0CAFA1B
:10CC9000036821001B68984713ABDB8BB068B38235
:10CCA00008F0C0FA002203680092B18A039ADC6897
:10CCB0000123A047B06808F0B5FA0700142009F076
:10CCC000B2FD0022012304000261069240C0083236
:10CCD0002900079309F0DAFD0A4BE360BB69002BDA
:10CCE00003D13000BC6129B0F0BD2361F9E7C04633
:10CCF000106F0200347A0200A54C0200974C02002B
:10CD0000447A02000D4F0200F0B500260400724B79
:10CD1000DDB0083303608160C260868086713200B6
:10CD20006E4947A808F092F923001433012504271F
:10CD300008931223009704950193089A330047A99A
:10CD4000039602961DA8FFF731FA3200644947A8FE
:10CD500008F07CF90C2322000097103215AF0495DF
:10CD6000019347A933000396029632A8FFF71EFAF3
:10CD700032005C49380008F069F921001C31099142
:10CD80000423082104950191009339003300099A86
:10CD90000396029647A8FFF709FA32005249380075
:10CDA00008F054F9542009F03EFD2100122204231A
:10CDB000183107910495019200930A00330039005D
:10CDC000039602960690FFF7F1F9069A474B10007A
:10CDD000A262D4620AA9082230300A930B9609F0A5
:10CDE00055FD434B069A09999363293215702661C4
:10CDF0000422E661079809F049FD04220799089882
:10CE000009F044FD6622032304A95218D377BA22FD
:10CE10005218D377872252005218D377069A354991
:10CE20000232D3771DAA0C9232AA0D9247AA0E9213
:10CE3000069AA6850F9210A8320008F007F9302153
:10CE4000452004AA52181378123104AA3B705218D4
:10CE5000138811397B8204AB1022C918C01809F05D
:10CE600015FD04230CADA0683B75BD61BE8308F0C1
:10CE7000D9F9036839001B689847822204AB9B18D4
:10CE80001B885432238404AB9B181B885432A38420
:10CE900004AB9B181B88A068638408F0C3F90700E3
:10CEA000142009F0C0FC0500134B0661082210C0D5
:10CEB00010A91093119609F0E9FC104BEB60BB69C7
:10CEC000B34206D1BD612000FBF7C8FF20005DB072
:10CED000F0BD2B61F6E7C0461C6F0200747A0200B9
:10CEE000547A0200647A0200847A02001F50020021
:10CEF0008B4F0200947A020069CF0100B54F020007
:10CF0000F0B504000E00150085B01F000CAB1B88A7
:10CF10001030019306F0E4FB26806580182009F0AC
:10CF200082FC02AE050033000AAA03CA03C32F60C5
:10CF30002800082700213A000C3009F0C3FC3A0011
:10CF40003100281D09F0A2FC064B02226B61200073
:10CF500000230199A5600A43E360A2802362636213
:10CF600005B0F0BDDF4F0200F0B50B898DB0059321
:10CF7000CB68050004934B88828C9A420ED1049CA6
:10CF8000049B059A9B181B1B032B39DD62882188A3
:10CF9000012308A806F0AEFB0434F1E7428C9A4264
:10CFA0002ED1049C049B059A9B181B1B032B27DD89
:10CFB0002388282006936388EF680793114B089312
:10CFC0000023099309F02FFCC0236A460600029350
:10CFD00008AB03CB03C22B000699079A3000FFF77A
:10CFE0008FFF3B6831005B6838009847002805D008
:10CFF000300006F09AFA300009F00AFC0434D1E758
:10D000000DB0F0BD9D50020070B5040090B0806876
:10D0100008F03FF8022101401AD1A38D002B17D050
:10D020000C4B6A4604931023E568A1850591029391
:10D0300004AB41CB41C20A00230006A8FFF760FF02
:10D040002B6806A99B682800984706A806F06DFA89
:10D0500010B070BD9D500200002815D000604160E6
:10D060008260C360046145618661C76144460462B1
:10D070004C464462544684625C46C462644604631F
:10D080006E46466374468463002A06D0C46B043C33
:10D09000043A25681560B442F9D18C6BA6464E6BF4
:10D0A000B546002B06D0CC6B043C043B1D682560C4
:10D0B000B442F9D10C6BA446CC6AA3468C6AA24652
:10D0C0004C6AA1460C6AA046CF698E694D690C690D
:10D0D000CB688A6808684968704700604160826070
:10D0E000C360046145618661C761444604624C4681
:10D0F0004462544684625C46C462644604636E467D
:10D10000466374468463C46B043C043925680D602F
:10D11000B442F9D1C76986694569046970470060FE
:10D1200041608260C360046145618661C7614446B5
:10D1300004624C464462544684625C46C46264465F
:10D1400004636C4644637446846304697047846B6B
:10D15000A646446BA546046BA446C46AA346846AEB
:10D16000A246446AA146046AA046C7698669456921
:10D170000469C368826800684168704710B5041E7E
:10D180000CD009F0DFFB431EE3189C4208D2227842
:10D190001978013B21705A700134F6E7014810BD3F
:10D1A0000020FCE717FCFFFFF0B585B002900C1ED5
:10D1B0002AD00023C217161A56400193019B300053
:10D1C0005D1C63190A215F1E039304F013F84942A2
:10D1D0003031397030000A2103F026FF4742060043
:10D1E000002F0FD1029B002B04DA2D23019D039AFF
:10D1F00002351370002320006355FFF7BFFF38008E
:10D2000005B0F0BD0195D9E7004FF8E717FCFFFF27
:10D210000268084B406810B5C018C0001018030021
:10D220009A4205D81C688C4202D31800083BF7E7E5
:10D2300010BDC046FFFFFF1F70B5002817D1114D6C
:10D240002E68002E11D1083009F0EDFA0660466014
:10D250000D4E04003368002B02D108F01AFA30603A
:10D2600023682C609B00F3586360286870BD01221E
:10D27000064907480B681340F8D1026043600A6012
:10D28000F4E7C0463C26002048260020382600202F
:10D2900040260020002370B50400016043609942DD
:10D2A0000AD1064D2B68002B02D108F0F2F9286054
:10D2B00023689B00EB586360200070BD4826002067
:10D2C000436810B50400002B02D1044809F0E1F8CE
:10D2D000606803681B69984710BDC046A47A0200C5
:10D2E000436810B50400002B02D1044809F0D1F8BE
:10D2F000606803689B69984710BDC046A47A020025
:10D30000436810B50400002B02D1044809F0C1F8AD
:10D31000606803685B6A984710BDC046A47A020043
:10D3200000487047FFFF0000F0B597B00593036811
:10D3300007AD1B680491039311002B00060091C9EF
:10D3400091C30024D36821000C220CA8EB602C614F
:10D3500009F0B8FA22000B4B10940F9311AB1C701C
:10D36000191901344A70102CFAD15A820193059B85
:10D370002A00009304990CAB3000039CA04717B01F
:10D38000F0BDC0464B53020070B5FC30046C050084
:10D39000002C0DD1242009F046FA064B446083612D
:10D3A000054B8460C46004614461C4610360286407
:10D3B000286C70BD08700200F070020070B5FC307F
:10D3C000C56B0400002D11D1342009F02CFA084B54
:10D3D00085604360074B45610361074B0562C3618C
:10D3E000064BC5628362064BE0630360E06B70BD71
:10D3F000387002002870020098700200A8700200C5
:10D40000B87002007FB503791548002B22D0154E65
:10D41000154C33782000002B1CD102AD280007F0FA
:10D4200071FF002810D16B88592B0DD12B78AA8859
:10D43000D91F012910D800920C4A2021200005F0A4
:10D44000E7FB0123337004E020220949200009F0A2
:10D4500080FA200004B070BD0092064AEDE7C04695
:10D46000C77A0200A929002089290020E97A020050
:10D47000E17A0200067B020010B50400024B08C0EE
:10D4800008F020F8200010BD2870020010B504003C
:10D49000024B08C008F02BF8200010BD38700200C5
:10D4A000064B70B5040003604068002804D005698D
:10D4B00009F0AEF92800F8E7200070BD18700200EE
:10D4C000064B70B5040003604068002804D005696D
:10D4D00009F09EF92800F8E7200070BD48700200AE
:10D4E000064B70B5040003604068002804D005694D
:10D4F00009F08EF92800F8E7200070BD587002008E
:10D50000064B70B5040003604068002804D005692C
:10D5100009F07EF92800F8E7200070BD987002003D
:10D52000064B70B5040003604068002804D005690C
:10D5300009F06EF92800F8E7200070BDA87002001D
:10D54000064B70B5040003604068002804D00569EC
:10D5500009F05EF92800F8E7200070BD3C6F02007A
:10D56000064B70B5040003604068002804D00569CC
:10D5700009F04EF92800F8E7200070BD4C6F02005A
:10D58000064B70B5040003604068002804D00569AC
:10D5900009F03EF92800F8E7200070BD5C6F02003A
:10D5A000064B70B5040003604068002804D005698C
:10D5B00009F02EF92800F8E7200070BD6C6F02001A
:10D5C000064B70B5040003604068002804D005696C
:10D5D00009F01EF92800F8E7200070BD087002006D
:10D5E00070B5FC30046C0500002C0DD1242009F02E
:10D5F0001AF9064B44608361054B8460C460046182
:10D600004461C46103602864286C70BD0870020026
:10D61000F0700200104B10B5083303600F4B04008C
:10D62000C36080230E4A5B00C250C018FCF758FE4E
:10D6300020000C4BB830E360FFF7B2FF2000AC30A5
:10D64000FFF79EFF2000A030FFF78AFF20006C301C
:10D65000FFF776FF200010BD1C71020094710200DC
:10D66000BC7202007C6F0200F8B505000400AC3506
:10D670006B68AB60A868002807D0C3682100984792
:10D68000AB68002BF4D01B69F3E72500B0352868A0
:10D69000002804D0066909F0BBF83000F8E7220042
:10D6A000FC212860583213780B40137023005C3340
:10D6B000187020000A3007F0E3FF2000343007F034
:10D6C000DFFF606E002804D0056909F0A1F828008A
:10D6D000F8E72500983560662868002804D00669B8
:10D6E00009F096F83000F8E72600A436286035687F
:10D6F000002D05D02F69280009F08AF83D00F7E7D2
:10D700002000356029000C226C3009F0DBF8200085
:10D71000074BE567A36729000C22803009F0D2F897
:10D720002300044A8C33903428001A602560F8BD29
:10D730002F53020021530200444AF0B50600C26094
:10D74000A022434B163608330360010000234282B7
:10D750000400320085B00371836003748382353125
:10D76000137001329142FBD1802580222000AD0050
:10D77000D201F3773584110000933830002300F094
:10D7800035FF23002100403303931A002B000025AE
:10D790005F31157001328A42FBD1039AFC21D577A3
:10D7A000220060321380137920000B401371230094
:10D7B00068331D70274B2567E3660C220021783003
:10D7C00009F080F82300270088331D60224B0837BA
:10D7D000FB67843700210C22380009F073F81F4BD7
:10D7E0001F4AFB602300A0333D611A601D4A5D6043
:10D7F000DA601D4A1D619A61DD61300007F040FF6B
:10D80000039807F03DFF194B601CE3602300C4330D
:10D810001D705D709D70FF3002F052FD8C235B0027
:10D82000E55023001933FF335D618023104A5B000C
:10D83000E250230001222000FE3352425A86023B6E
:10D840009D63DD631D6405B0F0BDC0467C6F0200C2
:10D850001C7102003C6F02002F5302002153020092
:10D860004C6F02005C6F02006C6F0200947102004A
:10D87000BC72020070B5074C2368002B07D1A020B2
:10D88000400008F0D0FF0500FFF756FF2560206834
:10D8900070BDC0464C26002070B50C220D00002142
:10D8A000040009F00FF800232361024B25602000DB
:10D8B000E36070BD3D53020070B500250400254BA8
:10D8C00085800360244BC5608360244B8561436180
:10D8D000234B45620362234B0563C362224BC5633E
:10D8E000836329004430FFF7D7FF20002900583018
:10D8F000FFF7D2FF200029006C30FFF7CDFF1B4B54
:10D900002200236023008032F83320C29342FCD1EE
:10D9100026001D00E936FF362800082200210835C0
:10D9200008F0D0FFAE42F7D18E2300229B00E11811
:10D9300004C6B142FCD18E2300219B00E2540C4B63
:10D940000C4AE318A218198002339A42FBD1200036
:10D9500070BDC04668700200187002002870020096
:10D9600038700200487002005870020064710200B2
:10D970003A0200006202000010B5040002F0C6F98D
:10D98000034B1B68002B01D02000984710BDC046F8
:10D9900054260020F0B58BB0050001F06FFB00208D
:10D9A000FFF768FF036807001B6998473B6804009E
:10D9B0009B69380098473B6806005B6A38009847C7
:10D9C0000300288810380B2861D803F099FA063D27
:10D9D0006060605A606060666078AF8820003900DF
:10D9E00008F053FA22006B7B583201931378A87920
:10D9F0009C46022361460B43137004AB1F80012336
:10DA000004AA93701300D070019AE91D9A722B003A
:10DA10000622163305A8099308F038FF29000B20C9
:10DA200004AB06220E31C01808F030FF943463684E
:10DA3000A360A06800282AD0C36804A99847A368F7
:10DA4000002BF4D01B69F3E720002F49AF8808F0C2
:10DA50001CFA2200022058321378A97983431370EC
:10DA600004AB1F809970A0346368A360A06800288D
:10DA70000DD0C36804A99847A368002BF4D01B6994
:10DA8000F3E75B69A888A91D002B00D098472900FF
:10DA9000300007F060FF0BB0F0BD636E002BF6D0D6
:10DAA000AF79A366A06E0028F1D0C368390098470B
:10DAB000A36E002B01D1636EF3E71B69F1E701222E
:10DAC00069460D27AB7BEF571A4001925A07920F18
:10DAD000DB080A720B730622E91D04A808F0D6FEC3
